{
  "address": "0x2BF9B7f8746375cA0F108808F69039F4A63F9dbB",
  "abi": [
    {
      "inputs": [
        {
          "internalType": "address",
          "name": "_linkTokenAddr",
          "type": "address"
        },
        {
          "internalType": "address",
          "name": "_oralcleAddr",
          "type": "address"
        }
      ],
      "stateMutability": "nonpayable",
      "type": "constructor"
    },
    {
      "anonymous": false,
      "inputs": [
        {
          "indexed": true,
          "internalType": "bytes32",
          "name": "id",
          "type": "bytes32"
        }
      ],
      "name": "ChainlinkCancelled",
      "type": "event"
    },
    {
      "anonymous": false,
      "inputs": [
        {
          "indexed": true,
          "internalType": "bytes32",
          "name": "id",
          "type": "bytes32"
        }
      ],
      "name": "ChainlinkFulfilled",
      "type": "event"
    },
    {
      "anonymous": false,
      "inputs": [
        {
          "indexed": true,
          "internalType": "bytes32",
          "name": "id",
          "type": "bytes32"
        }
      ],
      "name": "ChainlinkRequested",
      "type": "event"
    },
    {
      "inputs": [
        {
          "internalType": "bytes32",
          "name": "_requestId",
          "type": "bytes32"
        },
        {
          "internalType": "uint256",
          "name": "_payload",
          "type": "uint256"
        },
        {
          "internalType": "uint256",
          "name": "_userId",
          "type": "uint256"
        }
      ],
      "name": "fulfill",
      "outputs": [],
      "stateMutability": "nonpayable",
      "type": "function"
    },
    {
      "inputs": [
        {
          "internalType": "bytes32",
          "name": "_requestId",
          "type": "bytes32"
        }
      ],
      "name": "getRequest",
      "outputs": [
        {
          "components": [
            {
              "internalType": "bytes32",
              "name": "Id",
              "type": "bytes32"
            },
            {
              "internalType": "enum ChainlinkTwitterAdapter.APIFuncToCall",
              "name": "method",
              "type": "uint8"
            },
            {
              "internalType": "uint256",
              "name": "userId",
              "type": "uint256"
            },
            {
              "internalType": "bool",
              "name": "fulfilled",
              "type": "bool"
            },
            {
              "internalType": "uint256",
              "name": "payload",
              "type": "uint256"
            }
          ],
          "internalType": "struct ChainlinkTwitterAdapter.TwitterRequest",
          "name": "",
          "type": "tuple"
        }
      ],
      "stateMutability": "view",
      "type": "function"
    },
    {
      "inputs": [
        {
          "internalType": "string",
          "name": "username",
          "type": "string"
        }
      ],
      "name": "requestLastUserTweetTs",
      "outputs": [
        {
          "internalType": "bytes32",
          "name": "",
          "type": "bytes32"
        }
      ],
      "stateMutability": "nonpayable",
      "type": "function"
    },
    {
      "inputs": [
        {
          "internalType": "string",
          "name": "_username",
          "type": "string"
        },
        {
          "internalType": "string",
          "name": "_timeStamp",
          "type": "string"
        }
      ],
      "name": "requestLikesSinceTs",
      "outputs": [
        {
          "internalType": "bytes32",
          "name": "",
          "type": "bytes32"
        }
      ],
      "stateMutability": "nonpayable",
      "type": "function"
    }
  ],
  "transactionHash": "0xfda57db54518d5f51e280e20857da24ec05af597736e9b34027405aa7e1ea204",
  "args": [
    "0x26bBa6Ab9A5c174283F310c6Da5C1DBD62064379",
    "0x75128a83e119B0477DbAf25c034b27943844688e"
  ],
  "numDeployments": 1,
  "solcInputHash": "ed9176a3d27b018c013ec0297770a39a",
  "bytecode": "0x608060405260016004553480156200001657600080fd5b5060405162001eb038038062001eb083398181016040528101906200003c919062000118565b6200004d82620000bd60201b60201c565b80600660006101000a81548173ffffffffffffffffffffffffffffffffffffffff021916908373ffffffffffffffffffffffffffffffffffffffff1602179055507f32636339323632323661366134393735616534393963383733353235653838316007819055505050620001b2565b80600260006101000a81548173ffffffffffffffffffffffffffffffffffffffff021916908373ffffffffffffffffffffffffffffffffffffffff16021790555050565b600081519050620001128162000198565b92915050565b6000806040838503121562000132576200013162000193565b5b6000620001428582860162000101565b9250506020620001558582860162000101565b9150509250929050565b60006200016c8262000173565b9050919050565b600073ffffffffffffffffffffffffffffffffffffffff82169050919050565b600080fd5b620001a3816200015f565b8114620001af57600080fd5b50565b611cee80620001c26000396000f3fe608060405234801561001057600080fd5b506004361061004c5760003560e01c806388a997bf14610051578063aedf0a4a1461006d578063b44bce3e1461009d578063fb1e61ca146100cd575b600080fd5b61006b600480360381019061006691906111c2565b6100fd565b005b61008760048036038101906100829190611215565b610208565b604051610094919061158b565b60405180910390f35b6100b760048036038101906100b2919061125e565b610418565b6040516100c4919061158b565b60405180910390f35b6100e760048036038101906100e29190611195565b610625565b6040516100f4919061161d565b60405180910390f35b826005600082815260200190815260200160002060009054906101000a900473ffffffffffffffffffffffffffffffffffffffff1673ffffffffffffffffffffffffffffffffffffffff163373ffffffffffffffffffffffffffffffffffffffff161461019f576040517f08c379a0000000000000000000000000000000000000000000000000000000008152600401610196906115fd565b60405180910390fd5b6005600082815260200190815260200160002060006101000a81549073ffffffffffffffffffffffffffffffffffffffff0219169055807f7cc135e0cebb02c3480ae5d74d377283180a2601f8f644edf7987b009316c63a60405160405180910390a250505050565b60006102496040518060400160405280600f81526020017f54413a2052656365697665642025730000000000000000000000000000000000815250836106c6565b600061025f600754306388a997bf60e01b610762565b90506102ab6040518060400160405280600881526020017f757365726e616d6500000000000000000000000000000000000000000000000081525084836107939092919063ffffffff16565b61032a6040518060400160405280600681526020017f6d6574686f6400000000000000000000000000000000000000000000000000008152506040518060400160405280600f81526020017f6c61746573745f74776565745f74730000000000000000000000000000000000815250836107939092919063ffffffff16565b6103836040518060400160405280600681526020017f757365726964000000000000000000000000000000000000000000000000000081525060405180602001604052806000815250836107939092919063ffffffff16565b6103dc6040518060400160405280600781526020017f756e69785f74730000000000000000000000000000000000000000000000000081525060405180602001604052806000815250836107939092919063ffffffff16565b600061040c600660009054906101000a900473ffffffffffffffffffffffffffffffffffffffff168360006107c6565b90508092505050919050565b60006104596040518060400160405280600f81526020017f54413a2052656365697665642025730000000000000000000000000000000000815250846106c6565b600061046f600754306388a997bf60e01b610762565b90506104bb6040518060400160405280600881526020017f757365726e616d6500000000000000000000000000000000000000000000000081525085836107939092919063ffffffff16565b61053a6040518060400160405280600681526020017f6d6574686f6400000000000000000000000000000000000000000000000000008152506040518060400160405280600e81526020017f6c696b65735f73696e63655f7473000000000000000000000000000000000000815250836107939092919063ffffffff16565b6105936040518060400160405280600681526020017f757365726964000000000000000000000000000000000000000000000000000081525060405180602001604052806000815250836107939092919063ffffffff16565b6105dd6040518060400160405280600781526020017f756e69785f74730000000000000000000000000000000000000000000000000081525084836107939092919063ffffffff16565b600061060d600660009054906101000a900473ffffffffffffffffffffffffffffffffffffffff168360006107c6565b905061061a816001610892565b809250505092915050565b61062d610fec565b600960008381526020019081526020016000206040518060a0016040529081600082015481526020016001820160009054906101000a900460ff16600181111561067a57610679611b24565b5b600181111561068c5761068b611b24565b5b8152602001600282015481526020016003820160009054906101000a900460ff161515151581526020016004820154815250509050919050565b61075e82826040516024016106dc9291906115a6565b6040516020818303038152906040527f4b5c4277000000000000000000000000000000000000000000000000000000007bffffffffffffffffffffffffffffffffffffffffffffffffffffffff19166020820180517bffffffffffffffffffffffffffffffffffffffffffffffffffffffff83818316178352505050506108e3565b5050565b61076a611032565b610772611032565b6107898585858461090c909392919063ffffffff16565b9150509392505050565b6107aa8284608001516109bc90919063ffffffff16565b6107c18184608001516109bc90919063ffffffff16565b505050565b60008060045490506001816107db91906116c6565b6004819055506000634042994660e01b60008087600001513089604001518760018c608001516000015160405160240161081c9897969594939291906114c8565b604051602081830303815290604052907bffffffffffffffffffffffffffffffffffffffffffffffffffffffff19166020820180517bffffffffffffffffffffffffffffffffffffffffffffffffffffffff83818316178352505050509050610887868386846109e1565b925050509392505050565b6000600960008481526020019081526020016000209050828160000181905550818160010160006101000a81548160ff021916908360018111156108d9576108d8611b24565b5b0217905550505050565b60008151905060006a636f6e736f6c652e6c6f679050602083016000808483855afa5050505050565b610914611032565b6109248560800151610100610b85565b508385600001818152505082856020019073ffffffffffffffffffffffffffffffffffffffff16908173ffffffffffffffffffffffffffffffffffffffff16815250508185604001907bffffffffffffffffffffffffffffffffffffffffffffffffffffffff191690817bffffffffffffffffffffffffffffffffffffffffffffffffffffffff191681525050849050949350505050565b6109c98260038351610bef565b6109dc8183610d7490919063ffffffff16565b505050565b600030846040516020016109f692919061149c565b604051602081830303815290604052805190602001209050846005600083815260200190815260200160002060006101000a81548173ffffffffffffffffffffffffffffffffffffffff021916908373ffffffffffffffffffffffffffffffffffffffff160217905550807fb5e6e01e79f91267dc17b4e6314d5d4d03593d2ceee0fbb452b750bd70ea5af960405160405180910390a2600260009054906101000a900473ffffffffffffffffffffffffffffffffffffffff1673ffffffffffffffffffffffffffffffffffffffff16634000aea08685856040518463ffffffff1660e01b8152600401610aec9392919061154d565b602060405180830381600087803b158015610b0657600080fd5b505af1158015610b1a573d6000803e3d6000fd5b505050506040513d601f19601f82011682018060405250810190610b3e9190611168565b610b7d576040517f08c379a0000000000000000000000000000000000000000000000000000000008152600401610b74906115dd565b60405180910390fd5b949350505050565b610b8d61109f565b6000602083610b9c9190611a95565b14610bc857602082610bae9190611a95565b6020610bba91906118e7565b82610bc591906116c6565b91505b81836020018181525050604051808452600081528281016020016040525082905092915050565b60178167ffffffffffffffff1611610c2657610c208160058460ff16901b60ff161784610d9690919063ffffffff16565b50610d6f565b60ff8167ffffffffffffffff1611610c7c57610c55601860058460ff16901b1784610d9690919063ffffffff16565b50610c768167ffffffffffffffff16600185610db69092919063ffffffff16565b50610d6e565b61ffff8167ffffffffffffffff1611610cd357610cac601960058460ff16901b1784610d9690919063ffffffff16565b50610ccd8167ffffffffffffffff16600285610db69092919063ffffffff16565b50610d6d565b63ffffffff8167ffffffffffffffff1611610d2c57610d05601a60058460ff16901b1784610d9690919063ffffffff16565b50610d268167ffffffffffffffff16600485610db69092919063ffffffff16565b50610d6c565b610d49601b60058460ff16901b1784610d9690919063ffffffff16565b50610d6a8167ffffffffffffffff16600885610db69092919063ffffffff16565b505b5b5b5b505050565b610d7c61109f565b610d8e83846000015151848551610dd8565b905092915050565b610d9e61109f565b610dae8384600001515184610ec7565b905092915050565b610dbe61109f565b610dcf848560000151518585610f1e565b90509392505050565b610de061109f565b8251821115610dee57600080fd5b84602001518285610dff91906116c6565b1115610e3457610e33856002610e2488602001518887610e1f91906116c6565b610fac565b610e2e919061188d565b610fc8565b5b600080865180518760208301019350808887011115610e535787860182525b60208701925050505b60208410610e9a5780518252602082610e7591906116c6565b9150602081610e8491906116c6565b9050602084610e9391906118e7565b9350610e5c565b60006001856020036101000a03905080198251168184511681811785525050508692505050949350505050565b610ecf61109f565b83602001518310610ef557610ef48460028660200151610eef919061188d565b610fc8565b5b8351805160208583010184815381861415610f11576001820183525b5050508390509392505050565b610f2661109f565b84602001518483610f3791906116c6565b1115610f5f57610f5e8560028685610f4f91906116c6565b610f59919061188d565b610fc8565b5b6000600183610100610f71919061176f565b610f7b91906118e7565b90508551838682010185831982511617815281518588011115610f9e5784870182525b505085915050949350505050565b600081831115610fbe57829050610fc2565b8190505b92915050565b600082600001519050610fdb8383610b85565b50610fe68382610d74565b50505050565b6040518060a00160405280600080191681526020016000600181111561101557611014611b24565b5b815260200160008152602001600015158152602001600081525090565b6040518060a0016040528060008019168152602001600073ffffffffffffffffffffffffffffffffffffffff16815260200160007bffffffffffffffffffffffffffffffffffffffffffffffffffffffff191681526020016000815260200161109961109f565b81525090565b604051806040016040528060608152602001600081525090565b60006110cc6110c78461165d565b611638565b9050828152602081018484840111156110e8576110e7611b87565b5b6110f38482856119f4565b509392505050565b60008151905061110a81611c73565b92915050565b60008135905061111f81611c8a565b92915050565b600082601f83011261113a57611139611b82565b5b813561114a8482602086016110b9565b91505092915050565b60008135905061116281611ca1565b92915050565b60006020828403121561117e5761117d611b91565b5b600061118c848285016110fb565b91505092915050565b6000602082840312156111ab576111aa611b91565b5b60006111b984828501611110565b91505092915050565b6000806000606084860312156111db576111da611b91565b5b60006111e986828701611110565b93505060206111fa86828701611153565b925050604061120b86828701611153565b9150509250925092565b60006020828403121561122b5761122a611b91565b5b600082013567ffffffffffffffff81111561124957611248611b8c565b5b61125584828501611125565b91505092915050565b6000806040838503121561127557611274611b91565b5b600083013567ffffffffffffffff81111561129357611292611b8c565b5b61129f85828601611125565b925050602083013567ffffffffffffffff8111156112c0576112bf611b8c565b5b6112cc85828601611125565b9150509250929050565b6112df8161191b565b82525050565b6112ee8161192d565b82525050565b6112fd81611939565b82525050565b61130c81611939565b82525050565b61131b81611943565b82525050565b600061132c8261168e565b61133681856116a4565b9350611346818560208601611a03565b61134f81611b96565b840191505092915050565b61136b611366826119ac565b611a67565b82525050565b61137a816119be565b82525050565b600061138b82611699565b61139581856116b5565b93506113a5818560208601611a03565b6113ae81611b96565b840191505092915050565b60006113c66023836116b5565b91506113d182611bc1565b604082019050919050565b60006113e96028836116b5565b91506113f482611c10565b604082019050919050565b60a08201600082015161141560008501826112f4565b5060208201516114286020850182611371565b50604082015161143b6040850182611467565b50606082015161144e60608501826112e5565b5060808201516114616080850182611467565b50505050565b611470816119a2565b82525050565b61147f816119a2565b82525050565b611496611491826119a2565b611a8b565b82525050565b60006114a8828561135a565b6014820191506114b88284611485565b6020820191508190509392505050565b6000610100820190506114de600083018b6112d6565b6114eb602083018a611476565b6114f86040830189611303565b61150560608301886112d6565b6115126080830187611312565b61151f60a0830186611476565b61152c60c0830185611476565b81810360e083015261153e8184611321565b90509998505050505050505050565b600060608201905061156260008301866112d6565b61156f6020830185611476565b81810360408301526115818184611321565b9050949350505050565b60006020820190506115a06000830184611303565b92915050565b600060408201905081810360008301526115c08185611380565b905081810360208301526115d48184611380565b90509392505050565b600060208201905081810360008301526115f6816113b9565b9050919050565b60006020820190508181036000830152611616816113dc565b9050919050565b600060a08201905061163260008301846113ff565b92915050565b6000611642611653565b905061164e8282611a36565b919050565b6000604051905090565b600067ffffffffffffffff82111561167857611677611b53565b5b61168182611b96565b9050602081019050919050565b600081519050919050565b600081519050919050565b600082825260208201905092915050565b600082825260208201905092915050565b60006116d1826119a2565b91506116dc836119a2565b9250827fffffffffffffffffffffffffffffffffffffffffffffffffffffffffffffffff0382111561171157611710611ac6565b5b828201905092915050565b6000808291508390505b60018511156117665780860481111561174257611741611ac6565b5b60018516156117515780820291505b808102905061175f85611bb4565b9450611726565b94509492505050565b600061177a826119a2565b9150611785836119a2565b92506117b27fffffffffffffffffffffffffffffffffffffffffffffffffffffffffffffffff84846117ba565b905092915050565b6000826117ca5760019050611886565b816117d85760009050611886565b81600181146117ee57600281146117f857611827565b6001915050611886565b60ff84111561180a57611809611ac6565b5b8360020a91508482111561182157611820611ac6565b5b50611886565b5060208310610133831016604e8410600b841016171561185c5782820a90508381111561185757611856611ac6565b5b611886565b611869848484600161171c565b925090508184048111156118805761187f611ac6565b5b81810290505b9392505050565b6000611898826119a2565b91506118a3836119a2565b9250817fffffffffffffffffffffffffffffffffffffffffffffffffffffffffffffffff04831182151516156118dc576118db611ac6565b5b828202905092915050565b60006118f2826119a2565b91506118fd836119a2565b9250828210156119105761190f611ac6565b5b828203905092915050565b600061192682611982565b9050919050565b60008115159050919050565b6000819050919050565b60007fffffffff0000000000000000000000000000000000000000000000000000000082169050919050565b600081905061197d82611c5f565b919050565b600073ffffffffffffffffffffffffffffffffffffffff82169050919050565b6000819050919050565b60006119b7826119d0565b9050919050565b60006119c98261196f565b9050919050565b60006119db826119e2565b9050919050565b60006119ed82611982565b9050919050565b82818337600083830152505050565b60005b83811015611a21578082015181840152602081019050611a06565b83811115611a30576000848401525b50505050565b611a3f82611b96565b810181811067ffffffffffffffff82111715611a5e57611a5d611b53565b5b80604052505050565b6000611a7282611a79565b9050919050565b6000611a8482611ba7565b9050919050565b6000819050919050565b6000611aa0826119a2565b9150611aab836119a2565b925082611abb57611aba611af5565b5b828206905092915050565b7f4e487b7100000000000000000000000000000000000000000000000000000000600052601160045260246000fd5b7f4e487b7100000000000000000000000000000000000000000000000000000000600052601260045260246000fd5b7f4e487b7100000000000000000000000000000000000000000000000000000000600052602160045260246000fd5b7f4e487b7100000000000000000000000000000000000000000000000000000000600052604160045260246000fd5b600080fd5b600080fd5b600080fd5b600080fd5b6000601f19601f8301169050919050565b60008160601b9050919050565b60008160011c9050919050565b7f756e61626c6520746f207472616e73666572416e6443616c6c20746f206f726160008201527f636c650000000000000000000000000000000000000000000000000000000000602082015250565b7f536f75726365206d75737420626520746865206f7261636c65206f662074686560008201527f2072657175657374000000000000000000000000000000000000000000000000602082015250565b60028110611c7057611c6f611b24565b5b50565b611c7c8161192d565b8114611c8757600080fd5b50565b611c9381611939565b8114611c9e57600080fd5b50565b611caa816119a2565b8114611cb557600080fd5b5056fea2646970667358221220a6caf2f1a280412f6f8aa3dc85c7412484507c52b7911871d2e7bb2702927b6b64736f6c63430008070033",
  "devdoc": {
    "kind": "dev",
    "methods": {},
    "version": 1
  },
  "userdoc": {
    "kind": "user",
    "methods": {},
    "version": 1
  },
  "storageLayout": {
    "storage": [
      {
        "astId": 319,
        "contract": "contracts/ChainlinkTwitterAdapter.sol:ChainlinkTwitterAdapter",
        "label": "s_ens",
        "offset": 0,
        "slot": "0",
        "type": "t_contract(ENSInterface)1156"
      },
      {
        "astId": 321,
        "contract": "contracts/ChainlinkTwitterAdapter.sol:ChainlinkTwitterAdapter",
        "label": "s_ensNode",
        "offset": 0,
        "slot": "1",
        "type": "t_bytes32"
      },
      {
        "astId": 324,
        "contract": "contracts/ChainlinkTwitterAdapter.sol:ChainlinkTwitterAdapter",
        "label": "s_link",
        "offset": 0,
        "slot": "2",
        "type": "t_contract(LinkTokenInterface)1251"
      },
      {
        "astId": 327,
        "contract": "contracts/ChainlinkTwitterAdapter.sol:ChainlinkTwitterAdapter",
        "label": "s_oracle",
        "offset": 0,
        "slot": "3",
        "type": "t_contract(OperatorInterface)1331"
      },
      {
        "astId": 330,
        "contract": "contracts/ChainlinkTwitterAdapter.sol:ChainlinkTwitterAdapter",
        "label": "s_requestCount",
        "offset": 0,
        "slot": "4",
        "type": "t_uint256"
      },
      {
        "astId": 334,
        "contract": "contracts/ChainlinkTwitterAdapter.sol:ChainlinkTwitterAdapter",
        "label": "s_pendingRequests",
        "offset": 0,
        "slot": "5",
        "type": "t_mapping(t_bytes32,t_address)"
      },
      {
        "astId": 2505,
        "contract": "contracts/ChainlinkTwitterAdapter.sol:ChainlinkTwitterAdapter",
        "label": "oracle",
        "offset": 0,
        "slot": "6",
        "type": "t_address"
      },
      {
        "astId": 2507,
        "contract": "contracts/ChainlinkTwitterAdapter.sol:ChainlinkTwitterAdapter",
        "label": "jobId",
        "offset": 0,
        "slot": "7",
        "type": "t_bytes32"
      },
      {
        "astId": 2509,
        "contract": "contracts/ChainlinkTwitterAdapter.sol:ChainlinkTwitterAdapter",
        "label": "fee",
        "offset": 0,
        "slot": "8",
        "type": "t_uint256"
      },
      {
        "astId": 2529,
        "contract": "contracts/ChainlinkTwitterAdapter.sol:ChainlinkTwitterAdapter",
        "label": "madeRequests",
        "offset": 0,
        "slot": "9",
        "type": "t_mapping(t_bytes32,t_struct(TwitterRequest)2524_storage)"
      }
    ],
    "types": {
      "t_address": {
        "encoding": "inplace",
        "label": "address",
        "numberOfBytes": "20"
      },
      "t_bool": {
        "encoding": "inplace",
        "label": "bool",
        "numberOfBytes": "1"
      },
      "t_bytes32": {
        "encoding": "inplace",
        "label": "bytes32",
        "numberOfBytes": "32"
      },
      "t_contract(ENSInterface)1156": {
        "encoding": "inplace",
        "label": "contract ENSInterface",
        "numberOfBytes": "20"
      },
      "t_contract(LinkTokenInterface)1251": {
        "encoding": "inplace",
        "label": "contract LinkTokenInterface",
        "numberOfBytes": "20"
      },
      "t_contract(OperatorInterface)1331": {
        "encoding": "inplace",
        "label": "contract OperatorInterface",
        "numberOfBytes": "20"
      },
      "t_enum(APIFuncToCall)2512": {
        "encoding": "inplace",
        "label": "enum ChainlinkTwitterAdapter.APIFuncToCall",
        "numberOfBytes": "1"
      },
      "t_mapping(t_bytes32,t_address)": {
        "encoding": "mapping",
        "key": "t_bytes32",
        "label": "mapping(bytes32 => address)",
        "numberOfBytes": "32",
        "value": "t_address"
      },
      "t_mapping(t_bytes32,t_struct(TwitterRequest)2524_storage)": {
        "encoding": "mapping",
        "key": "t_bytes32",
        "label": "mapping(bytes32 => struct ChainlinkTwitterAdapter.TwitterRequest)",
        "numberOfBytes": "32",
        "value": "t_struct(TwitterRequest)2524_storage"
      },
      "t_struct(TwitterRequest)2524_storage": {
        "encoding": "inplace",
        "label": "struct ChainlinkTwitterAdapter.TwitterRequest",
        "members": [
          {
            "astId": 2514,
            "contract": "contracts/ChainlinkTwitterAdapter.sol:ChainlinkTwitterAdapter",
            "label": "Id",
            "offset": 0,
            "slot": "0",
            "type": "t_bytes32"
          },
          {
            "astId": 2517,
            "contract": "contracts/ChainlinkTwitterAdapter.sol:ChainlinkTwitterAdapter",
            "label": "method",
            "offset": 0,
            "slot": "1",
            "type": "t_enum(APIFuncToCall)2512"
          },
          {
            "astId": 2519,
            "contract": "contracts/ChainlinkTwitterAdapter.sol:ChainlinkTwitterAdapter",
            "label": "userId",
            "offset": 0,
            "slot": "2",
            "type": "t_uint256"
          },
          {
            "astId": 2521,
            "contract": "contracts/ChainlinkTwitterAdapter.sol:ChainlinkTwitterAdapter",
            "label": "fulfilled",
            "offset": 0,
            "slot": "3",
            "type": "t_bool"
          },
          {
            "astId": 2523,
            "contract": "contracts/ChainlinkTwitterAdapter.sol:ChainlinkTwitterAdapter",
            "label": "payload",
            "offset": 0,
            "slot": "4",
            "type": "t_uint256"
          }
        ],
        "numberOfBytes": "160"
      },
      "t_uint256": {
        "encoding": "inplace",
        "label": "uint256",
        "numberOfBytes": "32"
      }
    }
  }
}