{
  "address": "0xa2fCba9414F6DDe7C3c7D7d6c116C15562ce9193",
  "abi": [
    {
      "inputs": [
        {
          "internalType": "address",
          "name": "_linkTokenAddr",
          "type": "address"
        },
        {
          "internalType": "address",
          "name": "_oralcleAddr",
          "type": "address"
        }
      ],
      "stateMutability": "payable",
      "type": "constructor"
    },
    {
      "anonymous": false,
      "inputs": [
        {
          "indexed": true,
          "internalType": "bytes32",
          "name": "id",
          "type": "bytes32"
        }
      ],
      "name": "ChainlinkCancelled",
      "type": "event"
    },
    {
      "anonymous": false,
      "inputs": [
        {
          "indexed": true,
          "internalType": "bytes32",
          "name": "id",
          "type": "bytes32"
        }
      ],
      "name": "ChainlinkFulfilled",
      "type": "event"
    },
    {
      "anonymous": false,
      "inputs": [
        {
          "indexed": true,
          "internalType": "bytes32",
          "name": "id",
          "type": "bytes32"
        }
      ],
      "name": "ChainlinkRequested",
      "type": "event"
    },
    {
      "anonymous": false,
      "inputs": [
        {
          "components": [
            {
              "internalType": "uint256",
              "name": "goalId",
              "type": "uint256"
            },
            {
              "internalType": "bytes32",
              "name": "requestId",
              "type": "bytes32"
            },
            {
              "internalType": "uint256",
              "name": "userId",
              "type": "uint256"
            },
            {
              "internalType": "string",
              "name": "goal",
              "type": "string"
            },
            {
              "internalType": "uint256",
              "name": "metric",
              "type": "uint256"
            },
            {
              "internalType": "uint256",
              "name": "deadline",
              "type": "uint256"
            },
            {
              "internalType": "address",
              "name": "goalOwnerAddress",
              "type": "address"
            },
            {
              "internalType": "uint256",
              "name": "amountPledged",
              "type": "uint256"
            },
            {
              "internalType": "bool",
              "name": "fulfilled",
              "type": "bool"
            }
          ],
          "indexed": false,
          "internalType": "struct GoalContract.Goal",
          "name": "goal",
          "type": "tuple"
        }
      ],
      "name": "GoalCreated",
      "type": "event"
    },
    {
      "anonymous": false,
      "inputs": [
        {
          "indexed": false,
          "internalType": "uint256",
          "name": "goalId",
          "type": "uint256"
        },
        {
          "indexed": false,
          "internalType": "string",
          "name": "goal",
          "type": "string"
        },
        {
          "indexed": false,
          "internalType": "address",
          "name": "goalOwnerAddress",
          "type": "address"
        },
        {
          "indexed": false,
          "internalType": "bool",
          "name": "achieved",
          "type": "bool"
        }
      ],
      "name": "GoalEvaluated",
      "type": "event"
    },
    {
      "anonymous": false,
      "inputs": [
        {
          "indexed": false,
          "internalType": "uint256",
          "name": "goalId",
          "type": "uint256"
        },
        {
          "indexed": false,
          "internalType": "string",
          "name": "goal",
          "type": "string"
        },
        {
          "indexed": false,
          "internalType": "address",
          "name": "goalOwnerAddress",
          "type": "address"
        },
        {
          "indexed": false,
          "internalType": "uint256",
          "name": "amountPledged",
          "type": "uint256"
        }
      ],
      "name": "PledgedAmountWithdrawn",
      "type": "event"
    },
    {
      "stateMutability": "payable",
      "type": "fallback"
    },
    {
      "inputs": [
        {
          "internalType": "address",
          "name": "",
          "type": "address"
        }
      ],
      "name": "amountLockedByAddress",
      "outputs": [
        {
          "internalType": "uint256",
          "name": "",
          "type": "uint256"
        }
      ],
      "stateMutability": "view",
      "type": "function"
    },
    {
      "inputs": [
        {
          "internalType": "string",
          "name": "goalName",
          "type": "string"
        },
        {
          "internalType": "string",
          "name": "username",
          "type": "string"
        },
        {
          "internalType": "uint256",
          "name": "deadlineInDays",
          "type": "uint256"
        }
      ],
      "name": "createGoal",
      "outputs": [],
      "stateMutability": "payable",
      "type": "function"
    },
    {
      "inputs": [
        {
          "internalType": "bytes32",
          "name": "_requestId",
          "type": "bytes32"
        },
        {
          "internalType": "uint256",
          "name": "_payload",
          "type": "uint256"
        },
        {
          "internalType": "uint256",
          "name": "_userId",
          "type": "uint256"
        }
      ],
      "name": "fulfill",
      "outputs": [],
      "stateMutability": "nonpayable",
      "type": "function"
    },
    {
      "inputs": [
        {
          "internalType": "address",
          "name": "userAddr",
          "type": "address"
        }
      ],
      "name": "getLastUserGoal",
      "outputs": [
        {
          "components": [
            {
              "internalType": "uint256",
              "name": "goalId",
              "type": "uint256"
            },
            {
              "internalType": "bytes32",
              "name": "requestId",
              "type": "bytes32"
            },
            {
              "internalType": "uint256",
              "name": "userId",
              "type": "uint256"
            },
            {
              "internalType": "string",
              "name": "goal",
              "type": "string"
            },
            {
              "internalType": "uint256",
              "name": "metric",
              "type": "uint256"
            },
            {
              "internalType": "uint256",
              "name": "deadline",
              "type": "uint256"
            },
            {
              "internalType": "address",
              "name": "goalOwnerAddress",
              "type": "address"
            },
            {
              "internalType": "uint256",
              "name": "amountPledged",
              "type": "uint256"
            },
            {
              "internalType": "bool",
              "name": "fulfilled",
              "type": "bool"
            }
          ],
          "internalType": "struct GoalContract.Goal",
          "name": "",
          "type": "tuple"
        }
      ],
      "stateMutability": "view",
      "type": "function"
    },
    {
      "inputs": [
        {
          "internalType": "bytes32",
          "name": "_requestId",
          "type": "bytes32"
        }
      ],
      "name": "getRequest",
      "outputs": [
        {
          "components": [
            {
              "internalType": "bytes32",
              "name": "Id",
              "type": "bytes32"
            },
            {
              "internalType": "enum ChainlinkTwitterAdapter.APIFuncToCall",
              "name": "method",
              "type": "uint8"
            },
            {
              "internalType": "uint256",
              "name": "userId",
              "type": "uint256"
            },
            {
              "internalType": "bool",
              "name": "fulfilled",
              "type": "bool"
            },
            {
              "internalType": "uint256",
              "name": "payload",
              "type": "uint256"
            }
          ],
          "internalType": "struct ChainlinkTwitterAdapter.TwitterRequest",
          "name": "",
          "type": "tuple"
        }
      ],
      "stateMutability": "view",
      "type": "function"
    },
    {
      "inputs": [
        {
          "internalType": "address",
          "name": "userAddr",
          "type": "address"
        }
      ],
      "name": "getUserGoals",
      "outputs": [
        {
          "components": [
            {
              "internalType": "uint256",
              "name": "goalId",
              "type": "uint256"
            },
            {
              "internalType": "bytes32",
              "name": "requestId",
              "type": "bytes32"
            },
            {
              "internalType": "uint256",
              "name": "userId",
              "type": "uint256"
            },
            {
              "internalType": "string",
              "name": "goal",
              "type": "string"
            },
            {
              "internalType": "uint256",
              "name": "metric",
              "type": "uint256"
            },
            {
              "internalType": "uint256",
              "name": "deadline",
              "type": "uint256"
            },
            {
              "internalType": "address",
              "name": "goalOwnerAddress",
              "type": "address"
            },
            {
              "internalType": "uint256",
              "name": "amountPledged",
              "type": "uint256"
            },
            {
              "internalType": "bool",
              "name": "fulfilled",
              "type": "bool"
            }
          ],
          "internalType": "struct GoalContract.Goal[]",
          "name": "",
          "type": "tuple[]"
        }
      ],
      "stateMutability": "view",
      "type": "function"
    },
    {
      "inputs": [],
      "name": "goalIds",
      "outputs": [
        {
          "internalType": "uint256",
          "name": "_value",
          "type": "uint256"
        }
      ],
      "stateMutability": "view",
      "type": "function"
    },
    {
      "inputs": [],
      "name": "goalsAchieved",
      "outputs": [
        {
          "internalType": "uint256",
          "name": "_value",
          "type": "uint256"
        }
      ],
      "stateMutability": "view",
      "type": "function"
    },
    {
      "inputs": [
        {
          "internalType": "uint256",
          "name": "",
          "type": "uint256"
        }
      ],
      "name": "idToGoal",
      "outputs": [
        {
          "internalType": "uint256",
          "name": "goalId",
          "type": "uint256"
        },
        {
          "internalType": "bytes32",
          "name": "requestId",
          "type": "bytes32"
        },
        {
          "internalType": "uint256",
          "name": "userId",
          "type": "uint256"
        },
        {
          "internalType": "string",
          "name": "goal",
          "type": "string"
        },
        {
          "internalType": "uint256",
          "name": "metric",
          "type": "uint256"
        },
        {
          "internalType": "uint256",
          "name": "deadline",
          "type": "uint256"
        },
        {
          "internalType": "address",
          "name": "goalOwnerAddress",
          "type": "address"
        },
        {
          "internalType": "uint256",
          "name": "amountPledged",
          "type": "uint256"
        },
        {
          "internalType": "bool",
          "name": "fulfilled",
          "type": "bool"
        }
      ],
      "stateMutability": "view",
      "type": "function"
    },
    {
      "inputs": [
        {
          "internalType": "string",
          "name": "username",
          "type": "string"
        }
      ],
      "name": "requestLastUserTweetTs",
      "outputs": [
        {
          "internalType": "bytes32",
          "name": "",
          "type": "bytes32"
        }
      ],
      "stateMutability": "nonpayable",
      "type": "function"
    },
    {
      "inputs": [
        {
          "internalType": "string",
          "name": "_username",
          "type": "string"
        },
        {
          "internalType": "string",
          "name": "_timeStamp",
          "type": "string"
        }
      ],
      "name": "requestLikesSinceTs",
      "outputs": [
        {
          "internalType": "bytes32",
          "name": "",
          "type": "bytes32"
        }
      ],
      "stateMutability": "nonpayable",
      "type": "function"
    },
    {
      "inputs": [
        {
          "internalType": "address",
          "name": "",
          "type": "address"
        },
        {
          "internalType": "uint256",
          "name": "",
          "type": "uint256"
        }
      ],
      "name": "usersGoalIds",
      "outputs": [
        {
          "internalType": "uint256",
          "name": "",
          "type": "uint256"
        }
      ],
      "stateMutability": "view",
      "type": "function"
    },
    {
      "stateMutability": "payable",
      "type": "receive"
    }
  ],
  "transactionHash": "0x5cc192c7b6b00dbafa62dfa183d7bc9126c7a752cf2899cd34d3a9192f9ede9e",
  "args": [
    "0x26bBa6Ab9A5c174283F310c6Da5C1DBD62064379",
    "0x929103A33a06dde3E26F2b8e13aB01DA3A7b9eb4"
  ],
  "numDeployments": 1,
  "solcInputHash": "ed9176a3d27b018c013ec0297770a39a",
  "bytecode": "0x60806040526001600555604051620032903803806200329083398181016040528101906200002e919062000116565b818160016000819055506200004982620000bb60201b60201c565b80600760006101000a81548173ffffffffffffffffffffffffffffffffffffffff021916908373ffffffffffffffffffffffffffffffffffffffff1602179055507f326363393236323236613661343937356165343939633837333532356538383160088190555050505050620001b0565b80600360006101000a81548173ffffffffffffffffffffffffffffffffffffffff021916908373ffffffffffffffffffffffffffffffffffffffff16021790555050565b600081519050620001108162000196565b92915050565b6000806040838503121562000130576200012f62000191565b5b60006200014085828601620000ff565b92505060206200015385828601620000ff565b9150509250929050565b60006200016a8262000171565b9050919050565b600073ffffffffffffffffffffffffffffffffffffffff82169050919050565b600080fd5b620001a1816200015d565b8114620001ad57600080fd5b50565b6130d080620001c06000396000f3fe6080604052600436106100ab5760003560e01c8063b44bce3e11610064578063b44bce3e146101db578063b9fa2c6b14610218578063c1ea96d614610243578063fb1e61ca14610280578063fc1f22e5146102bd578063ffcb07b714610302576100b2565b806332093693146100b457806335742c63146100df57806356b18b321461011c57806388a997bf14610159578063954780ba14610182578063aedf0a4a1461019e576100b2565b366100b257005b005b3480156100c057600080fd5b506100c961033f565b6040516100d69190612808565b60405180910390f35b3480156100eb57600080fd5b5061010660048036038101906101019190611ef2565b61034b565b60405161011391906126c7565b60405180910390f35b34801561012857600080fd5b50610143600480360381019061013e9190611ef2565b6105f8565b6040516101509190612808565b60405180910390f35b34801561016557600080fd5b50610180600480360381019061017b9190611fb9565b610610565b005b61019c600480360381019061019791906120cd565b6107ba565b005b3480156101aa57600080fd5b506101c560048036038101906101c0919061200c565b610a4c565b6040516101d291906126e9565b60405180910390f35b3480156101e757600080fd5b5061020260048036038101906101fd9190612055565b610c5c565b60405161020f91906126e9565b60405180910390f35b34801561022457600080fd5b5061022d610e69565b60405161023a9190612808565b60405180910390f35b34801561024f57600080fd5b5061026a60048036038101906102659190611ef2565b610e75565b60405161027791906127cb565b60405180910390f35b34801561028c57600080fd5b506102a760048036038101906102a29190611f8c565b61109c565b6040516102b491906127ed565b60405180910390f35b3480156102c957600080fd5b506102e460048036038101906102df9190612158565b61113d565b6040516102f999989796959493929190612823565b60405180910390f35b34801561030e57600080fd5b5061032960048036038101906103249190611f1f565b611240565b6040516103369190612808565b60405180910390f35b600c8060000154905081565b60606000600e60008473ffffffffffffffffffffffffffffffffffffffff1673ffffffffffffffffffffffffffffffffffffffff1681526020019081526020016000208054806020026020016040519081016040528092919081815260200182805480156103d857602002820191906000526020600020905b8154815260200190600101908083116103c4575b505050505090506000815167ffffffffffffffff8111156103fc576103fb612ef5565b5b60405190808252806020026020018201604052801561043557816020015b610422611c57565b81526020019060019003908161041a5790505b50905060005b82518110156105ed57600d600084838151811061045b5761045a612ec6565b5b60200260200101518152602001908152602001600020604051806101200160405290816000820154815260200160018201548152602001600282015481526020016003820180546104ab90612cff565b80601f01602080910402602001604051908101604052809291908181526020018280546104d790612cff565b80156105245780601f106104f957610100808354040283529160200191610524565b820191906000526020600020905b81548152906001019060200180831161050757829003601f168201915b5050505050815260200160048201548152602001600582015481526020016006820160009054906101000a900473ffffffffffffffffffffffffffffffffffffffff1673ffffffffffffffffffffffffffffffffffffffff1673ffffffffffffffffffffffffffffffffffffffff168152602001600782015481526020016008820160009054906101000a900460ff1615151515815250508282815181106105cf576105ce612ec6565b5b602002602001018190525080806105e590612d62565b91505061043b565b508092505050919050565b600f6020528060005260406000206000915090505481565b826006600082815260200190815260200160002060009054906101000a900473ffffffffffffffffffffffffffffffffffffffff1673ffffffffffffffffffffffffffffffffffffffff163373ffffffffffffffffffffffffffffffffffffffff16146106b2576040517f08c379a00000000000000000000000000000000000000000000000000000000081526004016106a9906127ab565b60405180910390fd5b6006600082815260200190815260200160002060006101000a81549073ffffffffffffffffffffffffffffffffffffffff0219169055807f7cc135e0cebb02c3480ae5d74d377283180a2601f8f644edf7987b009316c63a60405160405180910390a26000601160008681526020019081526020016000205490506000600d6000838152602001908152602001600020905060018160080160006101000a81548160ff0219169083151502179055508481600401819055508381600201819055506107b26040518060400160405280600881526020017f5061796c6f61642000000000000000000000000000000000000000000000000081525086611271565b505050505050565b600081116107fd576040517f08c379a00000000000000000000000000000000000000000000000000000000081526004016107f49061278b565b60405180910390fd5b600061080883610a4c565b9050610814600b61130d565b6000610820600b611323565b90508060116000848152602001908152602001600020819055506000600e60003373ffffffffffffffffffffffffffffffffffffffff1673ffffffffffffffffffffffffffffffffffffffff16815260200190815260200160002090508082908060018154018082558091505060019003906000526020600020016000909190919091505534600f60003373ffffffffffffffffffffffffffffffffffffffff1673ffffffffffffffffffffffffffffffffffffffff16815260200190815260200160002060008282546108f4919061298f565b9250508190555060405180610120016040528083815260200184815260200160008152602001878152602001600081526020016001866109349190612b56565b4261093f919061298f565b81526020013373ffffffffffffffffffffffffffffffffffffffff16815260200134815260200160001515815250600d600084815260200190815260200160002060008201518160000155602082015181600101556040820151816002015560608201518160030190805190602001906109ba929190611cbe565b506080820151816004015560a0820151816005015560c08201518160060160006101000a81548173ffffffffffffffffffffffffffffffffffffffff021916908373ffffffffffffffffffffffffffffffffffffffff16021790555060e082015181600701556101008201518160080160006101000a81548160ff021916908315150217905550905050505050505050565b6000610a8d6040518060400160405280600f81526020017f54413a205265636569766564202573000000000000000000000000000000000081525083611331565b6000610aa3600854306388a997bf60e01b6113cd565b9050610aef6040518060400160405280600881526020017f757365726e616d6500000000000000000000000000000000000000000000000081525084836113fe9092919063ffffffff16565b610b6e6040518060400160405280600681526020017f6d6574686f6400000000000000000000000000000000000000000000000000008152506040518060400160405280600f81526020017f6c61746573745f74776565745f74730000000000000000000000000000000000815250836113fe9092919063ffffffff16565b610bc76040518060400160405280600681526020017f757365726964000000000000000000000000000000000000000000000000000081525060405180602001604052806000815250836113fe9092919063ffffffff16565b610c206040518060400160405280600781526020017f756e69785f74730000000000000000000000000000000000000000000000000081525060405180602001604052806000815250836113fe9092919063ffffffff16565b6000610c50600760009054906101000a900473ffffffffffffffffffffffffffffffffffffffff16836000611431565b90508092505050919050565b6000610c9d6040518060400160405280600f81526020017f54413a205265636569766564202573000000000000000000000000000000000081525084611331565b6000610cb3600854306388a997bf60e01b6113cd565b9050610cff6040518060400160405280600881526020017f757365726e616d6500000000000000000000000000000000000000000000000081525085836113fe9092919063ffffffff16565b610d7e6040518060400160405280600681526020017f6d6574686f6400000000000000000000000000000000000000000000000000008152506040518060400160405280600e81526020017f6c696b65735f73696e63655f7473000000000000000000000000000000000000815250836113fe9092919063ffffffff16565b610dd76040518060400160405280600681526020017f757365726964000000000000000000000000000000000000000000000000000081525060405180602001604052806000815250836113fe9092919063ffffffff16565b610e216040518060400160405280600781526020017f756e69785f74730000000000000000000000000000000000000000000000000081525084836113fe9092919063ffffffff16565b6000610e51600760009054906101000a900473ffffffffffffffffffffffffffffffffffffffff16836000611431565b9050610e5e8160016114fd565b809250505092915050565b600b8060000154905081565b610e7d611c57565b6000600e60008473ffffffffffffffffffffffffffffffffffffffff1673ffffffffffffffffffffffffffffffffffffffff168152602001908152602001600020805480602002602001604051908101604052809291908181526020018280548015610f0857602002820191906000526020600020905b815481526020019060010190808311610ef4575b50505050509050600d60008260018451610f229190612bb0565b81518110610f3357610f32612ec6565b5b6020026020010151815260200190815260200160002060405180610120016040529081600082015481526020016001820154815260200160028201548152602001600382018054610f8390612cff565b80601f0160208091040260200160405190810160405280929190818152602001828054610faf90612cff565b8015610ffc5780601f10610fd157610100808354040283529160200191610ffc565b820191906000526020600020905b815481529060010190602001808311610fdf57829003601f168201915b5050505050815260200160048201548152602001600582015481526020016006820160009054906101000a900473ffffffffffffffffffffffffffffffffffffffff1673ffffffffffffffffffffffffffffffffffffffff1673ffffffffffffffffffffffffffffffffffffffff168152602001600782015481526020016008820160009054906101000a900460ff161515151581525050915050919050565b6110a4611d44565b600a60008381526020019081526020016000206040518060a0016040529081600082015481526020016001820160009054906101000a900460ff1660018111156110f1576110f0612e68565b5b600181111561110357611102612e68565b5b8152602001600282015481526020016003820160009054906101000a900460ff161515151581526020016004820154815250509050919050565b600d60205280600052604060002060009150905080600001549080600101549080600201549080600301805461117290612cff565b80601f016020809104026020016040519081016040528092919081815260200182805461119e90612cff565b80156111eb5780601f106111c0576101008083540402835291602001916111eb565b820191906000526020600020905b8154815290600101906020018083116111ce57829003601f168201915b5050505050908060040154908060050154908060060160009054906101000a900473ffffffffffffffffffffffffffffffffffffffff16908060070154908060080160009054906101000a900460ff16905089565b600e602052816000526040600020818154811061125c57600080fd5b90600052602060002001600091509150505481565b611309828260405160240161128792919061273b565b6040516020818303038152906040527f9710a9d0000000000000000000000000000000000000000000000000000000007bffffffffffffffffffffffffffffffffffffffffffffffffffffffff19166020820180517bffffffffffffffffffffffffffffffffffffffffffffffffffffffff838183161783525050505061154e565b5050565b6001816000016000828254019250508190555050565b600081600001549050919050565b6113c98282604051602401611347929190612704565b6040516020818303038152906040527f4b5c4277000000000000000000000000000000000000000000000000000000007bffffffffffffffffffffffffffffffffffffffffffffffffffffffff19166020820180517bffffffffffffffffffffffffffffffffffffffffffffffffffffffff838183161783525050505061154e565b5050565b6113d5611d8a565b6113dd611d8a565b6113f485858584611577909392919063ffffffff16565b9150509392505050565b61141582846080015161162790919063ffffffff16565b61142c81846080015161162790919063ffffffff16565b505050565b6000806005549050600181611446919061298f565b6005819055506000634042994660e01b60008087600001513089604001518760018c6080015160000151604051602401611487989796959493929190612604565b604051602081830303815290604052907bffffffffffffffffffffffffffffffffffffffffffffffffffffffff19166020820180517bffffffffffffffffffffffffffffffffffffffffffffffffffffffff838183161783525050505090506114f28683868461164c565b925050509392505050565b6000600a60008481526020019081526020016000209050828160000181905550818160010160006101000a81548160ff0219169083600181111561154457611543612e68565b5b0217905550505050565b60008151905060006a636f6e736f6c652e6c6f679050602083016000808483855afa5050505050565b61157f611d8a565b61158f85608001516101006117f0565b508385600001818152505082856020019073ffffffffffffffffffffffffffffffffffffffff16908173ffffffffffffffffffffffffffffffffffffffff16815250508185604001907bffffffffffffffffffffffffffffffffffffffffffffffffffffffff191690817bffffffffffffffffffffffffffffffffffffffffffffffffffffffff191681525050849050949350505050565b611634826003835161185a565b61164781836119df90919063ffffffff16565b505050565b600030846040516020016116619291906125d8565b604051602081830303815290604052805190602001209050846006600083815260200190815260200160002060006101000a81548173ffffffffffffffffffffffffffffffffffffffff021916908373ffffffffffffffffffffffffffffffffffffffff160217905550807fb5e6e01e79f91267dc17b4e6314d5d4d03593d2ceee0fbb452b750bd70ea5af960405160405180910390a2600360009054906101000a900473ffffffffffffffffffffffffffffffffffffffff1673ffffffffffffffffffffffffffffffffffffffff16634000aea08685856040518463ffffffff1660e01b815260040161175793929190612689565b602060405180830381600087803b15801561177157600080fd5b505af1158015611785573d6000803e3d6000fd5b505050506040513d601f19601f820116820180604052508101906117a99190611f5f565b6117e8576040517f08c379a00000000000000000000000000000000000000000000000000000000081526004016117df9061276b565b60405180910390fd5b949350505050565b6117f8611df7565b60006020836118079190612dd9565b14611833576020826118199190612dd9565b60206118259190612bb0565b82611830919061298f565b91505b81836020018181525050604051808452600081528281016020016040525082905092915050565b60178167ffffffffffffffff16116118915761188b8160058460ff16901b60ff161784611a0190919063ffffffff16565b506119da565b60ff8167ffffffffffffffff16116118e7576118c0601860058460ff16901b1784611a0190919063ffffffff16565b506118e18167ffffffffffffffff16600185611a219092919063ffffffff16565b506119d9565b61ffff8167ffffffffffffffff161161193e57611917601960058460ff16901b1784611a0190919063ffffffff16565b506119388167ffffffffffffffff16600285611a219092919063ffffffff16565b506119d8565b63ffffffff8167ffffffffffffffff161161199757611970601a60058460ff16901b1784611a0190919063ffffffff16565b506119918167ffffffffffffffff16600485611a219092919063ffffffff16565b506119d7565b6119b4601b60058460ff16901b1784611a0190919063ffffffff16565b506119d58167ffffffffffffffff16600885611a219092919063ffffffff16565b505b5b5b5b505050565b6119e7611df7565b6119f983846000015151848551611a43565b905092915050565b611a09611df7565b611a198384600001515184611b32565b905092915050565b611a29611df7565b611a3a848560000151518585611b89565b90509392505050565b611a4b611df7565b8251821115611a5957600080fd5b84602001518285611a6a919061298f565b1115611a9f57611a9e856002611a8f88602001518887611a8a919061298f565b611c17565b611a999190612b56565b611c33565b5b600080865180518760208301019350808887011115611abe5787860182525b60208701925050505b60208410611b055780518252602082611ae0919061298f565b9150602081611aef919061298f565b9050602084611afe9190612bb0565b9350611ac7565b60006001856020036101000a03905080198251168184511681811785525050508692505050949350505050565b611b3a611df7565b83602001518310611b6057611b5f8460028660200151611b5a9190612b56565b611c33565b5b8351805160208583010184815381861415611b7c576001820183525b5050508390509392505050565b611b91611df7565b84602001518483611ba2919061298f565b1115611bca57611bc98560028685611bba919061298f565b611bc49190612b56565b611c33565b5b6000600183610100611bdc9190612a38565b611be69190612bb0565b90508551838682010185831982511617815281518588011115611c095784870182525b505085915050949350505050565b600081831115611c2957829050611c2d565b8190505b92915050565b600082600001519050611c4683836117f0565b50611c5183826119df565b50505050565b604051806101200160405280600081526020016000801916815260200160008152602001606081526020016000815260200160008152602001600073ffffffffffffffffffffffffffffffffffffffff168152602001600081526020016000151581525090565b828054611cca90612cff565b90600052602060002090601f016020900481019282611cec5760008555611d33565b82601f10611d0557805160ff1916838001178555611d33565b82800160010185558215611d33579182015b82811115611d32578251825591602001919060010190611d17565b5b509050611d409190611e11565b5090565b6040518060a001604052806000801916815260200160006001811115611d6d57611d6c612e68565b5b815260200160008152602001600015158152602001600081525090565b6040518060a0016040528060008019168152602001600073ffffffffffffffffffffffffffffffffffffffff16815260200160007bffffffffffffffffffffffffffffffffffffffffffffffffffffffff1916815260200160008152602001611df1611df7565b81525090565b604051806040016040528060608152602001600081525090565b5b80821115611e2a576000816000905550600101611e12565b5090565b6000611e41611e3c846128dc565b6128b7565b905082815260208101848484011115611e5d57611e5c612f29565b5b611e68848285612cbd565b509392505050565b600081359050611e7f8161303e565b92915050565b600081519050611e9481613055565b92915050565b600081359050611ea98161306c565b92915050565b600082601f830112611ec457611ec3612f24565b5b8135611ed4848260208601611e2e565b91505092915050565b600081359050611eec81613083565b92915050565b600060208284031215611f0857611f07612f33565b5b6000611f1684828501611e70565b91505092915050565b60008060408385031215611f3657611f35612f33565b5b6000611f4485828601611e70565b9250506020611f5585828601611edd565b9150509250929050565b600060208284031215611f7557611f74612f33565b5b6000611f8384828501611e85565b91505092915050565b600060208284031215611fa257611fa1612f33565b5b6000611fb084828501611e9a565b91505092915050565b600080600060608486031215611fd257611fd1612f33565b5b6000611fe086828701611e9a565b9350506020611ff186828701611edd565b925050604061200286828701611edd565b9150509250925092565b60006020828403121561202257612021612f33565b5b600082013567ffffffffffffffff8111156120405761203f612f2e565b5b61204c84828501611eaf565b91505092915050565b6000806040838503121561206c5761206b612f33565b5b600083013567ffffffffffffffff81111561208a57612089612f2e565b5b61209685828601611eaf565b925050602083013567ffffffffffffffff8111156120b7576120b6612f2e565b5b6120c385828601611eaf565b9150509250929050565b6000806000606084860312156120e6576120e5612f33565b5b600084013567ffffffffffffffff81111561210457612103612f2e565b5b61211086828701611eaf565b935050602084013567ffffffffffffffff81111561213157612130612f2e565b5b61213d86828701611eaf565b925050604061214e86828701611edd565b9150509250925092565b60006020828403121561216e5761216d612f33565b5b600061217c84828501611edd565b91505092915050565b600061219183836123b1565b905092915050565b6121a281612be4565b82525050565b6121b181612be4565b82525050565b60006121c28261291d565b6121cc818561294b565b9350836020820285016121de8561290d565b8060005b8581101561221a57848403895281516121fb8582612185565b94506122068361293e565b925060208a019950506001810190506121e2565b50829750879550505050505092915050565b61223581612bf6565b82525050565b61224481612bf6565b82525050565b61225381612c02565b82525050565b61226281612c02565b82525050565b61227181612c0c565b82525050565b600061228282612928565b61228c818561295c565b935061229c818560208601612ccc565b6122a581612f38565b840191505092915050565b6122c16122bc82612c75565b612dab565b82525050565b6122d081612c87565b82525050565b60006122e182612933565b6122eb818561296d565b93506122fb818560208601612ccc565b61230481612f38565b840191505092915050565b600061231a82612933565b612324818561297e565b9350612334818560208601612ccc565b61233d81612f38565b840191505092915050565b600061235560238361297e565b915061236082612f63565b604082019050919050565b6000612378601f8361297e565b915061238382612fb2565b602082019050919050565b600061239b60288361297e565b91506123a682612fdb565b604082019050919050565b6000610120830160008301516123ca60008601826125a3565b5060208301516123dd602086018261224a565b5060408301516123f060408601826125a3565b506060830151848203606086015261240882826122d6565b915050608083015161241d60808601826125a3565b5060a083015161243060a08601826125a3565b5060c083015161244360c0860182612199565b5060e083015161245660e08601826125a3565b5061010083015161246b61010086018261222c565b508091505092915050565b60006101208301600083015161248f60008601826125a3565b5060208301516124a2602086018261224a565b5060408301516124b560408601826125a3565b50606083015184820360608601526124cd82826122d6565b91505060808301516124e260808601826125a3565b5060a08301516124f560a08601826125a3565b5060c083015161250860c0860182612199565b5060e083015161251b60e08601826125a3565b5061010083015161253061010086018261222c565b508091505092915050565b60a082016000820151612551600085018261224a565b50602082015161256460208501826122c7565b50604082015161257760408501826125a3565b50606082015161258a606085018261222c565b50608082015161259d60808501826125a3565b50505050565b6125ac81612c6b565b82525050565b6125bb81612c6b565b82525050565b6125d26125cd82612c6b565b612dcf565b82525050565b60006125e482856122b0565b6014820191506125f482846125c1565b6020820191508190509392505050565b60006101008201905061261a600083018b6121a8565b612627602083018a6125b2565b6126346040830189612259565b61264160608301886121a8565b61264e6080830187612268565b61265b60a08301866125b2565b61266860c08301856125b2565b81810360e083015261267a8184612277565b90509998505050505050505050565b600060608201905061269e60008301866121a8565b6126ab60208301856125b2565b81810360408301526126bd8184612277565b9050949350505050565b600060208201905081810360008301526126e181846121b7565b905092915050565b60006020820190506126fe6000830184612259565b92915050565b6000604082019050818103600083015261271e818561230f565b90508181036020830152612732818461230f565b90509392505050565b60006040820190508181036000830152612755818561230f565b905061276460208301846125b2565b9392505050565b6000602082019050818103600083015261278481612348565b9050919050565b600060208201905081810360008301526127a48161236b565b9050919050565b600060208201905081810360008301526127c48161238e565b9050919050565b600060208201905081810360008301526127e58184612476565b905092915050565b600060a082019050612802600083018461253b565b92915050565b600060208201905061281d60008301846125b2565b92915050565b600061012082019050612839600083018c6125b2565b612846602083018b612259565b612853604083018a6125b2565b8181036060830152612865818961230f565b905061287460808301886125b2565b61288160a08301876125b2565b61288e60c08301866121a8565b61289b60e08301856125b2565b6128a961010083018461223b565b9a9950505050505050505050565b60006128c16128d2565b90506128cd8282612d31565b919050565b6000604051905090565b600067ffffffffffffffff8211156128f7576128f6612ef5565b5b61290082612f38565b9050602081019050919050565b6000819050602082019050919050565b600081519050919050565b600081519050919050565b600081519050919050565b6000602082019050919050565b600082825260208201905092915050565b600082825260208201905092915050565b600082825260208201905092915050565b600082825260208201905092915050565b600061299a82612c6b565b91506129a583612c6b565b9250827fffffffffffffffffffffffffffffffffffffffffffffffffffffffffffffffff038211156129da576129d9612e0a565b5b828201905092915050565b6000808291508390505b6001851115612a2f57808604811115612a0b57612a0a612e0a565b5b6001851615612a1a5780820291505b8081029050612a2885612f56565b94506129ef565b94509492505050565b6000612a4382612c6b565b9150612a4e83612c6b565b9250612a7b7fffffffffffffffffffffffffffffffffffffffffffffffffffffffffffffffff8484612a83565b905092915050565b600082612a935760019050612b4f565b81612aa15760009050612b4f565b8160018114612ab75760028114612ac157612af0565b6001915050612b4f565b60ff841115612ad357612ad2612e0a565b5b8360020a915084821115612aea57612ae9612e0a565b5b50612b4f565b5060208310610133831016604e8410600b8410161715612b255782820a905083811115612b2057612b1f612e0a565b5b612b4f565b612b3284848460016129e5565b92509050818404811115612b4957612b48612e0a565b5b81810290505b9392505050565b6000612b6182612c6b565b9150612b6c83612c6b565b9250817fffffffffffffffffffffffffffffffffffffffffffffffffffffffffffffffff0483118215151615612ba557612ba4612e0a565b5b828202905092915050565b6000612bbb82612c6b565b9150612bc683612c6b565b925082821015612bd957612bd8612e0a565b5b828203905092915050565b6000612bef82612c4b565b9050919050565b60008115159050919050565b6000819050919050565b60007fffffffff0000000000000000000000000000000000000000000000000000000082169050919050565b6000819050612c468261302a565b919050565b600073ffffffffffffffffffffffffffffffffffffffff82169050919050565b6000819050919050565b6000612c8082612c99565b9050919050565b6000612c9282612c38565b9050919050565b6000612ca482612cab565b9050919050565b6000612cb682612c4b565b9050919050565b82818337600083830152505050565b60005b83811015612cea578082015181840152602081019050612ccf565b83811115612cf9576000848401525b50505050565b60006002820490506001821680612d1757607f821691505b60208210811415612d2b57612d2a612e97565b5b50919050565b612d3a82612f38565b810181811067ffffffffffffffff82111715612d5957612d58612ef5565b5b80604052505050565b6000612d6d82612c6b565b91507fffffffffffffffffffffffffffffffffffffffffffffffffffffffffffffffff821415612da057612d9f612e0a565b5b600182019050919050565b6000612db682612dbd565b9050919050565b6000612dc882612f49565b9050919050565b6000819050919050565b6000612de482612c6b565b9150612def83612c6b565b925082612dff57612dfe612e39565b5b828206905092915050565b7f4e487b7100000000000000000000000000000000000000000000000000000000600052601160045260246000fd5b7f4e487b7100000000000000000000000000000000000000000000000000000000600052601260045260246000fd5b7f4e487b7100000000000000000000000000000000000000000000000000000000600052602160045260246000fd5b7f4e487b7100000000000000000000000000000000000000000000000000000000600052602260045260246000fd5b7f4e487b7100000000000000000000000000000000000000000000000000000000600052603260045260246000fd5b7f4e487b7100000000000000000000000000000000000000000000000000000000600052604160045260246000fd5b600080fd5b600080fd5b600080fd5b600080fd5b6000601f19601f8301169050919050565b60008160601b9050919050565b60008160011c9050919050565b7f756e61626c6520746f207472616e73666572416e6443616c6c20746f206f726160008201527f636c650000000000000000000000000000000000000000000000000000000000602082015250565b7f446561646c696e65206d757374206265206174206c6561737420312064617900600082015250565b7f536f75726365206d75737420626520746865206f7261636c65206f662074686560008201527f2072657175657374000000000000000000000000000000000000000000000000602082015250565b6002811061303b5761303a612e68565b5b50565b61304781612be4565b811461305257600080fd5b50565b61305e81612bf6565b811461306957600080fd5b50565b61307581612c02565b811461308057600080fd5b50565b61308c81612c6b565b811461309757600080fd5b5056fea2646970667358221220cc35bbb0a715c5a4e7afa8bce6eeb8cc252d12cd87dea592b7e0e19e23a4544564736f6c63430008070033",
  "devdoc": {
    "kind": "dev",
    "methods": {},
    "version": 1
  },
  "userdoc": {
    "kind": "user",
    "methods": {},
    "version": 1
  },
  "storageLayout": {
    "storage": [
      {
        "astId": 2384,
        "contract": "contracts/GoalContract.sol:GoalContract",
        "label": "_status",
        "offset": 0,
        "slot": "0",
        "type": "t_uint256"
      },
      {
        "astId": 319,
        "contract": "contracts/GoalContract.sol:GoalContract",
        "label": "s_ens",
        "offset": 0,
        "slot": "1",
        "type": "t_contract(ENSInterface)1156"
      },
      {
        "astId": 321,
        "contract": "contracts/GoalContract.sol:GoalContract",
        "label": "s_ensNode",
        "offset": 0,
        "slot": "2",
        "type": "t_bytes32"
      },
      {
        "astId": 324,
        "contract": "contracts/GoalContract.sol:GoalContract",
        "label": "s_link",
        "offset": 0,
        "slot": "3",
        "type": "t_contract(LinkTokenInterface)1251"
      },
      {
        "astId": 327,
        "contract": "contracts/GoalContract.sol:GoalContract",
        "label": "s_oracle",
        "offset": 0,
        "slot": "4",
        "type": "t_contract(OperatorInterface)1331"
      },
      {
        "astId": 330,
        "contract": "contracts/GoalContract.sol:GoalContract",
        "label": "s_requestCount",
        "offset": 0,
        "slot": "5",
        "type": "t_uint256"
      },
      {
        "astId": 334,
        "contract": "contracts/GoalContract.sol:GoalContract",
        "label": "s_pendingRequests",
        "offset": 0,
        "slot": "6",
        "type": "t_mapping(t_bytes32,t_address)"
      },
      {
        "astId": 2505,
        "contract": "contracts/GoalContract.sol:GoalContract",
        "label": "oracle",
        "offset": 0,
        "slot": "7",
        "type": "t_address"
      },
      {
        "astId": 2507,
        "contract": "contracts/GoalContract.sol:GoalContract",
        "label": "jobId",
        "offset": 0,
        "slot": "8",
        "type": "t_bytes32"
      },
      {
        "astId": 2509,
        "contract": "contracts/GoalContract.sol:GoalContract",
        "label": "fee",
        "offset": 0,
        "slot": "9",
        "type": "t_uint256"
      },
      {
        "astId": 2529,
        "contract": "contracts/GoalContract.sol:GoalContract",
        "label": "madeRequests",
        "offset": 0,
        "slot": "10",
        "type": "t_mapping(t_bytes32,t_struct(TwitterRequest)2524_storage)"
      },
      {
        "astId": 2792,
        "contract": "contracts/GoalContract.sol:GoalContract",
        "label": "goalIds",
        "offset": 0,
        "slot": "11",
        "type": "t_struct(Counter)2419_storage"
      },
      {
        "astId": 2795,
        "contract": "contracts/GoalContract.sol:GoalContract",
        "label": "goalsAchieved",
        "offset": 0,
        "slot": "12",
        "type": "t_struct(Counter)2419_storage"
      },
      {
        "astId": 2819,
        "contract": "contracts/GoalContract.sol:GoalContract",
        "label": "idToGoal",
        "offset": 0,
        "slot": "13",
        "type": "t_mapping(t_uint256,t_struct(Goal)2814_storage)"
      },
      {
        "astId": 2824,
        "contract": "contracts/GoalContract.sol:GoalContract",
        "label": "usersGoalIds",
        "offset": 0,
        "slot": "14",
        "type": "t_mapping(t_address,t_array(t_uint256)dyn_storage)"
      },
      {
        "astId": 2828,
        "contract": "contracts/GoalContract.sol:GoalContract",
        "label": "amountLockedByAddress",
        "offset": 0,
        "slot": "15",
        "type": "t_mapping(t_address,t_uint256)"
      },
      {
        "astId": 2832,
        "contract": "contracts/GoalContract.sol:GoalContract",
        "label": "userLastReqId",
        "offset": 0,
        "slot": "16",
        "type": "t_mapping(t_address,t_bytes32)"
      },
      {
        "astId": 2836,
        "contract": "contracts/GoalContract.sol:GoalContract",
        "label": "requestIdGoalId",
        "offset": 0,
        "slot": "17",
        "type": "t_mapping(t_bytes32,t_uint256)"
      }
    ],
    "types": {
      "t_address": {
        "encoding": "inplace",
        "label": "address",
        "numberOfBytes": "20"
      },
      "t_array(t_uint256)dyn_storage": {
        "base": "t_uint256",
        "encoding": "dynamic_array",
        "label": "uint256[]",
        "numberOfBytes": "32"
      },
      "t_bool": {
        "encoding": "inplace",
        "label": "bool",
        "numberOfBytes": "1"
      },
      "t_bytes32": {
        "encoding": "inplace",
        "label": "bytes32",
        "numberOfBytes": "32"
      },
      "t_contract(ENSInterface)1156": {
        "encoding": "inplace",
        "label": "contract ENSInterface",
        "numberOfBytes": "20"
      },
      "t_contract(LinkTokenInterface)1251": {
        "encoding": "inplace",
        "label": "contract LinkTokenInterface",
        "numberOfBytes": "20"
      },
      "t_contract(OperatorInterface)1331": {
        "encoding": "inplace",
        "label": "contract OperatorInterface",
        "numberOfBytes": "20"
      },
      "t_enum(APIFuncToCall)2512": {
        "encoding": "inplace",
        "label": "enum ChainlinkTwitterAdapter.APIFuncToCall",
        "numberOfBytes": "1"
      },
      "t_mapping(t_address,t_array(t_uint256)dyn_storage)": {
        "encoding": "mapping",
        "key": "t_address",
        "label": "mapping(address => uint256[])",
        "numberOfBytes": "32",
        "value": "t_array(t_uint256)dyn_storage"
      },
      "t_mapping(t_address,t_bytes32)": {
        "encoding": "mapping",
        "key": "t_address",
        "label": "mapping(address => bytes32)",
        "numberOfBytes": "32",
        "value": "t_bytes32"
      },
      "t_mapping(t_address,t_uint256)": {
        "encoding": "mapping",
        "key": "t_address",
        "label": "mapping(address => uint256)",
        "numberOfBytes": "32",
        "value": "t_uint256"
      },
      "t_mapping(t_bytes32,t_address)": {
        "encoding": "mapping",
        "key": "t_bytes32",
        "label": "mapping(bytes32 => address)",
        "numberOfBytes": "32",
        "value": "t_address"
      },
      "t_mapping(t_bytes32,t_struct(TwitterRequest)2524_storage)": {
        "encoding": "mapping",
        "key": "t_bytes32",
        "label": "mapping(bytes32 => struct ChainlinkTwitterAdapter.TwitterRequest)",
        "numberOfBytes": "32",
        "value": "t_struct(TwitterRequest)2524_storage"
      },
      "t_mapping(t_bytes32,t_uint256)": {
        "encoding": "mapping",
        "key": "t_bytes32",
        "label": "mapping(bytes32 => uint256)",
        "numberOfBytes": "32",
        "value": "t_uint256"
      },
      "t_mapping(t_uint256,t_struct(Goal)2814_storage)": {
        "encoding": "mapping",
        "key": "t_uint256",
        "label": "mapping(uint256 => struct GoalContract.Goal)",
        "numberOfBytes": "32",
        "value": "t_struct(Goal)2814_storage"
      },
      "t_string_storage": {
        "encoding": "bytes",
        "label": "string",
        "numberOfBytes": "32"
      },
      "t_struct(Counter)2419_storage": {
        "encoding": "inplace",
        "label": "struct Counters.Counter",
        "members": [
          {
            "astId": 2418,
            "contract": "contracts/GoalContract.sol:GoalContract",
            "label": "_value",
            "offset": 0,
            "slot": "0",
            "type": "t_uint256"
          }
        ],
        "numberOfBytes": "32"
      },
      "t_struct(Goal)2814_storage": {
        "encoding": "inplace",
        "label": "struct GoalContract.Goal",
        "members": [
          {
            "astId": 2797,
            "contract": "contracts/GoalContract.sol:GoalContract",
            "label": "goalId",
            "offset": 0,
            "slot": "0",
            "type": "t_uint256"
          },
          {
            "astId": 2799,
            "contract": "contracts/GoalContract.sol:GoalContract",
            "label": "requestId",
            "offset": 0,
            "slot": "1",
            "type": "t_bytes32"
          },
          {
            "astId": 2801,
            "contract": "contracts/GoalContract.sol:GoalContract",
            "label": "userId",
            "offset": 0,
            "slot": "2",
            "type": "t_uint256"
          },
          {
            "astId": 2803,
            "contract": "contracts/GoalContract.sol:GoalContract",
            "label": "goal",
            "offset": 0,
            "slot": "3",
            "type": "t_string_storage"
          },
          {
            "astId": 2805,
            "contract": "contracts/GoalContract.sol:GoalContract",
            "label": "metric",
            "offset": 0,
            "slot": "4",
            "type": "t_uint256"
          },
          {
            "astId": 2807,
            "contract": "contracts/GoalContract.sol:GoalContract",
            "label": "deadline",
            "offset": 0,
            "slot": "5",
            "type": "t_uint256"
          },
          {
            "astId": 2809,
            "contract": "contracts/GoalContract.sol:GoalContract",
            "label": "goalOwnerAddress",
            "offset": 0,
            "slot": "6",
            "type": "t_address"
          },
          {
            "astId": 2811,
            "contract": "contracts/GoalContract.sol:GoalContract",
            "label": "amountPledged",
            "offset": 0,
            "slot": "7",
            "type": "t_uint256"
          },
          {
            "astId": 2813,
            "contract": "contracts/GoalContract.sol:GoalContract",
            "label": "fulfilled",
            "offset": 0,
            "slot": "8",
            "type": "t_bool"
          }
        ],
        "numberOfBytes": "288"
      },
      "t_struct(TwitterRequest)2524_storage": {
        "encoding": "inplace",
        "label": "struct ChainlinkTwitterAdapter.TwitterRequest",
        "members": [
          {
            "astId": 2514,
            "contract": "contracts/GoalContract.sol:GoalContract",
            "label": "Id",
            "offset": 0,
            "slot": "0",
            "type": "t_bytes32"
          },
          {
            "astId": 2517,
            "contract": "contracts/GoalContract.sol:GoalContract",
            "label": "method",
            "offset": 0,
            "slot": "1",
            "type": "t_enum(APIFuncToCall)2512"
          },
          {
            "astId": 2519,
            "contract": "contracts/GoalContract.sol:GoalContract",
            "label": "userId",
            "offset": 0,
            "slot": "2",
            "type": "t_uint256"
          },
          {
            "astId": 2521,
            "contract": "contracts/GoalContract.sol:GoalContract",
            "label": "fulfilled",
            "offset": 0,
            "slot": "3",
            "type": "t_bool"
          },
          {
            "astId": 2523,
            "contract": "contracts/GoalContract.sol:GoalContract",
            "label": "payload",
            "offset": 0,
            "slot": "4",
            "type": "t_uint256"
          }
        ],
        "numberOfBytes": "160"
      },
      "t_uint256": {
        "encoding": "inplace",
        "label": "uint256",
        "numberOfBytes": "32"
      }
    }
  }
}