{
  "address": "0x5187051ae45fFD6488afd08F0d0f658521016BEC",
  "abi": [
    {
      "inputs": [],
      "stateMutability": "payable",
      "type": "constructor"
    },
    {
      "anonymous": false,
      "inputs": [
        {
          "indexed": false,
          "internalType": "uint256",
          "name": "goalId",
          "type": "uint256"
        },
        {
          "indexed": false,
          "internalType": "string",
          "name": "goal",
          "type": "string"
        },
        {
          "indexed": false,
          "internalType": "uint32",
          "name": "target",
          "type": "uint32"
        },
        {
          "indexed": false,
          "internalType": "string",
          "name": "username",
          "type": "string"
        },
        {
          "indexed": false,
          "internalType": "uint256",
          "name": "startDate",
          "type": "uint256"
        },
        {
          "indexed": false,
          "internalType": "uint256",
          "name": "endDate",
          "type": "uint256"
        },
        {
          "indexed": false,
          "internalType": "address",
          "name": "goalOwnerAddress",
          "type": "address"
        },
        {
          "indexed": false,
          "internalType": "address",
          "name": "goalCheckerAddress",
          "type": "address"
        },
        {
          "indexed": false,
          "internalType": "uint256",
          "name": "amountPledged",
          "type": "uint256"
        },
        {
          "indexed": false,
          "internalType": "bool",
          "name": "achieved",
          "type": "bool"
        },
        {
          "indexed": false,
          "internalType": "bool",
          "name": "withdrawn",
          "type": "bool"
        },
        {
          "indexed": false,
          "internalType": "bool",
          "name": "ended",
          "type": "bool"
        }
      ],
      "name": "GoalCreated",
      "type": "event"
    },
    {
      "anonymous": false,
      "inputs": [
        {
          "indexed": false,
          "internalType": "uint256",
          "name": "goalId",
          "type": "uint256"
        },
        {
          "indexed": false,
          "internalType": "string",
          "name": "goal",
          "type": "string"
        },
        {
          "indexed": false,
          "internalType": "address",
          "name": "goalOwnerAddress",
          "type": "address"
        },
        {
          "indexed": false,
          "internalType": "bool",
          "name": "achieved",
          "type": "bool"
        }
      ],
      "name": "GoalEvaluated",
      "type": "event"
    },
    {
      "anonymous": false,
      "inputs": [
        {
          "indexed": false,
          "internalType": "uint256",
          "name": "goalId",
          "type": "uint256"
        },
        {
          "indexed": false,
          "internalType": "string",
          "name": "goal",
          "type": "string"
        },
        {
          "indexed": false,
          "internalType": "address",
          "name": "goalOwnerAddress",
          "type": "address"
        },
        {
          "indexed": false,
          "internalType": "uint256",
          "name": "amountPledged",
          "type": "uint256"
        }
      ],
      "name": "PledgedAmountWithdrawn",
      "type": "event"
    },
    {
      "stateMutability": "payable",
      "type": "fallback"
    },
    {
      "inputs": [
        {
          "internalType": "address",
          "name": "",
          "type": "address"
        }
      ],
      "name": "amountLockedByAddress",
      "outputs": [
        {
          "internalType": "uint256",
          "name": "",
          "type": "uint256"
        }
      ],
      "stateMutability": "view",
      "type": "function"
    },
    {
      "inputs": [
        {
          "internalType": "string",
          "name": "goal",
          "type": "string"
        },
        {
          "internalType": "uint32",
          "name": "target",
          "type": "uint32"
        },
        {
          "internalType": "string",
          "name": "username",
          "type": "string"
        },
        {
          "internalType": "uint256",
          "name": "startDate",
          "type": "uint256"
        },
        {
          "internalType": "uint256",
          "name": "endDate",
          "type": "uint256"
        },
        {
          "internalType": "address",
          "name": "goalCheckerAddress",
          "type": "address"
        }
      ],
      "name": "createGoal",
      "outputs": [],
      "stateMutability": "payable",
      "type": "function"
    },
    {
      "inputs": [
        {
          "internalType": "uint256",
          "name": "goalId",
          "type": "uint256"
        },
        {
          "internalType": "bool",
          "name": "achieved",
          "type": "bool"
        }
      ],
      "name": "evaluateGoal",
      "outputs": [],
      "stateMutability": "nonpayable",
      "type": "function"
    },
    {
      "inputs": [
        {
          "internalType": "address",
          "name": "targetAddresss",
          "type": "address"
        }
      ],
      "name": "fetchAchievedByAddress",
      "outputs": [
        {
          "components": [
            {
              "internalType": "uint256",
              "name": "goalId",
              "type": "uint256"
            },
            {
              "internalType": "string",
              "name": "goal",
              "type": "string"
            },
            {
              "internalType": "uint32",
              "name": "target",
              "type": "uint32"
            },
            {
              "internalType": "string",
              "name": "username",
              "type": "string"
            },
            {
              "internalType": "uint256",
              "name": "startDate",
              "type": "uint256"
            },
            {
              "internalType": "uint256",
              "name": "endDate",
              "type": "uint256"
            },
            {
              "internalType": "address",
              "name": "goalOwnerAddress",
              "type": "address"
            },
            {
              "internalType": "address",
              "name": "goalCheckerAddress",
              "type": "address"
            },
            {
              "internalType": "uint256",
              "name": "amountPledged",
              "type": "uint256"
            },
            {
              "internalType": "bool",
              "name": "achieved",
              "type": "bool"
            },
            {
              "internalType": "bool",
              "name": "withdrawn",
              "type": "bool"
            },
            {
              "internalType": "bool",
              "name": "ended",
              "type": "bool"
            }
          ],
          "internalType": "struct GoalContractV0.Goal[]",
          "name": "",
          "type": "tuple[]"
        }
      ],
      "stateMutability": "view",
      "type": "function"
    },
    {
      "inputs": [
        {
          "internalType": "address",
          "name": "targetAddresss",
          "type": "address"
        }
      ],
      "name": "fetchEvaluationsByAddress",
      "outputs": [
        {
          "components": [
            {
              "internalType": "uint256",
              "name": "goalId",
              "type": "uint256"
            },
            {
              "internalType": "string",
              "name": "goal",
              "type": "string"
            },
            {
              "internalType": "uint32",
              "name": "target",
              "type": "uint32"
            },
            {
              "internalType": "string",
              "name": "username",
              "type": "string"
            },
            {
              "internalType": "uint256",
              "name": "startDate",
              "type": "uint256"
            },
            {
              "internalType": "uint256",
              "name": "endDate",
              "type": "uint256"
            },
            {
              "internalType": "address",
              "name": "goalOwnerAddress",
              "type": "address"
            },
            {
              "internalType": "address",
              "name": "goalCheckerAddress",
              "type": "address"
            },
            {
              "internalType": "uint256",
              "name": "amountPledged",
              "type": "uint256"
            },
            {
              "internalType": "bool",
              "name": "achieved",
              "type": "bool"
            },
            {
              "internalType": "bool",
              "name": "withdrawn",
              "type": "bool"
            },
            {
              "internalType": "bool",
              "name": "ended",
              "type": "bool"
            }
          ],
          "internalType": "struct GoalContractV0.Goal[]",
          "name": "",
          "type": "tuple[]"
        }
      ],
      "stateMutability": "view",
      "type": "function"
    },
    {
      "inputs": [],
      "name": "goalIds",
      "outputs": [
        {
          "internalType": "uint256",
          "name": "_value",
          "type": "uint256"
        }
      ],
      "stateMutability": "view",
      "type": "function"
    },
    {
      "inputs": [],
      "name": "goalsAchieved",
      "outputs": [
        {
          "internalType": "uint256",
          "name": "_value",
          "type": "uint256"
        }
      ],
      "stateMutability": "view",
      "type": "function"
    },
    {
      "inputs": [
        {
          "internalType": "uint256",
          "name": "",
          "type": "uint256"
        }
      ],
      "name": "idToGoal",
      "outputs": [
        {
          "internalType": "uint256",
          "name": "goalId",
          "type": "uint256"
        },
        {
          "internalType": "string",
          "name": "goal",
          "type": "string"
        },
        {
          "internalType": "uint32",
          "name": "target",
          "type": "uint32"
        },
        {
          "internalType": "string",
          "name": "username",
          "type": "string"
        },
        {
          "internalType": "uint256",
          "name": "startDate",
          "type": "uint256"
        },
        {
          "internalType": "uint256",
          "name": "endDate",
          "type": "uint256"
        },
        {
          "internalType": "address",
          "name": "goalOwnerAddress",
          "type": "address"
        },
        {
          "internalType": "address",
          "name": "goalCheckerAddress",
          "type": "address"
        },
        {
          "internalType": "uint256",
          "name": "amountPledged",
          "type": "uint256"
        },
        {
          "internalType": "bool",
          "name": "achieved",
          "type": "bool"
        },
        {
          "internalType": "bool",
          "name": "withdrawn",
          "type": "bool"
        },
        {
          "internalType": "bool",
          "name": "ended",
          "type": "bool"
        }
      ],
      "stateMutability": "view",
      "type": "function"
    },
    {
      "inputs": [
        {
          "internalType": "uint256",
          "name": "goalId",
          "type": "uint256"
        }
      ],
      "name": "withdrawFunds",
      "outputs": [],
      "stateMutability": "nonpayable",
      "type": "function"
    },
    {
      "stateMutability": "payable",
      "type": "receive"
    }
  ],
  "transactionHash": "0x3820db09cfdcabcda4cd337c6ec127c89c7b51be7f307306046a87e1808690e0",
  "args": [],
  "numDeployments": 1,
  "solcInputHash": "7045a4d665459e2c86dd2afc49342afa",
  "bytecode": "0x60806040526001600081905550612c598061001b6000396000f3fe60806040526004361061008a5760003560e01c80636f01279c116100595780636f01279c14610161578063970c17c61461019e578063ad308abc146101c7578063b9fa2c6b146101e3578063fc1f22e51461020e57610091565b8063155dd5ee1461009357806332093693146100bc57806339c36ebc146100e757806356b18b321461012457610091565b3661009157005b005b34801561009f57600080fd5b506100ba60048036038101906100b59190611eea565b610256565b005b3480156100c857600080fd5b506100d1610652565b6040516100de91906124b0565b60405180910390f35b3480156100f357600080fd5b5061010e60048036038101906101099190611df8565b61065e565b60405161011b919061236e565b60405180910390f35b34801561013057600080fd5b5061014b60048036038101906101469190611df8565b610cd2565b60405161015891906124b0565b60405180910390f35b34801561016d57600080fd5b5061018860048036038101906101839190611df8565b610cea565b604051610195919061236e565b60405180910390f35b3480156101aa57600080fd5b506101c560048036038101906101c09190611f17565b6113ce565b005b6101e160048036038101906101dc9190611e25565b6114fa565b005b3480156101ef57600080fd5b506101f86117e7565b60405161020591906124b0565b60405180910390f35b34801561021a57600080fd5b5061023560048036038101906102309190611eea565b6117f3565b60405161024d9c9b9a99989796959493929190612593565b60405180910390f35b6002600054141561029c576040517f08c379a000000000000000000000000000000000000000000000000000000000815260040161029390612450565b60405180910390fd5b60026000819055506003600082815260200190815260200160002060060160009054906101000a900473ffffffffffffffffffffffffffffffffffffffff1673ffffffffffffffffffffffffffffffffffffffff163373ffffffffffffffffffffffffffffffffffffffff1614610348576040517f08c379a000000000000000000000000000000000000000000000000000000000815260040161033f90612410565b60405180910390fd5b6003600082815260200190815260200160002060090160029054906101000a900460ff166103ab576040517f08c379a00000000000000000000000000000000000000000000000000000000081526004016103a290612430565b60405180910390fd5b6003600082815260200190815260200160002060090160019054906101000a900460ff161561040f576040517f08c379a000000000000000000000000000000000000000000000000000000000815260040161040690612470565b60405180910390fd5b6003600082815260200190815260200160002060090160009054906101000a900460ff16610472576040517f08c379a000000000000000000000000000000000000000000000000000000000815260040161046990612490565b60405180910390fd5b60016003600083815260200190815260200160002060090160016101000a81548160ff02191690831515021790555060016003600083815260200190815260200160002060090160026101000a81548160ff02191690831515021790555060003373ffffffffffffffffffffffffffffffffffffffff16600360008481526020019081526020016000206008015460405161050c90612359565b60006040518083038185875af1925050503d8060008114610549576040519150601f19603f3d011682016040523d82523d6000602084013e61054e565b606091505b5050905080610592576040517f08c379a0000000000000000000000000000000000000000000000000000000008152600401610589906123f0565b60405180910390fd5b7ffc8ca59c733163d87ddc2c3cd2fdef8410b795eebc229ed93537e133fb55267a6003600084815260200190815260200160002060000154600360008581526020019081526020016000206001016003600086815260200190815260200160002060060160009054906101000a900473ffffffffffffffffffffffffffffffffffffffff16600360008781526020019081526020016000206008015460405161063e94939291906126a7565b60405180910390a150600160008190555050565b60028060000154905081565b6060600061066c60016119da565b90506000806106b06040518060400160405280601481526020017f546f74616c20676f616c20636f756e743a202573000000000000000000000000815250846119e8565b6106ef6040518060400160405280601281526020017f54617267657420416464726573733a202573000000000000000000000000000081525086611a84565b60005b8381101561088c576107396040518060400160405280600581526020017f693a202573000000000000000000000000000000000000000000000000000000815250826119e8565b8573ffffffffffffffffffffffffffffffffffffffff166003600060018461076191906127cf565b815260200190815260200160002060070160009054906101000a900473ffffffffffffffffffffffffffffffffffffffff1673ffffffffffffffffffffffffffffffffffffffff161480156107e35750600360006001836107c291906127cf565b815260200190815260200160002060090160029054906101000a900460ff16155b15610879576108696040518060400160405280601881526020017f476f616c20436865636b657220416464726573733a20257300000000000000008152506003600060018561083291906127cf565b815260200190815260200160002060070160009054906101000a900473ffffffffffffffffffffffffffffffffffffffff16611a84565b60018361087691906127cf565b92505b808061088490612958565b9150506106f2565b506108cc6040518060400160405280600e81526020017f476f616c20636f756e743a202573000000000000000000000000000000000000815250836119e8565b60008267ffffffffffffffff8111156108e8576108e7612a2e565b5b60405190808252806020026020018201604052801561092157816020015b61090e611bf8565b8152602001906001900390816109065790505b50905060005b84811015610cc5578673ffffffffffffffffffffffffffffffffffffffff166003600060018461095791906127cf565b815260200190815260200160002060070160009054906101000a900473ffffffffffffffffffffffffffffffffffffffff1673ffffffffffffffffffffffffffffffffffffffff161480156109d95750600360006001836109b891906127cf565b815260200190815260200160002060090160029054906101000a900460ff16155b15610cb25760006001826109ed91906127cf565b90506000600360008381526020019081526020016000209050806040518061018001604052908160008201548152602001600182018054610a2d906128f5565b80601f0160208091040260200160405190810160405280929190818152602001828054610a59906128f5565b8015610aa65780601f10610a7b57610100808354040283529160200191610aa6565b820191906000526020600020905b815481529060010190602001808311610a8957829003601f168201915b505050505081526020016002820160009054906101000a900463ffffffff1663ffffffff1663ffffffff168152602001600382018054610ae5906128f5565b80601f0160208091040260200160405190810160405280929190818152602001828054610b11906128f5565b8015610b5e5780601f10610b3357610100808354040283529160200191610b5e565b820191906000526020600020905b815481529060010190602001808311610b4157829003601f168201915b5050505050815260200160048201548152602001600582015481526020016006820160009054906101000a900473ffffffffffffffffffffffffffffffffffffffff1673ffffffffffffffffffffffffffffffffffffffff1673ffffffffffffffffffffffffffffffffffffffff1681526020016007820160009054906101000a900473ffffffffffffffffffffffffffffffffffffffff1673ffffffffffffffffffffffffffffffffffffffff1673ffffffffffffffffffffffffffffffffffffffff168152602001600882015481526020016009820160009054906101000a900460ff161515151581526020016009820160019054906101000a900460ff161515151581526020016009820160029054906101000a900460ff161515151581525050848681518110610c9557610c946129ff565b5b6020026020010181905250600185610cad91906127cf565b945050505b8080610cbd90612958565b915050610927565b5080945050505050919050565b60046020528060005260406000206000915090505481565b60606000610cf860016119da565b9050600080610d3c6040518060400160405280601481526020017f546f74616c20676f616c20636f756e743a202573000000000000000000000000815250846119e8565b610d7b6040518060400160405280601281526020017f54617267657420416464726573733a202573000000000000000000000000000081525086611a84565b60005b83811015610f5057610dc56040518060400160405280600581526020017f693a202573000000000000000000000000000000000000000000000000000000815250826119e8565b8573ffffffffffffffffffffffffffffffffffffffff1660036000600184610ded91906127cf565b815260200190815260200160002060060160009054906101000a900473ffffffffffffffffffffffffffffffffffffffff1673ffffffffffffffffffffffffffffffffffffffff16148015610e6e575060036000600183610e4e91906127cf565b815260200190815260200160002060090160009054906101000a900460ff165b8015610ea7575060036000600183610e8691906127cf565b815260200190815260200160002060090160019054906101000a900460ff16155b15610f3d57610f2d6040518060400160405280601881526020017f476f616c20436865636b657220416464726573733a202573000000000000000081525060036000600185610ef691906127cf565b815260200190815260200160002060070160009054906101000a900473ffffffffffffffffffffffffffffffffffffffff16611a84565b600183610f3a91906127cf565b92505b8080610f4890612958565b915050610d7e565b50610f906040518060400160405280600e81526020017f476f616c20636f756e743a202573000000000000000000000000000000000000815250836119e8565b60008267ffffffffffffffff811115610fac57610fab612a2e565b5b604051908082528060200260200182016040528015610fe557816020015b610fd2611bf8565b815260200190600190039081610fca5790505b50905060005b848110156113c1578673ffffffffffffffffffffffffffffffffffffffff166003600060018461101b91906127cf565b815260200190815260200160002060060160009054906101000a900473ffffffffffffffffffffffffffffffffffffffff1673ffffffffffffffffffffffffffffffffffffffff1614801561109c57506003600060018361107c91906127cf565b815260200190815260200160002060090160009054906101000a900460ff165b80156110d55750600360006001836110b491906127cf565b815260200190815260200160002060090160019054906101000a900460ff16155b156113ae5760006001826110e991906127cf565b90506000600360008381526020019081526020016000209050806040518061018001604052908160008201548152602001600182018054611129906128f5565b80601f0160208091040260200160405190810160405280929190818152602001828054611155906128f5565b80156111a25780601f10611177576101008083540402835291602001916111a2565b820191906000526020600020905b81548152906001019060200180831161118557829003601f168201915b505050505081526020016002820160009054906101000a900463ffffffff1663ffffffff1663ffffffff1681526020016003820180546111e1906128f5565b80601f016020809104026020016040519081016040528092919081815260200182805461120d906128f5565b801561125a5780601f1061122f5761010080835404028352916020019161125a565b820191906000526020600020905b81548152906001019060200180831161123d57829003601f168201915b5050505050815260200160048201548152602001600582015481526020016006820160009054906101000a900473ffffffffffffffffffffffffffffffffffffffff1673ffffffffffffffffffffffffffffffffffffffff1673ffffffffffffffffffffffffffffffffffffffff1681526020016007820160009054906101000a900473ffffffffffffffffffffffffffffffffffffffff1673ffffffffffffffffffffffffffffffffffffffff1673ffffffffffffffffffffffffffffffffffffffff168152602001600882015481526020016009820160009054906101000a900460ff161515151581526020016009820160019054906101000a900460ff161515151581526020016009820160029054906101000a900460ff161515151581525050848681518110611391576113906129ff565b5b60200260200101819052506001856113a991906127cf565b945050505b80806113b990612958565b915050610feb565b5080945050505050919050565b6113d86002611b20565b806003600084815260200190815260200160002060090160006101000a81548160ff02191690831515021790555060016003600084815260200190815260200160002060090160026101000a81548160ff0219169083151502179055507f5773b945ec1d68c63d72e324b95d40d3c6640a5cdc50a4a98eda73ad812371e56003600084815260200190815260200160002060000154600360008581526020019081526020016000206001016003600086815260200190815260200160002060060160009054906101000a900473ffffffffffffffffffffffffffffffffffffffff166003600087815260200190815260200160002060090160009054906101000a900460ff166040516114ee949392919061265b565b60405180910390a15050565b6115046001611b20565b600061151060016119da565b905061151b81611b36565b6040518061018001604052808281526020018881526020018763ffffffff1681526020018681526020018581526020018481526020013373ffffffffffffffffffffffffffffffffffffffff1681526020018373ffffffffffffffffffffffffffffffffffffffff16815260200134815260200160001515815260200160001515815260200160001515815250600360008381526020019081526020016000206000820151816000015560208201518160010190805190602001906115e1929190611c91565b5060408201518160020160006101000a81548163ffffffff021916908363ffffffff1602179055506060820151816003019080519060200190611625929190611c91565b506080820151816004015560a0820151816005015560c08201518160060160006101000a81548173ffffffffffffffffffffffffffffffffffffffff021916908373ffffffffffffffffffffffffffffffffffffffff16021790555060e08201518160070160006101000a81548173ffffffffffffffffffffffffffffffffffffffff021916908373ffffffffffffffffffffffffffffffffffffffff16021790555061010082015181600801556101208201518160090160006101000a81548160ff0219169083151502179055506101408201518160090160016101000a81548160ff0219169083151502179055506101608201518160090160026101000a81548160ff02191690831515021790555090505034600460003373ffffffffffffffffffffffffffffffffffffffff1673ffffffffffffffffffffffffffffffffffffffff168152602001908152602001600020600082825461178891906127cf565b925050819055507f120cbc735653e6dafb59a0c1ad0ecc97a2af0da645d1cc2f7fcf3e98b889276781888888888833893460008060006040516117d69c9b9a999897969594939291906124cb565b60405180910390a150505050505050565b60018060000154905081565b600360205280600052604060002060009150905080600001549080600101805461181c906128f5565b80601f0160208091040260200160405190810160405280929190818152602001828054611848906128f5565b80156118955780601f1061186a57610100808354040283529160200191611895565b820191906000526020600020905b81548152906001019060200180831161187857829003601f168201915b5050505050908060020160009054906101000a900463ffffffff16908060030180546118c0906128f5565b80601f01602080910402602001604051908101604052809291908181526020018280546118ec906128f5565b80156119395780601f1061190e57610100808354040283529160200191611939565b820191906000526020600020905b81548152906001019060200180831161191c57829003601f168201915b5050505050908060040154908060050154908060060160009054906101000a900473ffffffffffffffffffffffffffffffffffffffff16908060070160009054906101000a900473ffffffffffffffffffffffffffffffffffffffff16908060080154908060090160009054906101000a900460ff16908060090160019054906101000a900460ff16908060090160029054906101000a900460ff1690508c565b600081600001549050919050565b611a8082826040516024016119fe9291906123c0565b6040516020818303038152906040527f9710a9d0000000000000000000000000000000000000000000000000000000007bffffffffffffffffffffffffffffffffffffffffffffffffffffffff19166020820180517bffffffffffffffffffffffffffffffffffffffffffffffffffffffff8381831617835250505050611bcf565b5050565b611b1c8282604051602401611a9a929190612390565b6040516020818303038152906040527f319af333000000000000000000000000000000000000000000000000000000007bffffffffffffffffffffffffffffffffffffffffffffffffffffffff19166020820180517bffffffffffffffffffffffffffffffffffffffffffffffffffffffff8381831617835250505050611bcf565b5050565b6001816000016000828254019250508190555050565b611bcc81604051602401611b4a91906124b0565b6040516020818303038152906040527ff5b1bba9000000000000000000000000000000000000000000000000000000007bffffffffffffffffffffffffffffffffffffffffffffffffffffffff19166020820180517bffffffffffffffffffffffffffffffffffffffffffffffffffffffff8381831617835250505050611bcf565b50565b60008151905060006a636f6e736f6c652e6c6f679050602083016000808483855afa5050505050565b6040518061018001604052806000815260200160608152602001600063ffffffff168152602001606081526020016000815260200160008152602001600073ffffffffffffffffffffffffffffffffffffffff168152602001600073ffffffffffffffffffffffffffffffffffffffff168152602001600081526020016000151581526020016000151581526020016000151581525090565b828054611c9d906128f5565b90600052602060002090601f016020900481019282611cbf5760008555611d06565b82601f10611cd857805160ff1916838001178555611d06565b82800160010185558215611d06579182015b82811115611d05578251825591602001919060010190611cea565b5b509050611d139190611d17565b5090565b5b80821115611d30576000816000905550600101611d18565b5090565b6000611d47611d4284612718565b6126f3565b905082815260208101848484011115611d6357611d62612a62565b5b611d6e8482856128b3565b509392505050565b600081359050611d8581612bc7565b92915050565b600081359050611d9a81612bde565b92915050565b600082601f830112611db557611db4612a5d565b5b8135611dc5848260208601611d34565b91505092915050565b600081359050611ddd81612bf5565b92915050565b600081359050611df281612c0c565b92915050565b600060208284031215611e0e57611e0d612a6c565b5b6000611e1c84828501611d76565b91505092915050565b60008060008060008060c08789031215611e4257611e41612a6c565b5b600087013567ffffffffffffffff811115611e6057611e5f612a67565b5b611e6c89828a01611da0565b9650506020611e7d89828a01611de3565b955050604087013567ffffffffffffffff811115611e9e57611e9d612a67565b5b611eaa89828a01611da0565b9450506060611ebb89828a01611dce565b9350506080611ecc89828a01611dce565b92505060a0611edd89828a01611d76565b9150509295509295509295565b600060208284031215611f0057611eff612a6c565b5b6000611f0e84828501611dce565b91505092915050565b60008060408385031215611f2e57611f2d612a6c565b5b6000611f3c85828601611dce565b9250506020611f4d85828601611d8b565b9150509250929050565b6000611f638383612212565b905092915050565b611f748161287d565b82525050565b611f8381612825565b82525050565b611f9281612825565b82525050565b6000611fa38261276e565b611fad8185612791565b935083602082028501611fbf85612749565b8060005b85811015611ffb5784840389528151611fdc8582611f57565b9450611fe783612784565b925060208a01995050600181019050611fc3565b50829750879550505050505092915050565b61201681612837565b82525050565b61202581612837565b82525050565b600061203682612779565b61204081856127ad565b93506120508185602086016128c2565b61205981612a71565b840191505092915050565b600061206f82612779565b61207981856127be565b93506120898185602086016128c2565b61209281612a71565b840191505092915050565b600081546120aa816128f5565b6120b481866127be565b945060018216600081146120cf57600181146120e157612114565b60ff1983168652602086019350612114565b6120ea85612759565b60005b8381101561210c578154818901526001820191506020810190506120ed565b808801955050505b50505092915050565b600061212a601c836127be565b915061213582612a82565b602082019050919050565b600061214d6022836127be565b915061215882612aab565b604082019050919050565b60006121706000836127a2565b915061217b82612afa565b600082019050919050565b60006121936016836127be565b915061219e82612afd565b602082019050919050565b60006121b6601f836127be565b91506121c182612b26565b602082019050919050565b60006121d9601f836127be565b91506121e482612b4f565b602082019050919050565b60006121fc6026836127be565b915061220782612b78565b604082019050919050565b60006101808301600083015161222b600086018261231d565b5060208301518482036020860152612243828261202b565b9150506040830151612258604086018261233b565b5060608301518482036060860152612270828261202b565b9150506080830151612285608086018261231d565b5060a083015161229860a086018261231d565b5060c08301516122ab60c0860182611f7a565b5060e08301516122be60e0860182611f7a565b506101008301516122d361010086018261231d565b506101208301516122e861012086018261200d565b506101408301516122fd61014086018261200d565b5061016083015161231261016086018261200d565b508091505092915050565b61232681612863565b82525050565b61233581612863565b82525050565b6123448161286d565b82525050565b6123538161286d565b82525050565b600061236482612163565b9150819050919050565b600060208201905081810360008301526123888184611f98565b905092915050565b600060408201905081810360008301526123aa8185612064565b90506123b96020830184611f89565b9392505050565b600060408201905081810360008301526123da8185612064565b90506123e9602083018461232c565b9392505050565b600060208201905081810360008301526124098161211d565b9050919050565b6000602082019050818103600083015261242981612140565b9050919050565b6000602082019050818103600083015261244981612186565b9050919050565b60006020820190508181036000830152612469816121a9565b9050919050565b60006020820190508181036000830152612489816121cc565b9050919050565b600060208201905081810360008301526124a9816121ef565b9050919050565b60006020820190506124c5600083018461232c565b92915050565b6000610180820190506124e1600083018f61232c565b81810360208301526124f3818e612064565b9050612502604083018d61234a565b8181036060830152612514818c612064565b9050612523608083018b61232c565b61253060a083018a61232c565b61253d60c0830189611f6b565b61254a60e0830188611f6b565b61255861010083018761232c565b61256661012083018661201c565b61257461014083018561201c565b61258261016083018461201c565b9d9c50505050505050505050505050565b6000610180820190506125a9600083018f61232c565b81810360208301526125bb818e612064565b90506125ca604083018d61234a565b81810360608301526125dc818c612064565b90506125eb608083018b61232c565b6125f860a083018a61232c565b61260560c0830189611f89565b61261260e0830188611f89565b61262061010083018761232c565b61262e61012083018661201c565b61263c61014083018561201c565b61264a61016083018461201c565b9d9c50505050505050505050505050565b6000608082019050612670600083018761232c565b8181036020830152612682818661209d565b90506126916040830185611f89565b61269e606083018461201c565b95945050505050565b60006080820190506126bc600083018761232c565b81810360208301526126ce818661209d565b90506126dd6040830185611f89565b6126ea606083018461232c565b95945050505050565b60006126fd61270e565b90506127098282612927565b919050565b6000604051905090565b600067ffffffffffffffff82111561273357612732612a2e565b5b61273c82612a71565b9050602081019050919050565b6000819050602082019050919050565b60008190508160005260206000209050919050565b600081519050919050565b600081519050919050565b6000602082019050919050565b600082825260208201905092915050565b600081905092915050565b600082825260208201905092915050565b600082825260208201905092915050565b60006127da82612863565b91506127e583612863565b9250827fffffffffffffffffffffffffffffffffffffffffffffffffffffffffffffffff0382111561281a576128196129a1565b5b828201905092915050565b600061283082612843565b9050919050565b60008115159050919050565b600073ffffffffffffffffffffffffffffffffffffffff82169050919050565b6000819050919050565b600063ffffffff82169050919050565b60006128888261288f565b9050919050565b600061289a826128a1565b9050919050565b60006128ac82612843565b9050919050565b82818337600083830152505050565b60005b838110156128e05780820151818401526020810190506128c5565b838111156128ef576000848401525b50505050565b6000600282049050600182168061290d57607f821691505b60208210811415612921576129206129d0565b5b50919050565b61293082612a71565b810181811067ffffffffffffffff8211171561294f5761294e612a2e565b5b80604052505050565b600061296382612863565b91507fffffffffffffffffffffffffffffffffffffffffffffffffffffffffffffffff821415612996576129956129a1565b5b600182019050919050565b7f4e487b7100000000000000000000000000000000000000000000000000000000600052601160045260246000fd5b7f4e487b7100000000000000000000000000000000000000000000000000000000600052602260045260246000fd5b7f4e487b7100000000000000000000000000000000000000000000000000000000600052603260045260246000fd5b7f4e487b7100000000000000000000000000000000000000000000000000000000600052604160045260246000fd5b600080fd5b600080fd5b600080fd5b600080fd5b6000601f19601f8301169050919050565b7f4661696c656420746f2073656e64207573657220455448206261636b00000000600082015250565b7f4f6e6c7920676f616c206f776e65722063616e2077697468647261772066756e60008201527f6473000000000000000000000000000000000000000000000000000000000000602082015250565b50565b7f476f616c20686173206e6f7420656e6465642079657400000000000000000000600082015250565b7f5265656e7472616e637947756172643a207265656e7472616e742063616c6c00600082015250565b7f476f616c2068617320616c7265616479206265656e2077697468647261776e00600082015250565b7f476f616c20686173206e6f74206265656e20766572696669656420617320616360008201527f6869657665640000000000000000000000000000000000000000000000000000602082015250565b612bd081612825565b8114612bdb57600080fd5b50565b612be781612837565b8114612bf257600080fd5b50565b612bfe81612863565b8114612c0957600080fd5b50565b612c158161286d565b8114612c2057600080fd5b5056fea264697066735822122007194de82b791ba79499f0d8998bae4228f2c97bb41ee5c8bcce9bad3f76f36a64736f6c63430008070033",
  "devdoc": {
    "kind": "dev",
    "methods": {},
    "version": 1
  },
  "userdoc": {
    "kind": "user",
    "methods": {},
    "version": 1
  },
  "storageLayout": {
    "storage": [
      {
        "astId": 2384,
        "contract": "contracts/GoalContractV0.sol:GoalContractV0",
        "label": "_status",
        "offset": 0,
        "slot": "0",
        "type": "t_uint256"
      },
      {
        "astId": 2701,
        "contract": "contracts/GoalContractV0.sol:GoalContractV0",
        "label": "goalIds",
        "offset": 0,
        "slot": "1",
        "type": "t_struct(Counter)2419_storage"
      },
      {
        "astId": 2704,
        "contract": "contracts/GoalContractV0.sol:GoalContractV0",
        "label": "goalsAchieved",
        "offset": 0,
        "slot": "2",
        "type": "t_struct(Counter)2419_storage"
      },
      {
        "astId": 2780,
        "contract": "contracts/GoalContractV0.sol:GoalContractV0",
        "label": "idToGoal",
        "offset": 0,
        "slot": "3",
        "type": "t_mapping(t_uint256,t_struct(Goal)2729_storage)"
      },
      {
        "astId": 2784,
        "contract": "contracts/GoalContractV0.sol:GoalContractV0",
        "label": "amountLockedByAddress",
        "offset": 0,
        "slot": "4",
        "type": "t_mapping(t_address,t_uint256)"
      }
    ],
    "types": {
      "t_address": {
        "encoding": "inplace",
        "label": "address",
        "numberOfBytes": "20"
      },
      "t_bool": {
        "encoding": "inplace",
        "label": "bool",
        "numberOfBytes": "1"
      },
      "t_mapping(t_address,t_uint256)": {
        "encoding": "mapping",
        "key": "t_address",
        "label": "mapping(address => uint256)",
        "numberOfBytes": "32",
        "value": "t_uint256"
      },
      "t_mapping(t_uint256,t_struct(Goal)2729_storage)": {
        "encoding": "mapping",
        "key": "t_uint256",
        "label": "mapping(uint256 => struct GoalContractV0.Goal)",
        "numberOfBytes": "32",
        "value": "t_struct(Goal)2729_storage"
      },
      "t_string_storage": {
        "encoding": "bytes",
        "label": "string",
        "numberOfBytes": "32"
      },
      "t_struct(Counter)2419_storage": {
        "encoding": "inplace",
        "label": "struct Counters.Counter",
        "members": [
          {
            "astId": 2418,
            "contract": "contracts/GoalContractV0.sol:GoalContractV0",
            "label": "_value",
            "offset": 0,
            "slot": "0",
            "type": "t_uint256"
          }
        ],
        "numberOfBytes": "32"
      },
      "t_struct(Goal)2729_storage": {
        "encoding": "inplace",
        "label": "struct GoalContractV0.Goal",
        "members": [
          {
            "astId": 2706,
            "contract": "contracts/GoalContractV0.sol:GoalContractV0",
            "label": "goalId",
            "offset": 0,
            "slot": "0",
            "type": "t_uint256"
          },
          {
            "astId": 2708,
            "contract": "contracts/GoalContractV0.sol:GoalContractV0",
            "label": "goal",
            "offset": 0,
            "slot": "1",
            "type": "t_string_storage"
          },
          {
            "astId": 2710,
            "contract": "contracts/GoalContractV0.sol:GoalContractV0",
            "label": "target",
            "offset": 0,
            "slot": "2",
            "type": "t_uint32"
          },
          {
            "astId": 2712,
            "contract": "contracts/GoalContractV0.sol:GoalContractV0",
            "label": "username",
            "offset": 0,
            "slot": "3",
            "type": "t_string_storage"
          },
          {
            "astId": 2714,
            "contract": "contracts/GoalContractV0.sol:GoalContractV0",
            "label": "startDate",
            "offset": 0,
            "slot": "4",
            "type": "t_uint256"
          },
          {
            "astId": 2716,
            "contract": "contracts/GoalContractV0.sol:GoalContractV0",
            "label": "endDate",
            "offset": 0,
            "slot": "5",
            "type": "t_uint256"
          },
          {
            "astId": 2718,
            "contract": "contracts/GoalContractV0.sol:GoalContractV0",
            "label": "goalOwnerAddress",
            "offset": 0,
            "slot": "6",
            "type": "t_address"
          },
          {
            "astId": 2720,
            "contract": "contracts/GoalContractV0.sol:GoalContractV0",
            "label": "goalCheckerAddress",
            "offset": 0,
            "slot": "7",
            "type": "t_address"
          },
          {
            "astId": 2722,
            "contract": "contracts/GoalContractV0.sol:GoalContractV0",
            "label": "amountPledged",
            "offset": 0,
            "slot": "8",
            "type": "t_uint256"
          },
          {
            "astId": 2724,
            "contract": "contracts/GoalContractV0.sol:GoalContractV0",
            "label": "achieved",
            "offset": 0,
            "slot": "9",
            "type": "t_bool"
          },
          {
            "astId": 2726,
            "contract": "contracts/GoalContractV0.sol:GoalContractV0",
            "label": "withdrawn",
            "offset": 1,
            "slot": "9",
            "type": "t_bool"
          },
          {
            "astId": 2728,
            "contract": "contracts/GoalContractV0.sol:GoalContractV0",
            "label": "ended",
            "offset": 2,
            "slot": "9",
            "type": "t_bool"
          }
        ],
        "numberOfBytes": "320"
      },
      "t_uint256": {
        "encoding": "inplace",
        "label": "uint256",
        "numberOfBytes": "32"
      },
      "t_uint32": {
        "encoding": "inplace",
        "label": "uint32",
        "numberOfBytes": "4"
      }
    }
  }
}