{
  "address": "0x103cf79Acc7A4c963e8DC27Fad518B5dAd5D336b",
  "abi": [
    {
      "inputs": [
        {
          "internalType": "address",
          "name": "_linkTokenAddr",
          "type": "address"
        },
        {
          "internalType": "address",
          "name": "_oralcleAddr",
          "type": "address"
        }
      ],
      "stateMutability": "payable",
      "type": "constructor"
    },
    {
      "anonymous": false,
      "inputs": [
        {
          "indexed": true,
          "internalType": "bytes32",
          "name": "id",
          "type": "bytes32"
        }
      ],
      "name": "ChainlinkCancelled",
      "type": "event"
    },
    {
      "anonymous": false,
      "inputs": [
        {
          "indexed": true,
          "internalType": "bytes32",
          "name": "id",
          "type": "bytes32"
        }
      ],
      "name": "ChainlinkFulfilled",
      "type": "event"
    },
    {
      "anonymous": false,
      "inputs": [
        {
          "indexed": true,
          "internalType": "bytes32",
          "name": "id",
          "type": "bytes32"
        }
      ],
      "name": "ChainlinkRequested",
      "type": "event"
    },
    {
      "anonymous": false,
      "inputs": [
        {
          "components": [
            {
              "internalType": "uint256",
              "name": "goalId",
              "type": "uint256"
            },
            {
              "internalType": "uint256",
              "name": "username",
              "type": "uint256"
            },
            {
              "internalType": "string",
              "name": "goal",
              "type": "string"
            },
            {
              "internalType": "uint256",
              "name": "target",
              "type": "uint256"
            },
            {
              "internalType": "uint256",
              "name": "startDate",
              "type": "uint256"
            },
            {
              "internalType": "uint256",
              "name": "endDate",
              "type": "uint256"
            },
            {
              "internalType": "address",
              "name": "goalOwnerAddress",
              "type": "address"
            },
            {
              "internalType": "uint256",
              "name": "amountPledged",
              "type": "uint256"
            },
            {
              "internalType": "bool",
              "name": "achieved",
              "type": "bool"
            },
            {
              "internalType": "bool",
              "name": "withdrawn",
              "type": "bool"
            },
            {
              "internalType": "bool",
              "name": "ended",
              "type": "bool"
            }
          ],
          "indexed": false,
          "internalType": "struct GoalContractV1.Goal",
          "name": "goal",
          "type": "tuple"
        }
      ],
      "name": "GoalCreated",
      "type": "event"
    },
    {
      "anonymous": false,
      "inputs": [
        {
          "indexed": false,
          "internalType": "uint256",
          "name": "goalId",
          "type": "uint256"
        },
        {
          "indexed": false,
          "internalType": "string",
          "name": "goal",
          "type": "string"
        },
        {
          "indexed": false,
          "internalType": "address",
          "name": "goalOwnerAddress",
          "type": "address"
        },
        {
          "indexed": false,
          "internalType": "bool",
          "name": "achieved",
          "type": "bool"
        }
      ],
      "name": "GoalEvaluated",
      "type": "event"
    },
    {
      "anonymous": false,
      "inputs": [
        {
          "components": [
            {
              "internalType": "string",
              "name": "goal",
              "type": "string"
            },
            {
              "internalType": "uint256",
              "name": "startDate",
              "type": "uint256"
            },
            {
              "internalType": "uint256",
              "name": "endDate",
              "type": "uint256"
            },
            {
              "internalType": "uint256",
              "name": "target",
              "type": "uint256"
            },
            {
              "internalType": "address",
              "name": "goalOwnerAddress",
              "type": "address"
            },
            {
              "internalType": "uint256",
              "name": "amountPledged",
              "type": "uint256"
            },
            {
              "internalType": "bool",
              "name": "fulfilled",
              "type": "bool"
            }
          ],
          "indexed": false,
          "internalType": "struct GoalContractV1.GoalRequest",
          "name": "goalRequest",
          "type": "tuple"
        }
      ],
      "name": "GoalRequestCreated",
      "type": "event"
    },
    {
      "anonymous": false,
      "inputs": [
        {
          "indexed": false,
          "internalType": "uint256",
          "name": "goalId",
          "type": "uint256"
        },
        {
          "indexed": false,
          "internalType": "string",
          "name": "goal",
          "type": "string"
        },
        {
          "indexed": false,
          "internalType": "address",
          "name": "goalOwnerAddress",
          "type": "address"
        },
        {
          "indexed": false,
          "internalType": "uint256",
          "name": "amountPledged",
          "type": "uint256"
        }
      ],
      "name": "PledgedAmountWithdrawn",
      "type": "event"
    },
    {
      "stateMutability": "payable",
      "type": "fallback"
    },
    {
      "inputs": [
        {
          "internalType": "address",
          "name": "",
          "type": "address"
        }
      ],
      "name": "amountLockedByAddress",
      "outputs": [
        {
          "internalType": "uint256",
          "name": "",
          "type": "uint256"
        }
      ],
      "stateMutability": "view",
      "type": "function"
    },
    {
      "inputs": [
        {
          "internalType": "string",
          "name": "goal",
          "type": "string"
        },
        {
          "internalType": "uint256",
          "name": "target",
          "type": "uint256"
        },
        {
          "internalType": "string",
          "name": "username",
          "type": "string"
        },
        {
          "internalType": "uint256",
          "name": "startDate",
          "type": "uint256"
        },
        {
          "internalType": "uint256",
          "name": "endDate",
          "type": "uint256"
        }
      ],
      "name": "createGoalRequest",
      "outputs": [],
      "stateMutability": "payable",
      "type": "function"
    },
    {
      "inputs": [
        {
          "internalType": "bytes32",
          "name": "_requestId",
          "type": "bytes32"
        },
        {
          "internalType": "uint256",
          "name": "_payload",
          "type": "uint256"
        },
        {
          "internalType": "uint256",
          "name": "_username",
          "type": "uint256"
        }
      ],
      "name": "fulfill",
      "outputs": [],
      "stateMutability": "nonpayable",
      "type": "function"
    },
    {
      "inputs": [
        {
          "internalType": "bytes32",
          "name": "_requestId",
          "type": "bytes32"
        }
      ],
      "name": "getGoalRequestFufilled",
      "outputs": [
        {
          "internalType": "bool",
          "name": "",
          "type": "bool"
        }
      ],
      "stateMutability": "view",
      "type": "function"
    },
    {
      "inputs": [
        {
          "internalType": "address",
          "name": "userAddr",
          "type": "address"
        }
      ],
      "name": "getLastUserGoal",
      "outputs": [
        {
          "components": [
            {
              "internalType": "uint256",
              "name": "goalId",
              "type": "uint256"
            },
            {
              "internalType": "uint256",
              "name": "username",
              "type": "uint256"
            },
            {
              "internalType": "string",
              "name": "goal",
              "type": "string"
            },
            {
              "internalType": "uint256",
              "name": "target",
              "type": "uint256"
            },
            {
              "internalType": "uint256",
              "name": "startDate",
              "type": "uint256"
            },
            {
              "internalType": "uint256",
              "name": "endDate",
              "type": "uint256"
            },
            {
              "internalType": "address",
              "name": "goalOwnerAddress",
              "type": "address"
            },
            {
              "internalType": "uint256",
              "name": "amountPledged",
              "type": "uint256"
            },
            {
              "internalType": "bool",
              "name": "achieved",
              "type": "bool"
            },
            {
              "internalType": "bool",
              "name": "withdrawn",
              "type": "bool"
            },
            {
              "internalType": "bool",
              "name": "ended",
              "type": "bool"
            }
          ],
          "internalType": "struct GoalContractV1.Goal",
          "name": "",
          "type": "tuple"
        }
      ],
      "stateMutability": "view",
      "type": "function"
    },
    {
      "inputs": [
        {
          "internalType": "address",
          "name": "userAddr",
          "type": "address"
        }
      ],
      "name": "getUserGoals",
      "outputs": [
        {
          "components": [
            {
              "internalType": "uint256",
              "name": "goalId",
              "type": "uint256"
            },
            {
              "internalType": "uint256",
              "name": "username",
              "type": "uint256"
            },
            {
              "internalType": "string",
              "name": "goal",
              "type": "string"
            },
            {
              "internalType": "uint256",
              "name": "target",
              "type": "uint256"
            },
            {
              "internalType": "uint256",
              "name": "startDate",
              "type": "uint256"
            },
            {
              "internalType": "uint256",
              "name": "endDate",
              "type": "uint256"
            },
            {
              "internalType": "address",
              "name": "goalOwnerAddress",
              "type": "address"
            },
            {
              "internalType": "uint256",
              "name": "amountPledged",
              "type": "uint256"
            },
            {
              "internalType": "bool",
              "name": "achieved",
              "type": "bool"
            },
            {
              "internalType": "bool",
              "name": "withdrawn",
              "type": "bool"
            },
            {
              "internalType": "bool",
              "name": "ended",
              "type": "bool"
            }
          ],
          "internalType": "struct GoalContractV1.Goal[]",
          "name": "",
          "type": "tuple[]"
        }
      ],
      "stateMutability": "view",
      "type": "function"
    },
    {
      "inputs": [],
      "name": "goalIds",
      "outputs": [
        {
          "internalType": "uint256",
          "name": "_value",
          "type": "uint256"
        }
      ],
      "stateMutability": "view",
      "type": "function"
    },
    {
      "inputs": [],
      "name": "goalsAchieved",
      "outputs": [
        {
          "internalType": "uint256",
          "name": "_value",
          "type": "uint256"
        }
      ],
      "stateMutability": "view",
      "type": "function"
    },
    {
      "inputs": [
        {
          "internalType": "uint256",
          "name": "",
          "type": "uint256"
        }
      ],
      "name": "idToGoal",
      "outputs": [
        {
          "internalType": "uint256",
          "name": "goalId",
          "type": "uint256"
        },
        {
          "internalType": "uint256",
          "name": "username",
          "type": "uint256"
        },
        {
          "internalType": "string",
          "name": "goal",
          "type": "string"
        },
        {
          "internalType": "uint256",
          "name": "target",
          "type": "uint256"
        },
        {
          "internalType": "uint256",
          "name": "startDate",
          "type": "uint256"
        },
        {
          "internalType": "uint256",
          "name": "endDate",
          "type": "uint256"
        },
        {
          "internalType": "address",
          "name": "goalOwnerAddress",
          "type": "address"
        },
        {
          "internalType": "uint256",
          "name": "amountPledged",
          "type": "uint256"
        },
        {
          "internalType": "bool",
          "name": "achieved",
          "type": "bool"
        },
        {
          "internalType": "bool",
          "name": "withdrawn",
          "type": "bool"
        },
        {
          "internalType": "bool",
          "name": "ended",
          "type": "bool"
        }
      ],
      "stateMutability": "view",
      "type": "function"
    },
    {
      "inputs": [
        {
          "internalType": "bytes32",
          "name": "",
          "type": "bytes32"
        }
      ],
      "name": "requestIdToGoalRequest",
      "outputs": [
        {
          "internalType": "string",
          "name": "goal",
          "type": "string"
        },
        {
          "internalType": "uint256",
          "name": "startDate",
          "type": "uint256"
        },
        {
          "internalType": "uint256",
          "name": "endDate",
          "type": "uint256"
        },
        {
          "internalType": "uint256",
          "name": "target",
          "type": "uint256"
        },
        {
          "internalType": "address",
          "name": "goalOwnerAddress",
          "type": "address"
        },
        {
          "internalType": "uint256",
          "name": "amountPledged",
          "type": "uint256"
        },
        {
          "internalType": "bool",
          "name": "fulfilled",
          "type": "bool"
        }
      ],
      "stateMutability": "view",
      "type": "function"
    },
    {
      "inputs": [
        {
          "internalType": "string",
          "name": "username",
          "type": "string"
        }
      ],
      "name": "requestLastUserTweetTs",
      "outputs": [
        {
          "internalType": "bytes32",
          "name": "",
          "type": "bytes32"
        }
      ],
      "stateMutability": "nonpayable",
      "type": "function"
    },
    {
      "inputs": [
        {
          "internalType": "string",
          "name": "_username",
          "type": "string"
        },
        {
          "internalType": "string",
          "name": "_timeStamp",
          "type": "string"
        }
      ],
      "name": "requestLikesSinceTs",
      "outputs": [
        {
          "internalType": "bytes32",
          "name": "",
          "type": "bytes32"
        }
      ],
      "stateMutability": "nonpayable",
      "type": "function"
    },
    {
      "inputs": [
        {
          "internalType": "address",
          "name": "",
          "type": "address"
        },
        {
          "internalType": "uint256",
          "name": "",
          "type": "uint256"
        }
      ],
      "name": "userToGoalIds",
      "outputs": [
        {
          "internalType": "uint256",
          "name": "",
          "type": "uint256"
        }
      ],
      "stateMutability": "view",
      "type": "function"
    },
    {
      "inputs": [
        {
          "internalType": "address",
          "name": "",
          "type": "address"
        }
      ],
      "name": "userToLastReqId",
      "outputs": [
        {
          "internalType": "bytes32",
          "name": "",
          "type": "bytes32"
        }
      ],
      "stateMutability": "view",
      "type": "function"
    },
    {
      "stateMutability": "payable",
      "type": "receive"
    }
  ],
  "transactionHash": "0x45341934f561cf96c90070d9bf97442fc3a61288dca34a5fd4fb13e41ea49939",
  "args": [
    "0x317228c2817A6B307a3C148902E486d0f05faf8E",
    "0x7c8A3cf1C01e2f802B67503592f175496d5cB04B"
  ],
  "numDeployments": 6,
  "solcInputHash": "312a8d13ec9366fee7e07bec24a4f637",
  "bytecode": "0x608060405260016005556040516200364f3803806200364f83398181016040528101906200002e919062000116565b818160016000819055506200004982620000bb60201b60201c565b80600760006101000a81548173ffffffffffffffffffffffffffffffffffffffff021916908373ffffffffffffffffffffffffffffffffffffffff1602179055507f326363393236323236613661343937356165343939633837333532356538383160088190555050505050620001b0565b80600360006101000a81548173ffffffffffffffffffffffffffffffffffffffff021916908373ffffffffffffffffffffffffffffffffffffffff16021790555050565b600081519050620001108162000196565b92915050565b6000806040838503121562000130576200012f62000191565b5b60006200014085828601620000ff565b92505060206200015385828601620000ff565b9150509250929050565b60006200016a8262000171565b9050919050565b600073ffffffffffffffffffffffffffffffffffffffff82169050919050565b600080fd5b620001a1816200015d565b8114620001ad57600080fd5b50565b61348f80620001c06000396000f3fe6080604052600436106100e15760003560e01c8063aedf0a4a1161007f578063beb3e42811610059578063beb3e428146102f3578063c1ea96d614610336578063e18df9fa14610373578063fc1f22e5146103b0576100e8565b8063aedf0a4a1461024e578063b44bce3e1461028b578063b9fa2c6b146102c8576100e8565b8063442f1e91116100bb578063442f1e911461018f57806356b18b32146101ab578063605ad2f9146101e857806388a997bf14610225576100e8565b80630a006637146100ea578063320936931461012757806335742c6314610152576100e8565b366100e857005b005b3480156100f657600080fd5b50610111600480360381019061010c9190612307565b6103f7565b60405161011e9190612ad3565b60405180910390f35b34801561013357600080fd5b5061013c610424565b6040516101499190612c3a565b60405180910390f35b34801561015e57600080fd5b506101796004803603810190610174919061226d565b610430565b6040516101869190612ab1565b60405180910390f35b6101a960048036038101906101a49190612448565b610713565b005b3480156101b757600080fd5b506101d260048036038101906101cd919061226d565b6108f6565b6040516101df9190612c3a565b60405180910390f35b3480156101f457600080fd5b5061020f600480360381019061020a919061229a565b61090e565b60405161021c9190612c3a565b60405180910390f35b34801561023157600080fd5b5061024c60048036038101906102479190612334565b61093f565b005b34801561025a57600080fd5b5061027560048036038101906102709190612387565b610e5d565b6040516102829190612aee565b60405180910390f35b34801561029757600080fd5b506102b260048036038101906102ad91906123d0565b61106d565b6040516102bf9190612aee565b60405180910390f35b3480156102d457600080fd5b506102dd61126f565b6040516102ea9190612c3a565b60405180910390f35b3480156102ff57600080fd5b5061031a60048036038101906103159190612307565b61127b565b60405161032d9796959493929190612b40565b60405180910390f35b34801561034257600080fd5b5061035d6004803603810190610358919061226d565b611372565b60405161036a9190612c18565b60405180910390f35b34801561037f57600080fd5b5061039a6004803603810190610395919061226d565b6115cf565b6040516103a79190612aee565b60405180910390f35b3480156103bc57600080fd5b506103d760048036038101906103d291906124fb565b6115e7565b6040516103ee9b9a99989796959493929190612c55565b60405180910390f35b6000600f600083815260200190815260200160002060060160009054906101000a900460ff169050919050565b600b8060000154905081565b60606000600d60008473ffffffffffffffffffffffffffffffffffffffff1673ffffffffffffffffffffffffffffffffffffffff1681526020019081526020016000208054806020026020016040519081016040528092919081815260200182805480156104bd57602002820191906000526020600020905b8154815260200190600101908083116104a9575b505050505090506000815167ffffffffffffffff8111156104e1576104e06132f1565b5b60405190808252806020026020018201604052801561051a57816020015b610507612009565b8152602001906001900390816104ff5790505b50905060005b825181101561070857600c60008483815181106105405761053f6132c2565b5b602002602001015181526020019081526020016000206040518061016001604052908160008201548152602001600182015481526020016002820180546105869061312a565b80601f01602080910402602001604051908101604052809291908181526020018280546105b29061312a565b80156105ff5780601f106105d4576101008083540402835291602001916105ff565b820191906000526020600020905b8154815290600101906020018083116105e257829003601f168201915b505050505081526020016003820154815260200160048201548152602001600582015481526020016006820160009054906101000a900473ffffffffffffffffffffffffffffffffffffffff1673ffffffffffffffffffffffffffffffffffffffff1673ffffffffffffffffffffffffffffffffffffffff168152602001600782015481526020016008820160009054906101000a900460ff161515151581526020016008820160019054906101000a900460ff161515151581526020016008820160029054906101000a900460ff1615151515815250508282815181106106ea576106e96132c2565b5b602002602001018190525080806107009061318d565b915050610520565b508092505050919050565b600061071e84610e5d565b905061075f6040518060400160405280600c81526020017f757365726e616d653a202573000000000000000000000000000000000000000081525085611710565b80600e60003373ffffffffffffffffffffffffffffffffffffffff1673ffffffffffffffffffffffffffffffffffffffff1681526020019081526020016000208190555060006040518060e001604052808881526020018581526020018481526020018781526020013373ffffffffffffffffffffffffffffffffffffffff16815260200134815260200160001515815250905080600f6000848152602001908152602001600020600082015181600001908051906020019061082392919061207f565b5060208201518160010155604082015181600201556060820151816003015560808201518160040160006101000a81548173ffffffffffffffffffffffffffffffffffffffff021916908373ffffffffffffffffffffffffffffffffffffffff16021790555060a0820151816005015560c08201518160060160006101000a81548160ff0219169083151502179055509050507fd7385c5e159a93070ed4c329b34fd6609ea6f7c60a06232e24681d57828cf8da816040516108e59190612bf6565b60405180910390a150505050505050565b60106020528060005260406000206000915090505481565b600d602052816000526040600020818154811061092a57600080fd5b90600052602060002001600091509150505481565b826006600082815260200190815260200160002060009054906101000a900473ffffffffffffffffffffffffffffffffffffffff1673ffffffffffffffffffffffffffffffffffffffff163373ffffffffffffffffffffffffffffffffffffffff16146109e1576040517f08c379a00000000000000000000000000000000000000000000000000000000081526004016109d890612bd6565b60405180910390fd5b6006600082815260200190815260200160002060006101000a81549073ffffffffffffffffffffffffffffffffffffffff0219169055807f7cc135e0cebb02c3480ae5d74d377283180a2601f8f644edf7987b009316c63a60405160405180910390a26000600f60008681526020019081526020016000206040518060e0016040529081600082018054610a749061312a565b80601f0160208091040260200160405190810160405280929190818152602001828054610aa09061312a565b8015610aed5780601f10610ac257610100808354040283529160200191610aed565b820191906000526020600020905b815481529060010190602001808311610ad057829003601f168201915b505050505081526020016001820154815260200160028201548152602001600382015481526020016004820160009054906101000a900473ffffffffffffffffffffffffffffffffffffffff1673ffffffffffffffffffffffffffffffffffffffff1673ffffffffffffffffffffffffffffffffffffffff168152602001600582015481526020016006820160009054906101000a900460ff161515151581525050905060018160c0019015159081151581525050610bac600a6117ac565b6000610bb8600a6117c2565b90506000600d60003373ffffffffffffffffffffffffffffffffffffffff1673ffffffffffffffffffffffffffffffffffffffff1681526020019081526020016000209050808290806001815401808255809150506001900390600052602060002001600090919091909150558260a00151601060003373ffffffffffffffffffffffffffffffffffffffff1673ffffffffffffffffffffffffffffffffffffffff1681526020019081526020016000206000828254610c789190612ddf565b925050819055506000604051806101600160405280848152602001878152602001856000015181526020018881526020018560200151815260200185604001518152602001856080015173ffffffffffffffffffffffffffffffffffffffff1681526020018560a00151815260200160001515815260200160001515815260200160001515815250905080600c600085815260200190815260200160002060008201518160000155602082015181600101556040820151816002019080519060200190610d4692919061207f565b50606082015181600301556080820151816004015560a0820151816005015560c08201518160060160006101000a81548173ffffffffffffffffffffffffffffffffffffffff021916908373ffffffffffffffffffffffffffffffffffffffff16021790555060e082015181600701556101008201518160080160006101000a81548160ff0219169083151502179055506101208201518160080160016101000a81548160ff0219169083151502179055506101408201518160080160026101000a81548160ff0219169083151502179055509050507fb0aff7fe8a4c7453c85cf2def66b23d407073d53655b0aa0782d08d06714801c81604051610e4b9190612c18565b60405180910390a15050505050505050565b6000610e9e6040518060400160405280600f81526020017f54413a205265636569766564202573000000000000000000000000000000000081525083611710565b6000610eb4600854306388a997bf60e01b6117d0565b9050610f006040518060400160405280600881526020017f757365726e616d6500000000000000000000000000000000000000000000000081525084836118019092919063ffffffff16565b610f7f6040518060400160405280600681526020017f6d6574686f6400000000000000000000000000000000000000000000000000008152506040518060400160405280600f81526020017f6c61746573745f74776565745f74730000000000000000000000000000000000815250836118019092919063ffffffff16565b610fd86040518060400160405280600681526020017f757365726964000000000000000000000000000000000000000000000000000081525060405180602001604052806000815250836118019092919063ffffffff16565b6110316040518060400160405280600781526020017f756e69785f74730000000000000000000000000000000000000000000000000081525060405180602001604052806000815250836118019092919063ffffffff16565b6000611061600760009054906101000a900473ffffffffffffffffffffffffffffffffffffffff16836000611834565b90508092505050919050565b60006110ae6040518060400160405280600f81526020017f54413a205265636569766564202573000000000000000000000000000000000081525084611710565b60006110c4600854306388a997bf60e01b6117d0565b90506111106040518060400160405280600881526020017f757365726e616d6500000000000000000000000000000000000000000000000081525085836118019092919063ffffffff16565b61118f6040518060400160405280600681526020017f6d6574686f6400000000000000000000000000000000000000000000000000008152506040518060400160405280600e81526020017f6c696b65735f73696e63655f7473000000000000000000000000000000000000815250836118019092919063ffffffff16565b6111e86040518060400160405280600681526020017f757365726964000000000000000000000000000000000000000000000000000081525060405180602001604052806000815250836118019092919063ffffffff16565b6112326040518060400160405280600781526020017f756e69785f74730000000000000000000000000000000000000000000000000081525084836118019092919063ffffffff16565b6000611262600760009054906101000a900473ffffffffffffffffffffffffffffffffffffffff16836000611834565b9050809250505092915050565b600a8060000154905081565b600f60205280600052604060002060009150905080600001805461129e9061312a565b80601f01602080910402602001604051908101604052809291908181526020018280546112ca9061312a565b80156113175780601f106112ec57610100808354040283529160200191611317565b820191906000526020600020905b8154815290600101906020018083116112fa57829003601f168201915b5050505050908060010154908060020154908060030154908060040160009054906101000a900473ffffffffffffffffffffffffffffffffffffffff16908060050154908060060160009054906101000a900460ff16905087565b61137a612009565b6000600d60008473ffffffffffffffffffffffffffffffffffffffff1673ffffffffffffffffffffffffffffffffffffffff16815260200190815260200160002080548060200260200160405190810160405280929190818152602001828054801561140557602002820191906000526020600020905b8154815260200190600101908083116113f1575b50505050509050600c6000826001845161141f9190613000565b815181106114305761142f6132c2565b5b602002602001015181526020019081526020016000206040518061016001604052908160008201548152602001600182015481526020016002820180546114769061312a565b80601f01602080910402602001604051908101604052809291908181526020018280546114a29061312a565b80156114ef5780601f106114c4576101008083540402835291602001916114ef565b820191906000526020600020905b8154815290600101906020018083116114d257829003601f168201915b505050505081526020016003820154815260200160048201548152602001600582015481526020016006820160009054906101000a900473ffffffffffffffffffffffffffffffffffffffff1673ffffffffffffffffffffffffffffffffffffffff1673ffffffffffffffffffffffffffffffffffffffff168152602001600782015481526020016008820160009054906101000a900460ff161515151581526020016008820160019054906101000a900460ff161515151581526020016008820160029054906101000a900460ff161515151581525050915050919050565b600e6020528060005260406000206000915090505481565b600c6020528060005260406000206000915090508060000154908060010154908060020180546116169061312a565b80601f01602080910402602001604051908101604052809291908181526020018280546116429061312a565b801561168f5780601f106116645761010080835404028352916020019161168f565b820191906000526020600020905b81548152906001019060200180831161167257829003601f168201915b5050505050908060030154908060040154908060050154908060060160009054906101000a900473ffffffffffffffffffffffffffffffffffffffff16908060070154908060080160009054906101000a900460ff16908060080160019054906101000a900460ff16908060080160029054906101000a900460ff1690508b565b6117a88282604051602401611726929190612b09565b6040516020818303038152906040527f4b5c4277000000000000000000000000000000000000000000000000000000007bffffffffffffffffffffffffffffffffffffffffffffffffffffffff19166020820180517bffffffffffffffffffffffffffffffffffffffffffffffffffffffff8381831617835250505050611900565b5050565b6001816000016000828254019250508190555050565b600081600001549050919050565b6117d8612105565b6117e0612105565b6117f785858584611929909392919063ffffffff16565b9150509392505050565b6118188284608001516119d990919063ffffffff16565b61182f8184608001516119d990919063ffffffff16565b505050565b60008060055490506001816118499190612ddf565b6005819055506000634042994660e01b60008087600001513089604001518760018c608001516000015160405160240161188a9897969594939291906129ee565b604051602081830303815290604052907bffffffffffffffffffffffffffffffffffffffffffffffffffffffff19166020820180517bffffffffffffffffffffffffffffffffffffffffffffffffffffffff838183161783525050505090506118f5868386846119fe565b925050509392505050565b60008151905060006a636f6e736f6c652e6c6f679050602083016000808483855afa5050505050565b611931612105565b6119418560800151610100611ba2565b508385600001818152505082856020019073ffffffffffffffffffffffffffffffffffffffff16908173ffffffffffffffffffffffffffffffffffffffff16815250508185604001907bffffffffffffffffffffffffffffffffffffffffffffffffffffffff191690817bffffffffffffffffffffffffffffffffffffffffffffffffffffffff191681525050849050949350505050565b6119e68260038351611c0c565b6119f98183611d9190919063ffffffff16565b505050565b60003084604051602001611a139291906129c2565b604051602081830303815290604052805190602001209050846006600083815260200190815260200160002060006101000a81548173ffffffffffffffffffffffffffffffffffffffff021916908373ffffffffffffffffffffffffffffffffffffffff160217905550807fb5e6e01e79f91267dc17b4e6314d5d4d03593d2ceee0fbb452b750bd70ea5af960405160405180910390a2600360009054906101000a900473ffffffffffffffffffffffffffffffffffffffff1673ffffffffffffffffffffffffffffffffffffffff16634000aea08685856040518463ffffffff1660e01b8152600401611b0993929190612a73565b602060405180830381600087803b158015611b2357600080fd5b505af1158015611b37573d6000803e3d6000fd5b505050506040513d601f19601f82011682018060405250810190611b5b91906122da565b611b9a576040517f08c379a0000000000000000000000000000000000000000000000000000000008152600401611b9190612bb6565b60405180910390fd5b949350505050565b611baa612172565b6000602083611bb99190613204565b14611be557602082611bcb9190613204565b6020611bd79190613000565b82611be29190612ddf565b91505b81836020018181525050604051808452600081528281016020016040525082905092915050565b60178167ffffffffffffffff1611611c4357611c3d8160058460ff16901b60ff161784611db390919063ffffffff16565b50611d8c565b60ff8167ffffffffffffffff1611611c9957611c72601860058460ff16901b1784611db390919063ffffffff16565b50611c938167ffffffffffffffff16600185611dd39092919063ffffffff16565b50611d8b565b61ffff8167ffffffffffffffff1611611cf057611cc9601960058460ff16901b1784611db390919063ffffffff16565b50611cea8167ffffffffffffffff16600285611dd39092919063ffffffff16565b50611d8a565b63ffffffff8167ffffffffffffffff1611611d4957611d22601a60058460ff16901b1784611db390919063ffffffff16565b50611d438167ffffffffffffffff16600485611dd39092919063ffffffff16565b50611d89565b611d66601b60058460ff16901b1784611db390919063ffffffff16565b50611d878167ffffffffffffffff16600885611dd39092919063ffffffff16565b505b5b5b5b505050565b611d99612172565b611dab83846000015151848551611df5565b905092915050565b611dbb612172565b611dcb8384600001515184611ee4565b905092915050565b611ddb612172565b611dec848560000151518585611f3b565b90509392505050565b611dfd612172565b8251821115611e0b57600080fd5b84602001518285611e1c9190612ddf565b1115611e5157611e50856002611e4188602001518887611e3c9190612ddf565b611fc9565b611e4b9190612fa6565b611fe5565b5b600080865180518760208301019350808887011115611e705787860182525b60208701925050505b60208410611eb75780518252602082611e929190612ddf565b9150602081611ea19190612ddf565b9050602084611eb09190613000565b9350611e79565b60006001856020036101000a03905080198251168184511681811785525050508692505050949350505050565b611eec612172565b83602001518310611f1257611f118460028660200151611f0c9190612fa6565b611fe5565b5b8351805160208583010184815381861415611f2e576001820183525b5050508390509392505050565b611f43612172565b84602001518483611f549190612ddf565b1115611f7c57611f7b8560028685611f6c9190612ddf565b611f769190612fa6565b611fe5565b5b6000600183610100611f8e9190612e88565b611f989190613000565b90508551838682010185831982511617815281518588011115611fbb5784870182525b505085915050949350505050565b600081831115611fdb57829050611fdf565b8190505b92915050565b600082600001519050611ff88383611ba2565b506120038382611d91565b50505050565b604051806101600160405280600081526020016000815260200160608152602001600081526020016000815260200160008152602001600073ffffffffffffffffffffffffffffffffffffffff168152602001600081526020016000151581526020016000151581526020016000151581525090565b82805461208b9061312a565b90600052602060002090601f0160209004810192826120ad57600085556120f4565b82601f106120c657805160ff19168380011785556120f4565b828001600101855582156120f4579182015b828111156120f35782518255916020019190600101906120d8565b5b509050612101919061218c565b5090565b6040518060a0016040528060008019168152602001600073ffffffffffffffffffffffffffffffffffffffff16815260200160007bffffffffffffffffffffffffffffffffffffffffffffffffffffffff191681526020016000815260200161216c612172565b81525090565b604051806040016040528060608152602001600081525090565b5b808211156121a557600081600090555060010161218d565b5090565b60006121bc6121b784612d2c565b612d07565b9050828152602081018484840111156121d8576121d7613325565b5b6121e38482856130e8565b509392505050565b6000813590506121fa816133fd565b92915050565b60008151905061220f81613414565b92915050565b6000813590506122248161342b565b92915050565b600082601f83011261223f5761223e613320565b5b813561224f8482602086016121a9565b91505092915050565b60008135905061226781613442565b92915050565b6000602082840312156122835761228261332f565b5b6000612291848285016121eb565b91505092915050565b600080604083850312156122b1576122b061332f565b5b60006122bf858286016121eb565b92505060206122d085828601612258565b9150509250929050565b6000602082840312156122f0576122ef61332f565b5b60006122fe84828501612200565b91505092915050565b60006020828403121561231d5761231c61332f565b5b600061232b84828501612215565b91505092915050565b60008060006060848603121561234d5761234c61332f565b5b600061235b86828701612215565b935050602061236c86828701612258565b925050604061237d86828701612258565b9150509250925092565b60006020828403121561239d5761239c61332f565b5b600082013567ffffffffffffffff8111156123bb576123ba61332a565b5b6123c78482850161222a565b91505092915050565b600080604083850312156123e7576123e661332f565b5b600083013567ffffffffffffffff8111156124055761240461332a565b5b6124118582860161222a565b925050602083013567ffffffffffffffff8111156124325761243161332a565b5b61243e8582860161222a565b9150509250929050565b600080600080600060a086880312156124645761246361332f565b5b600086013567ffffffffffffffff8111156124825761248161332a565b5b61248e8882890161222a565b955050602061249f88828901612258565b945050604086013567ffffffffffffffff8111156124c0576124bf61332a565b5b6124cc8882890161222a565b93505060606124dd88828901612258565b92505060806124ee88828901612258565b9150509295509295909350565b6000602082840312156125115761251061332f565b5b600061251f84828501612258565b91505092915050565b600061253483836127af565b905092915050565b61254581613034565b82525050565b61255481613034565b82525050565b600061256582612d6d565b61256f8185612d9b565b93508360208202850161258185612d5d565b8060005b858110156125bd578484038952815161259e8582612528565b94506125a983612d8e565b925060208a01995050600181019050612585565b50829750879550505050505092915050565b6125d881613046565b82525050565b6125e781613046565b82525050565b6125f681613052565b82525050565b6126058161305c565b82525050565b600061261682612d78565b6126208185612dac565b93506126308185602086016130f7565b61263981613334565b840191505092915050565b612655612650826130b2565b6131d6565b82525050565b600061266682612d83565b6126708185612dbd565b93506126808185602086016130f7565b61268981613334565b840191505092915050565b600061269f82612d83565b6126a98185612dce565b93506126b98185602086016130f7565b6126c281613334565b840191505092915050565b60006126da602383612dce565b91506126e58261335f565b604082019050919050565b60006126fd602883612dce565b9150612708826133ae565b604082019050919050565b600060e0830160008301518482036000860152612730828261265b565b9150506020830151612745602086018261298d565b506040830151612758604086018261298d565b50606083015161276b606086018261298d565b50608083015161277e608086018261253c565b5060a083015161279160a086018261298d565b5060c08301516127a460c08601826125cf565b508091505092915050565b6000610160830160008301516127c8600086018261298d565b5060208301516127db602086018261298d565b50604083015184820360408601526127f3828261265b565b9150506060830151612808606086018261298d565b50608083015161281b608086018261298d565b5060a083015161282e60a086018261298d565b5060c083015161284160c086018261253c565b5060e083015161285460e086018261298d565b506101008301516128696101008601826125cf565b5061012083015161287e6101208601826125cf565b506101408301516128936101408601826125cf565b508091505092915050565b6000610160830160008301516128b7600086018261298d565b5060208301516128ca602086018261298d565b50604083015184820360408601526128e2828261265b565b91505060608301516128f7606086018261298d565b50608083015161290a608086018261298d565b5060a083015161291d60a086018261298d565b5060c083015161293060c086018261253c565b5060e083015161294360e086018261298d565b506101008301516129586101008601826125cf565b5061012083015161296d6101208601826125cf565b506101408301516129826101408601826125cf565b508091505092915050565b612996816130a8565b82525050565b6129a5816130a8565b82525050565b6129bc6129b7826130a8565b6131fa565b82525050565b60006129ce8285612644565b6014820191506129de82846129ab565b6020820191508190509392505050565b600061010082019050612a04600083018b61254b565b612a11602083018a61299c565b612a1e60408301896125ed565b612a2b606083018861254b565b612a3860808301876125fc565b612a4560a083018661299c565b612a5260c083018561299c565b81810360e0830152612a64818461260b565b90509998505050505050505050565b6000606082019050612a88600083018661254b565b612a95602083018561299c565b8181036040830152612aa7818461260b565b9050949350505050565b60006020820190508181036000830152612acb818461255a565b905092915050565b6000602082019050612ae860008301846125de565b92915050565b6000602082019050612b0360008301846125ed565b92915050565b60006040820190508181036000830152612b238185612694565b90508181036020830152612b378184612694565b90509392505050565b600060e0820190508181036000830152612b5a818a612694565b9050612b69602083018961299c565b612b76604083018861299c565b612b83606083018761299c565b612b90608083018661254b565b612b9d60a083018561299c565b612baa60c08301846125de565b98975050505050505050565b60006020820190508181036000830152612bcf816126cd565b9050919050565b60006020820190508181036000830152612bef816126f0565b9050919050565b60006020820190508181036000830152612c108184612713565b905092915050565b60006020820190508181036000830152612c32818461289e565b905092915050565b6000602082019050612c4f600083018461299c565b92915050565b600061016082019050612c6b600083018e61299c565b612c78602083018d61299c565b8181036040830152612c8a818c612694565b9050612c99606083018b61299c565b612ca6608083018a61299c565b612cb360a083018961299c565b612cc060c083018861254b565b612ccd60e083018761299c565b612cdb6101008301866125de565b612ce96101208301856125de565b612cf76101408301846125de565b9c9b505050505050505050505050565b6000612d11612d22565b9050612d1d828261315c565b919050565b6000604051905090565b600067ffffffffffffffff821115612d4757612d466132f1565b5b612d5082613334565b9050602081019050919050565b6000819050602082019050919050565b600081519050919050565b600081519050919050565b600081519050919050565b6000602082019050919050565b600082825260208201905092915050565b600082825260208201905092915050565b600082825260208201905092915050565b600082825260208201905092915050565b6000612dea826130a8565b9150612df5836130a8565b9250827fffffffffffffffffffffffffffffffffffffffffffffffffffffffffffffffff03821115612e2a57612e29613235565b5b828201905092915050565b6000808291508390505b6001851115612e7f57808604811115612e5b57612e5a613235565b5b6001851615612e6a5780820291505b8081029050612e7885613352565b9450612e3f565b94509492505050565b6000612e93826130a8565b9150612e9e836130a8565b9250612ecb7fffffffffffffffffffffffffffffffffffffffffffffffffffffffffffffffff8484612ed3565b905092915050565b600082612ee35760019050612f9f565b81612ef15760009050612f9f565b8160018114612f075760028114612f1157612f40565b6001915050612f9f565b60ff841115612f2357612f22613235565b5b8360020a915084821115612f3a57612f39613235565b5b50612f9f565b5060208310610133831016604e8410600b8410161715612f755782820a905083811115612f7057612f6f613235565b5b612f9f565b612f828484846001612e35565b92509050818404811115612f9957612f98613235565b5b81810290505b9392505050565b6000612fb1826130a8565b9150612fbc836130a8565b9250817fffffffffffffffffffffffffffffffffffffffffffffffffffffffffffffffff0483118215151615612ff557612ff4613235565b5b828202905092915050565b600061300b826130a8565b9150613016836130a8565b92508282101561302957613028613235565b5b828203905092915050565b600061303f82613088565b9050919050565b60008115159050919050565b6000819050919050565b60007fffffffff0000000000000000000000000000000000000000000000000000000082169050919050565b600073ffffffffffffffffffffffffffffffffffffffff82169050919050565b6000819050919050565b60006130bd826130c4565b9050919050565b60006130cf826130d6565b9050919050565b60006130e182613088565b9050919050565b82818337600083830152505050565b60005b838110156131155780820151818401526020810190506130fa565b83811115613124576000848401525b50505050565b6000600282049050600182168061314257607f821691505b6020821081141561315657613155613293565b5b50919050565b61316582613334565b810181811067ffffffffffffffff82111715613184576131836132f1565b5b80604052505050565b6000613198826130a8565b91507fffffffffffffffffffffffffffffffffffffffffffffffffffffffffffffffff8214156131cb576131ca613235565b5b600182019050919050565b60006131e1826131e8565b9050919050565b60006131f382613345565b9050919050565b6000819050919050565b600061320f826130a8565b915061321a836130a8565b92508261322a57613229613264565b5b828206905092915050565b7f4e487b7100000000000000000000000000000000000000000000000000000000600052601160045260246000fd5b7f4e487b7100000000000000000000000000000000000000000000000000000000600052601260045260246000fd5b7f4e487b7100000000000000000000000000000000000000000000000000000000600052602260045260246000fd5b7f4e487b7100000000000000000000000000000000000000000000000000000000600052603260045260246000fd5b7f4e487b7100000000000000000000000000000000000000000000000000000000600052604160045260246000fd5b600080fd5b600080fd5b600080fd5b600080fd5b6000601f19601f8301169050919050565b60008160601b9050919050565b60008160011c9050919050565b7f756e61626c6520746f207472616e73666572416e6443616c6c20746f206f726160008201527f636c650000000000000000000000000000000000000000000000000000000000602082015250565b7f536f75726365206d75737420626520746865206f7261636c65206f662074686560008201527f2072657175657374000000000000000000000000000000000000000000000000602082015250565b61340681613034565b811461341157600080fd5b50565b61341d81613046565b811461342857600080fd5b50565b61343481613052565b811461343f57600080fd5b50565b61344b816130a8565b811461345657600080fd5b5056fea26469706673582212200a088fa916809e1a0ff93d19826fd18f6418419736e2d518307287c71008802e64736f6c63430008070033",
  "devdoc": {
    "kind": "dev",
    "methods": {},
    "version": 1
  },
  "userdoc": {
    "kind": "user",
    "methods": {},
    "version": 1
  },
  "storageLayout": {
    "storage": [
      {
        "astId": 2384,
        "contract": "contracts/GoalContractV1.sol:GoalContractV1",
        "label": "_status",
        "offset": 0,
        "slot": "0",
        "type": "t_uint256"
      },
      {
        "astId": 319,
        "contract": "contracts/GoalContractV1.sol:GoalContractV1",
        "label": "s_ens",
        "offset": 0,
        "slot": "1",
        "type": "t_contract(ENSInterface)1156"
      },
      {
        "astId": 321,
        "contract": "contracts/GoalContractV1.sol:GoalContractV1",
        "label": "s_ensNode",
        "offset": 0,
        "slot": "2",
        "type": "t_bytes32"
      },
      {
        "astId": 324,
        "contract": "contracts/GoalContractV1.sol:GoalContractV1",
        "label": "s_link",
        "offset": 0,
        "slot": "3",
        "type": "t_contract(LinkTokenInterface)1251"
      },
      {
        "astId": 327,
        "contract": "contracts/GoalContractV1.sol:GoalContractV1",
        "label": "s_oracle",
        "offset": 0,
        "slot": "4",
        "type": "t_contract(OperatorInterface)1331"
      },
      {
        "astId": 330,
        "contract": "contracts/GoalContractV1.sol:GoalContractV1",
        "label": "s_requestCount",
        "offset": 0,
        "slot": "5",
        "type": "t_uint256"
      },
      {
        "astId": 334,
        "contract": "contracts/GoalContractV1.sol:GoalContractV1",
        "label": "s_pendingRequests",
        "offset": 0,
        "slot": "6",
        "type": "t_mapping(t_bytes32,t_address)"
      },
      {
        "astId": 2505,
        "contract": "contracts/GoalContractV1.sol:GoalContractV1",
        "label": "oracle",
        "offset": 0,
        "slot": "7",
        "type": "t_address"
      },
      {
        "astId": 2507,
        "contract": "contracts/GoalContractV1.sol:GoalContractV1",
        "label": "jobId",
        "offset": 0,
        "slot": "8",
        "type": "t_bytes32"
      },
      {
        "astId": 2509,
        "contract": "contracts/GoalContractV1.sol:GoalContractV1",
        "label": "fee",
        "offset": 0,
        "slot": "9",
        "type": "t_uint256"
      },
      {
        "astId": 2703,
        "contract": "contracts/GoalContractV1.sol:GoalContractV1",
        "label": "goalIds",
        "offset": 0,
        "slot": "10",
        "type": "t_struct(Counter)2419_storage"
      },
      {
        "astId": 2706,
        "contract": "contracts/GoalContractV1.sol:GoalContractV1",
        "label": "goalsAchieved",
        "offset": 0,
        "slot": "11",
        "type": "t_struct(Counter)2419_storage"
      },
      {
        "astId": 2749,
        "contract": "contracts/GoalContractV1.sol:GoalContractV1",
        "label": "idToGoal",
        "offset": 0,
        "slot": "12",
        "type": "t_mapping(t_uint256,t_struct(Goal)2729_storage)"
      },
      {
        "astId": 2754,
        "contract": "contracts/GoalContractV1.sol:GoalContractV1",
        "label": "userToGoalIds",
        "offset": 0,
        "slot": "13",
        "type": "t_mapping(t_address,t_array(t_uint256)dyn_storage)"
      },
      {
        "astId": 2758,
        "contract": "contracts/GoalContractV1.sol:GoalContractV1",
        "label": "userToLastReqId",
        "offset": 0,
        "slot": "14",
        "type": "t_mapping(t_address,t_bytes32)"
      },
      {
        "astId": 2763,
        "contract": "contracts/GoalContractV1.sol:GoalContractV1",
        "label": "requestIdToGoalRequest",
        "offset": 0,
        "slot": "15",
        "type": "t_mapping(t_bytes32,t_struct(GoalRequest)2744_storage)"
      },
      {
        "astId": 2767,
        "contract": "contracts/GoalContractV1.sol:GoalContractV1",
        "label": "amountLockedByAddress",
        "offset": 0,
        "slot": "16",
        "type": "t_mapping(t_address,t_uint256)"
      }
    ],
    "types": {
      "t_address": {
        "encoding": "inplace",
        "label": "address",
        "numberOfBytes": "20"
      },
      "t_array(t_uint256)dyn_storage": {
        "base": "t_uint256",
        "encoding": "dynamic_array",
        "label": "uint256[]",
        "numberOfBytes": "32"
      },
      "t_bool": {
        "encoding": "inplace",
        "label": "bool",
        "numberOfBytes": "1"
      },
      "t_bytes32": {
        "encoding": "inplace",
        "label": "bytes32",
        "numberOfBytes": "32"
      },
      "t_contract(ENSInterface)1156": {
        "encoding": "inplace",
        "label": "contract ENSInterface",
        "numberOfBytes": "20"
      },
      "t_contract(LinkTokenInterface)1251": {
        "encoding": "inplace",
        "label": "contract LinkTokenInterface",
        "numberOfBytes": "20"
      },
      "t_contract(OperatorInterface)1331": {
        "encoding": "inplace",
        "label": "contract OperatorInterface",
        "numberOfBytes": "20"
      },
      "t_mapping(t_address,t_array(t_uint256)dyn_storage)": {
        "encoding": "mapping",
        "key": "t_address",
        "label": "mapping(address => uint256[])",
        "numberOfBytes": "32",
        "value": "t_array(t_uint256)dyn_storage"
      },
      "t_mapping(t_address,t_bytes32)": {
        "encoding": "mapping",
        "key": "t_address",
        "label": "mapping(address => bytes32)",
        "numberOfBytes": "32",
        "value": "t_bytes32"
      },
      "t_mapping(t_address,t_uint256)": {
        "encoding": "mapping",
        "key": "t_address",
        "label": "mapping(address => uint256)",
        "numberOfBytes": "32",
        "value": "t_uint256"
      },
      "t_mapping(t_bytes32,t_address)": {
        "encoding": "mapping",
        "key": "t_bytes32",
        "label": "mapping(bytes32 => address)",
        "numberOfBytes": "32",
        "value": "t_address"
      },
      "t_mapping(t_bytes32,t_struct(GoalRequest)2744_storage)": {
        "encoding": "mapping",
        "key": "t_bytes32",
        "label": "mapping(bytes32 => struct GoalContractV1.GoalRequest)",
        "numberOfBytes": "32",
        "value": "t_struct(GoalRequest)2744_storage"
      },
      "t_mapping(t_uint256,t_struct(Goal)2729_storage)": {
        "encoding": "mapping",
        "key": "t_uint256",
        "label": "mapping(uint256 => struct GoalContractV1.Goal)",
        "numberOfBytes": "32",
        "value": "t_struct(Goal)2729_storage"
      },
      "t_string_storage": {
        "encoding": "bytes",
        "label": "string",
        "numberOfBytes": "32"
      },
      "t_struct(Counter)2419_storage": {
        "encoding": "inplace",
        "label": "struct Counters.Counter",
        "members": [
          {
            "astId": 2418,
            "contract": "contracts/GoalContractV1.sol:GoalContractV1",
            "label": "_value",
            "offset": 0,
            "slot": "0",
            "type": "t_uint256"
          }
        ],
        "numberOfBytes": "32"
      },
      "t_struct(Goal)2729_storage": {
        "encoding": "inplace",
        "label": "struct GoalContractV1.Goal",
        "members": [
          {
            "astId": 2708,
            "contract": "contracts/GoalContractV1.sol:GoalContractV1",
            "label": "goalId",
            "offset": 0,
            "slot": "0",
            "type": "t_uint256"
          },
          {
            "astId": 2710,
            "contract": "contracts/GoalContractV1.sol:GoalContractV1",
            "label": "username",
            "offset": 0,
            "slot": "1",
            "type": "t_uint256"
          },
          {
            "astId": 2712,
            "contract": "contracts/GoalContractV1.sol:GoalContractV1",
            "label": "goal",
            "offset": 0,
            "slot": "2",
            "type": "t_string_storage"
          },
          {
            "astId": 2714,
            "contract": "contracts/GoalContractV1.sol:GoalContractV1",
            "label": "target",
            "offset": 0,
            "slot": "3",
            "type": "t_uint256"
          },
          {
            "astId": 2716,
            "contract": "contracts/GoalContractV1.sol:GoalContractV1",
            "label": "startDate",
            "offset": 0,
            "slot": "4",
            "type": "t_uint256"
          },
          {
            "astId": 2718,
            "contract": "contracts/GoalContractV1.sol:GoalContractV1",
            "label": "endDate",
            "offset": 0,
            "slot": "5",
            "type": "t_uint256"
          },
          {
            "astId": 2720,
            "contract": "contracts/GoalContractV1.sol:GoalContractV1",
            "label": "goalOwnerAddress",
            "offset": 0,
            "slot": "6",
            "type": "t_address"
          },
          {
            "astId": 2722,
            "contract": "contracts/GoalContractV1.sol:GoalContractV1",
            "label": "amountPledged",
            "offset": 0,
            "slot": "7",
            "type": "t_uint256"
          },
          {
            "astId": 2724,
            "contract": "contracts/GoalContractV1.sol:GoalContractV1",
            "label": "achieved",
            "offset": 0,
            "slot": "8",
            "type": "t_bool"
          },
          {
            "astId": 2726,
            "contract": "contracts/GoalContractV1.sol:GoalContractV1",
            "label": "withdrawn",
            "offset": 1,
            "slot": "8",
            "type": "t_bool"
          },
          {
            "astId": 2728,
            "contract": "contracts/GoalContractV1.sol:GoalContractV1",
            "label": "ended",
            "offset": 2,
            "slot": "8",
            "type": "t_bool"
          }
        ],
        "numberOfBytes": "288"
      },
      "t_struct(GoalRequest)2744_storage": {
        "encoding": "inplace",
        "label": "struct GoalContractV1.GoalRequest",
        "members": [
          {
            "astId": 2731,
            "contract": "contracts/GoalContractV1.sol:GoalContractV1",
            "label": "goal",
            "offset": 0,
            "slot": "0",
            "type": "t_string_storage"
          },
          {
            "astId": 2733,
            "contract": "contracts/GoalContractV1.sol:GoalContractV1",
            "label": "startDate",
            "offset": 0,
            "slot": "1",
            "type": "t_uint256"
          },
          {
            "astId": 2735,
            "contract": "contracts/GoalContractV1.sol:GoalContractV1",
            "label": "endDate",
            "offset": 0,
            "slot": "2",
            "type": "t_uint256"
          },
          {
            "astId": 2737,
            "contract": "contracts/GoalContractV1.sol:GoalContractV1",
            "label": "target",
            "offset": 0,
            "slot": "3",
            "type": "t_uint256"
          },
          {
            "astId": 2739,
            "contract": "contracts/GoalContractV1.sol:GoalContractV1",
            "label": "goalOwnerAddress",
            "offset": 0,
            "slot": "4",
            "type": "t_address"
          },
          {
            "astId": 2741,
            "contract": "contracts/GoalContractV1.sol:GoalContractV1",
            "label": "amountPledged",
            "offset": 0,
            "slot": "5",
            "type": "t_uint256"
          },
          {
            "astId": 2743,
            "contract": "contracts/GoalContractV1.sol:GoalContractV1",
            "label": "fulfilled",
            "offset": 0,
            "slot": "6",
            "type": "t_bool"
          }
        ],
        "numberOfBytes": "224"
      },
      "t_uint256": {
        "encoding": "inplace",
        "label": "uint256",
        "numberOfBytes": "32"
      }
    }
  }
}