{
  "address": "0x4cB2478CA99C46c0EA1226e066639d416e7F6fbe",
  "abi": [
    {
      "inputs": [
        {
          "internalType": "address",
          "name": "_linkTokenAddr",
          "type": "address"
        },
        {
          "internalType": "address",
          "name": "_oralcleAddr",
          "type": "address"
        }
      ],
      "stateMutability": "payable",
      "type": "constructor"
    },
    {
      "anonymous": false,
      "inputs": [
        {
          "indexed": true,
          "internalType": "bytes32",
          "name": "id",
          "type": "bytes32"
        }
      ],
      "name": "ChainlinkCancelled",
      "type": "event"
    },
    {
      "anonymous": false,
      "inputs": [
        {
          "indexed": true,
          "internalType": "bytes32",
          "name": "id",
          "type": "bytes32"
        }
      ],
      "name": "ChainlinkFulfilled",
      "type": "event"
    },
    {
      "anonymous": false,
      "inputs": [
        {
          "indexed": true,
          "internalType": "bytes32",
          "name": "id",
          "type": "bytes32"
        }
      ],
      "name": "ChainlinkRequested",
      "type": "event"
    },
    {
      "anonymous": false,
      "inputs": [
        {
          "components": [
            {
              "internalType": "uint256",
              "name": "goalId",
              "type": "uint256"
            },
            {
              "internalType": "uint256",
              "name": "userId",
              "type": "uint256"
            },
            {
              "internalType": "string",
              "name": "goalName",
              "type": "string"
            },
            {
              "internalType": "uint256",
              "name": "metric",
              "type": "uint256"
            },
            {
              "internalType": "uint256",
              "name": "deadline",
              "type": "uint256"
            },
            {
              "internalType": "address",
              "name": "goalOwnerAddress",
              "type": "address"
            },
            {
              "internalType": "uint256",
              "name": "amountPledged",
              "type": "uint256"
            },
            {
              "internalType": "bool",
              "name": "achieved",
              "type": "bool"
            },
            {
              "internalType": "bool",
              "name": "withdrawn",
              "type": "bool"
            },
            {
              "internalType": "bool",
              "name": "ended",
              "type": "bool"
            }
          ],
          "indexed": false,
          "internalType": "struct GoalContract.Goal",
          "name": "goal",
          "type": "tuple"
        }
      ],
      "name": "GoalCreated",
      "type": "event"
    },
    {
      "anonymous": false,
      "inputs": [
        {
          "indexed": false,
          "internalType": "uint256",
          "name": "goalId",
          "type": "uint256"
        },
        {
          "indexed": false,
          "internalType": "string",
          "name": "goal",
          "type": "string"
        },
        {
          "indexed": false,
          "internalType": "address",
          "name": "goalOwnerAddress",
          "type": "address"
        },
        {
          "indexed": false,
          "internalType": "bool",
          "name": "achieved",
          "type": "bool"
        }
      ],
      "name": "GoalEvaluated",
      "type": "event"
    },
    {
      "anonymous": false,
      "inputs": [
        {
          "indexed": false,
          "internalType": "uint256",
          "name": "goalId",
          "type": "uint256"
        },
        {
          "indexed": false,
          "internalType": "string",
          "name": "goal",
          "type": "string"
        },
        {
          "indexed": false,
          "internalType": "address",
          "name": "goalOwnerAddress",
          "type": "address"
        },
        {
          "indexed": false,
          "internalType": "uint256",
          "name": "amountPledged",
          "type": "uint256"
        }
      ],
      "name": "PledgedAmountWithdrawn",
      "type": "event"
    },
    {
      "stateMutability": "payable",
      "type": "fallback"
    },
    {
      "inputs": [
        {
          "internalType": "address",
          "name": "",
          "type": "address"
        }
      ],
      "name": "amountLockedByAddress",
      "outputs": [
        {
          "internalType": "uint256",
          "name": "",
          "type": "uint256"
        }
      ],
      "stateMutability": "view",
      "type": "function"
    },
    {
      "inputs": [
        {
          "internalType": "string",
          "name": "goalName",
          "type": "string"
        },
        {
          "internalType": "string",
          "name": "username",
          "type": "string"
        },
        {
          "internalType": "uint256",
          "name": "deadlineInDays",
          "type": "uint256"
        }
      ],
      "name": "createGoal",
      "outputs": [],
      "stateMutability": "payable",
      "type": "function"
    },
    {
      "inputs": [
        {
          "internalType": "bytes32",
          "name": "_requestId",
          "type": "bytes32"
        },
        {
          "internalType": "uint256",
          "name": "_payload",
          "type": "uint256"
        },
        {
          "internalType": "uint256",
          "name": "_userId",
          "type": "uint256"
        }
      ],
      "name": "fulfill",
      "outputs": [],
      "stateMutability": "nonpayable",
      "type": "function"
    },
    {
      "inputs": [
        {
          "internalType": "address",
          "name": "userAddr",
          "type": "address"
        }
      ],
      "name": "getLastUserGoal",
      "outputs": [
        {
          "components": [
            {
              "internalType": "uint256",
              "name": "goalId",
              "type": "uint256"
            },
            {
              "internalType": "uint256",
              "name": "userId",
              "type": "uint256"
            },
            {
              "internalType": "string",
              "name": "goalName",
              "type": "string"
            },
            {
              "internalType": "uint256",
              "name": "metric",
              "type": "uint256"
            },
            {
              "internalType": "uint256",
              "name": "deadline",
              "type": "uint256"
            },
            {
              "internalType": "address",
              "name": "goalOwnerAddress",
              "type": "address"
            },
            {
              "internalType": "uint256",
              "name": "amountPledged",
              "type": "uint256"
            },
            {
              "internalType": "bool",
              "name": "achieved",
              "type": "bool"
            },
            {
              "internalType": "bool",
              "name": "withdrawn",
              "type": "bool"
            },
            {
              "internalType": "bool",
              "name": "ended",
              "type": "bool"
            }
          ],
          "internalType": "struct GoalContract.Goal",
          "name": "",
          "type": "tuple"
        }
      ],
      "stateMutability": "view",
      "type": "function"
    },
    {
      "inputs": [
        {
          "internalType": "address",
          "name": "userAddr",
          "type": "address"
        }
      ],
      "name": "getUserGoals",
      "outputs": [
        {
          "components": [
            {
              "internalType": "uint256",
              "name": "goalId",
              "type": "uint256"
            },
            {
              "internalType": "uint256",
              "name": "userId",
              "type": "uint256"
            },
            {
              "internalType": "string",
              "name": "goalName",
              "type": "string"
            },
            {
              "internalType": "uint256",
              "name": "metric",
              "type": "uint256"
            },
            {
              "internalType": "uint256",
              "name": "deadline",
              "type": "uint256"
            },
            {
              "internalType": "address",
              "name": "goalOwnerAddress",
              "type": "address"
            },
            {
              "internalType": "uint256",
              "name": "amountPledged",
              "type": "uint256"
            },
            {
              "internalType": "bool",
              "name": "achieved",
              "type": "bool"
            },
            {
              "internalType": "bool",
              "name": "withdrawn",
              "type": "bool"
            },
            {
              "internalType": "bool",
              "name": "ended",
              "type": "bool"
            }
          ],
          "internalType": "struct GoalContract.Goal[]",
          "name": "",
          "type": "tuple[]"
        }
      ],
      "stateMutability": "view",
      "type": "function"
    },
    {
      "inputs": [],
      "name": "goalIds",
      "outputs": [
        {
          "internalType": "uint256",
          "name": "_value",
          "type": "uint256"
        }
      ],
      "stateMutability": "view",
      "type": "function"
    },
    {
      "inputs": [],
      "name": "goalsAchieved",
      "outputs": [
        {
          "internalType": "uint256",
          "name": "_value",
          "type": "uint256"
        }
      ],
      "stateMutability": "view",
      "type": "function"
    },
    {
      "inputs": [
        {
          "internalType": "uint256",
          "name": "",
          "type": "uint256"
        }
      ],
      "name": "idToGoal",
      "outputs": [
        {
          "internalType": "uint256",
          "name": "goalId",
          "type": "uint256"
        },
        {
          "internalType": "uint256",
          "name": "userId",
          "type": "uint256"
        },
        {
          "internalType": "string",
          "name": "goalName",
          "type": "string"
        },
        {
          "internalType": "uint256",
          "name": "metric",
          "type": "uint256"
        },
        {
          "internalType": "uint256",
          "name": "deadline",
          "type": "uint256"
        },
        {
          "internalType": "address",
          "name": "goalOwnerAddress",
          "type": "address"
        },
        {
          "internalType": "uint256",
          "name": "amountPledged",
          "type": "uint256"
        },
        {
          "internalType": "bool",
          "name": "achieved",
          "type": "bool"
        },
        {
          "internalType": "bool",
          "name": "withdrawn",
          "type": "bool"
        },
        {
          "internalType": "bool",
          "name": "ended",
          "type": "bool"
        }
      ],
      "stateMutability": "view",
      "type": "function"
    },
    {
      "inputs": [
        {
          "internalType": "bytes32",
          "name": "",
          "type": "bytes32"
        }
      ],
      "name": "requestIdGoalRequest",
      "outputs": [
        {
          "internalType": "string",
          "name": "goalName",
          "type": "string"
        },
        {
          "internalType": "uint256",
          "name": "deadline",
          "type": "uint256"
        },
        {
          "internalType": "address",
          "name": "goalOwnerAddress",
          "type": "address"
        },
        {
          "internalType": "uint256",
          "name": "amountPledged",
          "type": "uint256"
        },
        {
          "internalType": "bool",
          "name": "fulfilled",
          "type": "bool"
        }
      ],
      "stateMutability": "view",
      "type": "function"
    },
    {
      "inputs": [
        {
          "internalType": "string",
          "name": "username",
          "type": "string"
        }
      ],
      "name": "requestLastUserTweetTs",
      "outputs": [
        {
          "internalType": "bytes32",
          "name": "",
          "type": "bytes32"
        }
      ],
      "stateMutability": "nonpayable",
      "type": "function"
    },
    {
      "inputs": [
        {
          "internalType": "string",
          "name": "_username",
          "type": "string"
        },
        {
          "internalType": "string",
          "name": "_timeStamp",
          "type": "string"
        }
      ],
      "name": "requestLikesSinceTs",
      "outputs": [
        {
          "internalType": "bytes32",
          "name": "",
          "type": "bytes32"
        }
      ],
      "stateMutability": "nonpayable",
      "type": "function"
    },
    {
      "inputs": [
        {
          "internalType": "address",
          "name": "",
          "type": "address"
        }
      ],
      "name": "userLastReqId",
      "outputs": [
        {
          "internalType": "bytes32",
          "name": "",
          "type": "bytes32"
        }
      ],
      "stateMutability": "view",
      "type": "function"
    },
    {
      "inputs": [
        {
          "internalType": "address",
          "name": "",
          "type": "address"
        },
        {
          "internalType": "uint256",
          "name": "",
          "type": "uint256"
        }
      ],
      "name": "usersGoalIds",
      "outputs": [
        {
          "internalType": "uint256",
          "name": "",
          "type": "uint256"
        }
      ],
      "stateMutability": "view",
      "type": "function"
    },
    {
      "stateMutability": "payable",
      "type": "receive"
    }
  ],
  "transactionHash": "0x60845361b8b66c874455cc3b3852d4203cd9606faa7d9af32be2fc6f4eb41b9b",
  "args": [
    "0x26bBa6Ab9A5c174283F310c6Da5C1DBD62064379",
    "0x929103A33a06dde3E26F2b8e13aB01DA3A7b9eb4"
  ],
  "numDeployments": 2,
  "solcInputHash": "4c34ca586574bd28cd17f8e769cf6153",
  "bytecode": "0x60806040526001600555604051620034453803806200344583398181016040528101906200002e919062000116565b818160016000819055506200004982620000bb60201b60201c565b80600760006101000a81548173ffffffffffffffffffffffffffffffffffffffff021916908373ffffffffffffffffffffffffffffffffffffffff1602179055507f326363393236323236613661343937356165343939633837333532356538383160088190555050505050620001b0565b80600360006101000a81548173ffffffffffffffffffffffffffffffffffffffff021916908373ffffffffffffffffffffffffffffffffffffffff16021790555050565b600081519050620001108162000196565b92915050565b6000806040838503121562000130576200012f62000191565b5b60006200014085828601620000ff565b92505060206200015385828601620000ff565b9150509250929050565b60006200016a8262000171565b9050919050565b600073ffffffffffffffffffffffffffffffffffffffff82169050919050565b600080fd5b620001a1816200015d565b8114620001ad57600080fd5b50565b61328580620001c06000396000f3fe6080604052600436106100c65760003560e01c8063954780ba1161007f578063b9fa2c6b11610059578063b9fa2c6b146102b1578063c1ea96d6146102dc578063fc1f22e514610319578063ffcb07b71461035f576100cd565b8063954780ba1461021b578063aedf0a4a14610237578063b44bce3e14610274576100cd565b8063056cc89a146100cf578063320936931461010c57806335742c6314610137578063358ce3611461017457806356b18b32146101b557806388a997bf146101f2576100cd565b366100cd57005b005b3480156100db57600080fd5b506100f660048036038101906100f1919061214d565b61039c565b60405161010391906128e8565b60405180910390f35b34801561011857600080fd5b506101216103b4565b60405161012e9190612a16565b60405180910390f35b34801561014357600080fd5b5061015e6004803603810190610159919061214d565b6103c0565b60405161016b91906128c6565b60405180910390f35b34801561018057600080fd5b5061019b600480360381019061019691906121e7565b610699565b6040516101ac95949392919061293a565b60405180910390f35b3480156101c157600080fd5b506101dc60048036038101906101d7919061214d565b610784565b6040516101e99190612a16565b60405180910390f35b3480156101fe57600080fd5b5061021960048036038101906102149190612214565b61079c565b005b61023560048036038101906102309190612328565b610c91565b005b34801561024357600080fd5b5061025e60048036038101906102599190612267565b610e32565b60405161026b91906128e8565b60405180910390f35b34801561028057600080fd5b5061029b600480360381019061029691906122b0565b611042565b6040516102a891906128e8565b60405180910390f35b3480156102bd57600080fd5b506102c6611244565b6040516102d39190612a16565b60405180910390f35b3480156102e857600080fd5b5061030360048036038101906102fe919061214d565b611250565b60405161031091906129f4565b60405180910390f35b34801561032557600080fd5b50610340600480360381019061033b91906123b3565b6114a3565b6040516103569a99989796959493929190612a31565b60405180910390f35b34801561036b57600080fd5b506103866004803603810190610381919061217a565b6115c6565b6040516103939190612a16565b60405180910390f35b600f6020528060005260406000206000915090505481565b600b8060000154905081565b60606000600d60008473ffffffffffffffffffffffffffffffffffffffff1673ffffffffffffffffffffffffffffffffffffffff16815260200190815260200160002080548060200260200160405190810160405280929190818152602001828054801561044d57602002820191906000526020600020905b815481526020019060010190808311610439575b505050505090506000815167ffffffffffffffff811115610471576104706130be565b5b6040519080825280602002602001820160405280156104aa57816020015b610497611ef0565b81526020019060019003908161048f5790505b50905060005b825181101561068e57600c60008483815181106104d0576104cf61308f565b5b6020026020010151815260200190815260200160002060405180610140016040529081600082015481526020016001820154815260200160028201805461051690612ef7565b80601f016020809104026020016040519081016040528092919081815260200182805461054290612ef7565b801561058f5780601f106105645761010080835404028352916020019161058f565b820191906000526020600020905b81548152906001019060200180831161057257829003601f168201915b5050505050815260200160038201548152602001600482015481526020016005820160009054906101000a900473ffffffffffffffffffffffffffffffffffffffff1673ffffffffffffffffffffffffffffffffffffffff1673ffffffffffffffffffffffffffffffffffffffff168152602001600682015481526020016007820160009054906101000a900460ff161515151581526020016007820160019054906101000a900460ff161515151581526020016007820160029054906101000a900460ff1615151515815250508282815181106106705761066f61308f565b5b6020026020010181905250808061068690612f5a565b9150506104b0565b508092505050919050565b60106020528060005260406000206000915090508060000180546106bc90612ef7565b80601f01602080910402602001604051908101604052809291908181526020018280546106e890612ef7565b80156107355780601f1061070a57610100808354040283529160200191610735565b820191906000526020600020905b81548152906001019060200180831161071857829003601f168201915b5050505050908060010154908060020160009054906101000a900473ffffffffffffffffffffffffffffffffffffffff16908060030154908060040160009054906101000a900460ff16905085565b600e6020528060005260406000206000915090505481565b826006600082815260200190815260200160002060009054906101000a900473ffffffffffffffffffffffffffffffffffffffff1673ffffffffffffffffffffffffffffffffffffffff163373ffffffffffffffffffffffffffffffffffffffff161461083e576040517f08c379a0000000000000000000000000000000000000000000000000000000008152600401610835906129d4565b60405180910390fd5b6006600082815260200190815260200160002060006101000a81549073ffffffffffffffffffffffffffffffffffffffff0219169055807f7cc135e0cebb02c3480ae5d74d377283180a2601f8f644edf7987b009316c63a60405160405180910390a26000601060008681526020019081526020016000206040518060a00160405290816000820180546108d190612ef7565b80601f01602080910402602001604051908101604052809291908181526020018280546108fd90612ef7565b801561094a5780601f1061091f5761010080835404028352916020019161094a565b820191906000526020600020905b81548152906001019060200180831161092d57829003601f168201915b50505050508152602001600182015481526020016002820160009054906101000a900473ffffffffffffffffffffffffffffffffffffffff1673ffffffffffffffffffffffffffffffffffffffff1673ffffffffffffffffffffffffffffffffffffffff168152602001600382015481526020016004820160009054906101000a900460ff161515151581525050905060018160800190151590811515815250506109f5600a6115f7565b6000610a01600a61160d565b90506000600d60003373ffffffffffffffffffffffffffffffffffffffff1673ffffffffffffffffffffffffffffffffffffffff1681526020019081526020016000209050808290806001815401808255809150506001900390600052602060002001600090919091909150558260600151600e60003373ffffffffffffffffffffffffffffffffffffffff1673ffffffffffffffffffffffffffffffffffffffff1681526020019081526020016000206000828254610ac19190612bac565b9250508190555060006040518061014001604052808481526020018781526020018560000151815260200188815260200185602001518152602001856040015173ffffffffffffffffffffffffffffffffffffffff1681526020018560600151815260200160001515815260200160001515815260200160001515815250905080600c600085815260200190815260200160002060008201518160000155602082015181600101556040820151816002019080519060200190610b85929190611f5f565b50606082015181600301556080820151816004015560a08201518160050160006101000a81548173ffffffffffffffffffffffffffffffffffffffff021916908373ffffffffffffffffffffffffffffffffffffffff16021790555060c0820151816006015560e08201518160070160006101000a81548160ff0219169083151502179055506101008201518160070160016101000a81548160ff0219169083151502179055506101208201518160070160026101000a81548160ff0219169083151502179055509050507f0bd994872108645af5e1bfa894baa14bdab9f4ad26b7d7216bfcda944903c04c81604051610c7f91906129f4565b60405180910390a15050505050505050565b60008111610cd4576040517f08c379a0000000000000000000000000000000000000000000000000000000008152600401610ccb906129b4565b60405180910390fd5b6000610cdf83610e32565b905080600f60003373ffffffffffffffffffffffffffffffffffffffff1673ffffffffffffffffffffffffffffffffffffffff168152602001908152602001600020819055506040518060a001604052808581526020016201518084610d459190612d73565b42610d509190612bac565b81526020013373ffffffffffffffffffffffffffffffffffffffff16815260200134815260200160001515815250601060008381526020019081526020016000206000820151816000019080519060200190610dad929190611f5f565b506020820151816001015560408201518160020160006101000a81548173ffffffffffffffffffffffffffffffffffffffff021916908373ffffffffffffffffffffffffffffffffffffffff1602179055506060820151816003015560808201518160040160006101000a81548160ff02191690831515021790555090505050505050565b6000610e736040518060400160405280600f81526020017f54413a20526563656976656420257300000000000000000000000000000000008152508361161b565b6000610e89600854306388a997bf60e01b6116b7565b9050610ed56040518060400160405280600881526020017f757365726e616d6500000000000000000000000000000000000000000000000081525084836116e89092919063ffffffff16565b610f546040518060400160405280600681526020017f6d6574686f6400000000000000000000000000000000000000000000000000008152506040518060400160405280600f81526020017f6c61746573745f74776565745f74730000000000000000000000000000000000815250836116e89092919063ffffffff16565b610fad6040518060400160405280600681526020017f757365726964000000000000000000000000000000000000000000000000000081525060405180602001604052806000815250836116e89092919063ffffffff16565b6110066040518060400160405280600781526020017f756e69785f74730000000000000000000000000000000000000000000000000081525060405180602001604052806000815250836116e89092919063ffffffff16565b6000611036600760009054906101000a900473ffffffffffffffffffffffffffffffffffffffff1683600061171b565b90508092505050919050565b60006110836040518060400160405280600f81526020017f54413a20526563656976656420257300000000000000000000000000000000008152508461161b565b6000611099600854306388a997bf60e01b6116b7565b90506110e56040518060400160405280600881526020017f757365726e616d6500000000000000000000000000000000000000000000000081525085836116e89092919063ffffffff16565b6111646040518060400160405280600681526020017f6d6574686f6400000000000000000000000000000000000000000000000000008152506040518060400160405280600e81526020017f6c696b65735f73696e63655f7473000000000000000000000000000000000000815250836116e89092919063ffffffff16565b6111bd6040518060400160405280600681526020017f757365726964000000000000000000000000000000000000000000000000000081525060405180602001604052806000815250836116e89092919063ffffffff16565b6112076040518060400160405280600781526020017f756e69785f74730000000000000000000000000000000000000000000000000081525084836116e89092919063ffffffff16565b6000611237600760009054906101000a900473ffffffffffffffffffffffffffffffffffffffff1683600061171b565b9050809250505092915050565b600a8060000154905081565b611258611ef0565b6000600d60008473ffffffffffffffffffffffffffffffffffffffff1673ffffffffffffffffffffffffffffffffffffffff1681526020019081526020016000208054806020026020016040519081016040528092919081815260200182805480156112e357602002820191906000526020600020905b8154815260200190600101908083116112cf575b50505050509050600c600082600184516112fd9190612dcd565b8151811061130e5761130d61308f565b5b6020026020010151815260200190815260200160002060405180610140016040529081600082015481526020016001820154815260200160028201805461135490612ef7565b80601f016020809104026020016040519081016040528092919081815260200182805461138090612ef7565b80156113cd5780601f106113a2576101008083540402835291602001916113cd565b820191906000526020600020905b8154815290600101906020018083116113b057829003601f168201915b5050505050815260200160038201548152602001600482015481526020016005820160009054906101000a900473ffffffffffffffffffffffffffffffffffffffff1673ffffffffffffffffffffffffffffffffffffffff1673ffffffffffffffffffffffffffffffffffffffff168152602001600682015481526020016007820160009054906101000a900460ff161515151581526020016007820160019054906101000a900460ff161515151581526020016007820160029054906101000a900460ff161515151581525050915050919050565b600c6020528060005260406000206000915090508060000154908060010154908060020180546114d290612ef7565b80601f01602080910402602001604051908101604052809291908181526020018280546114fe90612ef7565b801561154b5780601f106115205761010080835404028352916020019161154b565b820191906000526020600020905b81548152906001019060200180831161152e57829003601f168201915b5050505050908060030154908060040154908060050160009054906101000a900473ffffffffffffffffffffffffffffffffffffffff16908060060154908060070160009054906101000a900460ff16908060070160019054906101000a900460ff16908060070160029054906101000a900460ff1690508a565b600d60205281600052604060002081815481106115e257600080fd5b90600052602060002001600091509150505481565b6001816000016000828254019250508190555050565b600081600001549050919050565b6116b38282604051602401611631929190612903565b6040516020818303038152906040527f4b5c4277000000000000000000000000000000000000000000000000000000007bffffffffffffffffffffffffffffffffffffffffffffffffffffffff19166020820180517bffffffffffffffffffffffffffffffffffffffffffffffffffffffff83818316178352505050506117e7565b5050565b6116bf611fe5565b6116c7611fe5565b6116de85858584611810909392919063ffffffff16565b9150509392505050565b6116ff8284608001516118c090919063ffffffff16565b6117168184608001516118c090919063ffffffff16565b505050565b60008060055490506001816117309190612bac565b6005819055506000634042994660e01b60008087600001513089604001518760018c6080015160000151604051602401611771989796959493929190612803565b604051602081830303815290604052907bffffffffffffffffffffffffffffffffffffffffffffffffffffffff19166020820180517bffffffffffffffffffffffffffffffffffffffffffffffffffffffff838183161783525050505090506117dc868386846118e5565b925050509392505050565b60008151905060006a636f6e736f6c652e6c6f679050602083016000808483855afa5050505050565b611818611fe5565b6118288560800151610100611a89565b508385600001818152505082856020019073ffffffffffffffffffffffffffffffffffffffff16908173ffffffffffffffffffffffffffffffffffffffff16815250508185604001907bffffffffffffffffffffffffffffffffffffffffffffffffffffffff191690817bffffffffffffffffffffffffffffffffffffffffffffffffffffffff191681525050849050949350505050565b6118cd8260038351611af3565b6118e08183611c7890919063ffffffff16565b505050565b600030846040516020016118fa9291906127d7565b604051602081830303815290604052805190602001209050846006600083815260200190815260200160002060006101000a81548173ffffffffffffffffffffffffffffffffffffffff021916908373ffffffffffffffffffffffffffffffffffffffff160217905550807fb5e6e01e79f91267dc17b4e6314d5d4d03593d2ceee0fbb452b750bd70ea5af960405160405180910390a2600360009054906101000a900473ffffffffffffffffffffffffffffffffffffffff1673ffffffffffffffffffffffffffffffffffffffff16634000aea08685856040518463ffffffff1660e01b81526004016119f093929190612888565b602060405180830381600087803b158015611a0a57600080fd5b505af1158015611a1e573d6000803e3d6000fd5b505050506040513d601f19601f82011682018060405250810190611a4291906121ba565b611a81576040517f08c379a0000000000000000000000000000000000000000000000000000000008152600401611a7890612994565b60405180910390fd5b949350505050565b611a91612052565b6000602083611aa09190612fd1565b14611acc57602082611ab29190612fd1565b6020611abe9190612dcd565b82611ac99190612bac565b91505b81836020018181525050604051808452600081528281016020016040525082905092915050565b60178167ffffffffffffffff1611611b2a57611b248160058460ff16901b60ff161784611c9a90919063ffffffff16565b50611c73565b60ff8167ffffffffffffffff1611611b8057611b59601860058460ff16901b1784611c9a90919063ffffffff16565b50611b7a8167ffffffffffffffff16600185611cba9092919063ffffffff16565b50611c72565b61ffff8167ffffffffffffffff1611611bd757611bb0601960058460ff16901b1784611c9a90919063ffffffff16565b50611bd18167ffffffffffffffff16600285611cba9092919063ffffffff16565b50611c71565b63ffffffff8167ffffffffffffffff1611611c3057611c09601a60058460ff16901b1784611c9a90919063ffffffff16565b50611c2a8167ffffffffffffffff16600485611cba9092919063ffffffff16565b50611c70565b611c4d601b60058460ff16901b1784611c9a90919063ffffffff16565b50611c6e8167ffffffffffffffff16600885611cba9092919063ffffffff16565b505b5b5b5b505050565b611c80612052565b611c9283846000015151848551611cdc565b905092915050565b611ca2612052565b611cb28384600001515184611dcb565b905092915050565b611cc2612052565b611cd3848560000151518585611e22565b90509392505050565b611ce4612052565b8251821115611cf257600080fd5b84602001518285611d039190612bac565b1115611d3857611d37856002611d2888602001518887611d239190612bac565b611eb0565b611d329190612d73565b611ecc565b5b600080865180518760208301019350808887011115611d575787860182525b60208701925050505b60208410611d9e5780518252602082611d799190612bac565b9150602081611d889190612bac565b9050602084611d979190612dcd565b9350611d60565b60006001856020036101000a03905080198251168184511681811785525050508692505050949350505050565b611dd3612052565b83602001518310611df957611df88460028660200151611df39190612d73565b611ecc565b5b8351805160208583010184815381861415611e15576001820183525b5050508390509392505050565b611e2a612052565b84602001518483611e3b9190612bac565b1115611e6357611e628560028685611e539190612bac565b611e5d9190612d73565b611ecc565b5b6000600183610100611e759190612c55565b611e7f9190612dcd565b90508551838682010185831982511617815281518588011115611ea25784870182525b505085915050949350505050565b600081831115611ec257829050611ec6565b8190505b92915050565b600082600001519050611edf8383611a89565b50611eea8382611c78565b50505050565b6040518061014001604052806000815260200160008152602001606081526020016000815260200160008152602001600073ffffffffffffffffffffffffffffffffffffffff168152602001600081526020016000151581526020016000151581526020016000151581525090565b828054611f6b90612ef7565b90600052602060002090601f016020900481019282611f8d5760008555611fd4565b82601f10611fa657805160ff1916838001178555611fd4565b82800160010185558215611fd4579182015b82811115611fd3578251825591602001919060010190611fb8565b5b509050611fe1919061206c565b5090565b6040518060a0016040528060008019168152602001600073ffffffffffffffffffffffffffffffffffffffff16815260200160007bffffffffffffffffffffffffffffffffffffffffffffffffffffffff191681526020016000815260200161204c612052565b81525090565b604051806040016040528060608152602001600081525090565b5b8082111561208557600081600090555060010161206d565b5090565b600061209c61209784612af9565b612ad4565b9050828152602081018484840111156120b8576120b76130f2565b5b6120c3848285612eb5565b509392505050565b6000813590506120da816131f3565b92915050565b6000815190506120ef8161320a565b92915050565b60008135905061210481613221565b92915050565b600082601f83011261211f5761211e6130ed565b5b813561212f848260208601612089565b91505092915050565b60008135905061214781613238565b92915050565b600060208284031215612163576121626130fc565b5b6000612171848285016120cb565b91505092915050565b60008060408385031215612191576121906130fc565b5b600061219f858286016120cb565b92505060206121b085828601612138565b9150509250929050565b6000602082840312156121d0576121cf6130fc565b5b60006121de848285016120e0565b91505092915050565b6000602082840312156121fd576121fc6130fc565b5b600061220b848285016120f5565b91505092915050565b60008060006060848603121561222d5761222c6130fc565b5b600061223b868287016120f5565b935050602061224c86828701612138565b925050604061225d86828701612138565b9150509250925092565b60006020828403121561227d5761227c6130fc565b5b600082013567ffffffffffffffff81111561229b5761229a6130f7565b5b6122a78482850161210a565b91505092915050565b600080604083850312156122c7576122c66130fc565b5b600083013567ffffffffffffffff8111156122e5576122e46130f7565b5b6122f18582860161210a565b925050602083013567ffffffffffffffff811115612312576123116130f7565b5b61231e8582860161210a565b9150509250929050565b600080600060608486031215612341576123406130fc565b5b600084013567ffffffffffffffff81111561235f5761235e6130f7565b5b61236b8682870161210a565b935050602084013567ffffffffffffffff81111561238c5761238b6130f7565b5b6123988682870161210a565b92505060406123a986828701612138565b9150509250925092565b6000602082840312156123c9576123c86130fc565b5b60006123d784828501612138565b91505092915050565b60006123ec83836125ee565b905092915050565b6123fd81612e01565b82525050565b61240c81612e01565b82525050565b600061241d82612b3a565b6124278185612b68565b93508360208202850161243985612b2a565b8060005b85811015612475578484038952815161245685826123e0565b945061246183612b5b565b925060208a0199505060018101905061243d565b50829750879550505050505092915050565b61249081612e13565b82525050565b61249f81612e13565b82525050565b6124ae81612e1f565b82525050565b6124bd81612e29565b82525050565b60006124ce82612b45565b6124d88185612b79565b93506124e8818560208601612ec4565b6124f181613101565b840191505092915050565b61250d61250882612e7f565b612fa3565b82525050565b600061251e82612b50565b6125288185612b8a565b9350612538818560208601612ec4565b61254181613101565b840191505092915050565b600061255782612b50565b6125618185612b9b565b9350612571818560208601612ec4565b61257a81613101565b840191505092915050565b6000612592602383612b9b565b915061259d8261312c565b604082019050919050565b60006125b5601f83612b9b565b91506125c08261317b565b602082019050919050565b60006125d8602883612b9b565b91506125e3826131a4565b604082019050919050565b60006101408301600083015161260760008601826127a2565b50602083015161261a60208601826127a2565b50604083015184820360408601526126328282612513565b915050606083015161264760608601826127a2565b50608083015161265a60808601826127a2565b5060a083015161266d60a08601826123f4565b5060c083015161268060c08601826127a2565b5060e083015161269360e0860182612487565b506101008301516126a8610100860182612487565b506101208301516126bd610120860182612487565b508091505092915050565b6000610140830160008301516126e160008601826127a2565b5060208301516126f460208601826127a2565b506040830151848203604086015261270c8282612513565b915050606083015161272160608601826127a2565b50608083015161273460808601826127a2565b5060a083015161274760a08601826123f4565b5060c083015161275a60c08601826127a2565b5060e083015161276d60e0860182612487565b50610100830151612782610100860182612487565b50610120830151612797610120860182612487565b508091505092915050565b6127ab81612e75565b82525050565b6127ba81612e75565b82525050565b6127d16127cc82612e75565b612fc7565b82525050565b60006127e382856124fc565b6014820191506127f382846127c0565b6020820191508190509392505050565b600061010082019050612819600083018b612403565b612826602083018a6127b1565b61283360408301896124a5565b6128406060830188612403565b61284d60808301876124b4565b61285a60a08301866127b1565b61286760c08301856127b1565b81810360e083015261287981846124c3565b90509998505050505050505050565b600060608201905061289d6000830186612403565b6128aa60208301856127b1565b81810360408301526128bc81846124c3565b9050949350505050565b600060208201905081810360008301526128e08184612412565b905092915050565b60006020820190506128fd60008301846124a5565b92915050565b6000604082019050818103600083015261291d818561254c565b90508181036020830152612931818461254c565b90509392505050565b600060a0820190508181036000830152612954818861254c565b905061296360208301876127b1565b6129706040830186612403565b61297d60608301856127b1565b61298a6080830184612496565b9695505050505050565b600060208201905081810360008301526129ad81612585565b9050919050565b600060208201905081810360008301526129cd816125a8565b9050919050565b600060208201905081810360008301526129ed816125cb565b9050919050565b60006020820190508181036000830152612a0e81846126c8565b905092915050565b6000602082019050612a2b60008301846127b1565b92915050565b600061014082019050612a47600083018d6127b1565b612a54602083018c6127b1565b8181036040830152612a66818b61254c565b9050612a75606083018a6127b1565b612a8260808301896127b1565b612a8f60a0830188612403565b612a9c60c08301876127b1565b612aa960e0830186612496565b612ab7610100830185612496565b612ac5610120830184612496565b9b9a5050505050505050505050565b6000612ade612aef565b9050612aea8282612f29565b919050565b6000604051905090565b600067ffffffffffffffff821115612b1457612b136130be565b5b612b1d82613101565b9050602081019050919050565b6000819050602082019050919050565b600081519050919050565b600081519050919050565b600081519050919050565b6000602082019050919050565b600082825260208201905092915050565b600082825260208201905092915050565b600082825260208201905092915050565b600082825260208201905092915050565b6000612bb782612e75565b9150612bc283612e75565b9250827fffffffffffffffffffffffffffffffffffffffffffffffffffffffffffffffff03821115612bf757612bf6613002565b5b828201905092915050565b6000808291508390505b6001851115612c4c57808604811115612c2857612c27613002565b5b6001851615612c375780820291505b8081029050612c458561311f565b9450612c0c565b94509492505050565b6000612c6082612e75565b9150612c6b83612e75565b9250612c987fffffffffffffffffffffffffffffffffffffffffffffffffffffffffffffffff8484612ca0565b905092915050565b600082612cb05760019050612d6c565b81612cbe5760009050612d6c565b8160018114612cd45760028114612cde57612d0d565b6001915050612d6c565b60ff841115612cf057612cef613002565b5b8360020a915084821115612d0757612d06613002565b5b50612d6c565b5060208310610133831016604e8410600b8410161715612d425782820a905083811115612d3d57612d3c613002565b5b612d6c565b612d4f8484846001612c02565b92509050818404811115612d6657612d65613002565b5b81810290505b9392505050565b6000612d7e82612e75565b9150612d8983612e75565b9250817fffffffffffffffffffffffffffffffffffffffffffffffffffffffffffffffff0483118215151615612dc257612dc1613002565b5b828202905092915050565b6000612dd882612e75565b9150612de383612e75565b925082821015612df657612df5613002565b5b828203905092915050565b6000612e0c82612e55565b9050919050565b60008115159050919050565b6000819050919050565b60007fffffffff0000000000000000000000000000000000000000000000000000000082169050919050565b600073ffffffffffffffffffffffffffffffffffffffff82169050919050565b6000819050919050565b6000612e8a82612e91565b9050919050565b6000612e9c82612ea3565b9050919050565b6000612eae82612e55565b9050919050565b82818337600083830152505050565b60005b83811015612ee2578082015181840152602081019050612ec7565b83811115612ef1576000848401525b50505050565b60006002820490506001821680612f0f57607f821691505b60208210811415612f2357612f22613060565b5b50919050565b612f3282613101565b810181811067ffffffffffffffff82111715612f5157612f506130be565b5b80604052505050565b6000612f6582612e75565b91507fffffffffffffffffffffffffffffffffffffffffffffffffffffffffffffffff821415612f9857612f97613002565b5b600182019050919050565b6000612fae82612fb5565b9050919050565b6000612fc082613112565b9050919050565b6000819050919050565b6000612fdc82612e75565b9150612fe783612e75565b925082612ff757612ff6613031565b5b828206905092915050565b7f4e487b7100000000000000000000000000000000000000000000000000000000600052601160045260246000fd5b7f4e487b7100000000000000000000000000000000000000000000000000000000600052601260045260246000fd5b7f4e487b7100000000000000000000000000000000000000000000000000000000600052602260045260246000fd5b7f4e487b7100000000000000000000000000000000000000000000000000000000600052603260045260246000fd5b7f4e487b7100000000000000000000000000000000000000000000000000000000600052604160045260246000fd5b600080fd5b600080fd5b600080fd5b600080fd5b6000601f19601f8301169050919050565b60008160601b9050919050565b60008160011c9050919050565b7f756e61626c6520746f207472616e73666572416e6443616c6c20746f206f726160008201527f636c650000000000000000000000000000000000000000000000000000000000602082015250565b7f446561646c696e65206d757374206265206174206c6561737420312064617900600082015250565b7f536f75726365206d75737420626520746865206f7261636c65206f662074686560008201527f2072657175657374000000000000000000000000000000000000000000000000602082015250565b6131fc81612e01565b811461320757600080fd5b50565b61321381612e13565b811461321e57600080fd5b50565b61322a81612e1f565b811461323557600080fd5b50565b61324181612e75565b811461324c57600080fd5b5056fea26469706673582212205a6ee1b29047604b12feb5ae9a3f766b549fc1285aa876dcbde9b4cd48bc61e764736f6c63430008070033",
  "devdoc": {
    "kind": "dev",
    "methods": {},
    "version": 1
  },
  "userdoc": {
    "kind": "user",
    "methods": {},
    "version": 1
  },
  "storageLayout": {
    "storage": [
      {
        "astId": 2384,
        "contract": "contracts/GoalContract.sol:GoalContract",
        "label": "_status",
        "offset": 0,
        "slot": "0",
        "type": "t_uint256"
      },
      {
        "astId": 319,
        "contract": "contracts/GoalContract.sol:GoalContract",
        "label": "s_ens",
        "offset": 0,
        "slot": "1",
        "type": "t_contract(ENSInterface)1156"
      },
      {
        "astId": 321,
        "contract": "contracts/GoalContract.sol:GoalContract",
        "label": "s_ensNode",
        "offset": 0,
        "slot": "2",
        "type": "t_bytes32"
      },
      {
        "astId": 324,
        "contract": "contracts/GoalContract.sol:GoalContract",
        "label": "s_link",
        "offset": 0,
        "slot": "3",
        "type": "t_contract(LinkTokenInterface)1251"
      },
      {
        "astId": 327,
        "contract": "contracts/GoalContract.sol:GoalContract",
        "label": "s_oracle",
        "offset": 0,
        "slot": "4",
        "type": "t_contract(OperatorInterface)1331"
      },
      {
        "astId": 330,
        "contract": "contracts/GoalContract.sol:GoalContract",
        "label": "s_requestCount",
        "offset": 0,
        "slot": "5",
        "type": "t_uint256"
      },
      {
        "astId": 334,
        "contract": "contracts/GoalContract.sol:GoalContract",
        "label": "s_pendingRequests",
        "offset": 0,
        "slot": "6",
        "type": "t_mapping(t_bytes32,t_address)"
      },
      {
        "astId": 2505,
        "contract": "contracts/GoalContract.sol:GoalContract",
        "label": "oracle",
        "offset": 0,
        "slot": "7",
        "type": "t_address"
      },
      {
        "astId": 2507,
        "contract": "contracts/GoalContract.sol:GoalContract",
        "label": "jobId",
        "offset": 0,
        "slot": "8",
        "type": "t_bytes32"
      },
      {
        "astId": 2509,
        "contract": "contracts/GoalContract.sol:GoalContract",
        "label": "fee",
        "offset": 0,
        "slot": "9",
        "type": "t_uint256"
      },
      {
        "astId": 2728,
        "contract": "contracts/GoalContract.sol:GoalContract",
        "label": "goalIds",
        "offset": 0,
        "slot": "10",
        "type": "t_struct(Counter)2419_storage"
      },
      {
        "astId": 2731,
        "contract": "contracts/GoalContract.sol:GoalContract",
        "label": "goalsAchieved",
        "offset": 0,
        "slot": "11",
        "type": "t_struct(Counter)2419_storage"
      },
      {
        "astId": 2768,
        "contract": "contracts/GoalContract.sol:GoalContract",
        "label": "idToGoal",
        "offset": 0,
        "slot": "12",
        "type": "t_mapping(t_uint256,t_struct(Goal)2752_storage)"
      },
      {
        "astId": 2773,
        "contract": "contracts/GoalContract.sol:GoalContract",
        "label": "usersGoalIds",
        "offset": 0,
        "slot": "13",
        "type": "t_mapping(t_address,t_array(t_uint256)dyn_storage)"
      },
      {
        "astId": 2777,
        "contract": "contracts/GoalContract.sol:GoalContract",
        "label": "amountLockedByAddress",
        "offset": 0,
        "slot": "14",
        "type": "t_mapping(t_address,t_uint256)"
      },
      {
        "astId": 2781,
        "contract": "contracts/GoalContract.sol:GoalContract",
        "label": "userLastReqId",
        "offset": 0,
        "slot": "15",
        "type": "t_mapping(t_address,t_bytes32)"
      },
      {
        "astId": 2786,
        "contract": "contracts/GoalContract.sol:GoalContract",
        "label": "requestIdGoalRequest",
        "offset": 0,
        "slot": "16",
        "type": "t_mapping(t_bytes32,t_struct(GoalRequest)2763_storage)"
      }
    ],
    "types": {
      "t_address": {
        "encoding": "inplace",
        "label": "address",
        "numberOfBytes": "20"
      },
      "t_array(t_uint256)dyn_storage": {
        "base": "t_uint256",
        "encoding": "dynamic_array",
        "label": "uint256[]",
        "numberOfBytes": "32"
      },
      "t_bool": {
        "encoding": "inplace",
        "label": "bool",
        "numberOfBytes": "1"
      },
      "t_bytes32": {
        "encoding": "inplace",
        "label": "bytes32",
        "numberOfBytes": "32"
      },
      "t_contract(ENSInterface)1156": {
        "encoding": "inplace",
        "label": "contract ENSInterface",
        "numberOfBytes": "20"
      },
      "t_contract(LinkTokenInterface)1251": {
        "encoding": "inplace",
        "label": "contract LinkTokenInterface",
        "numberOfBytes": "20"
      },
      "t_contract(OperatorInterface)1331": {
        "encoding": "inplace",
        "label": "contract OperatorInterface",
        "numberOfBytes": "20"
      },
      "t_mapping(t_address,t_array(t_uint256)dyn_storage)": {
        "encoding": "mapping",
        "key": "t_address",
        "label": "mapping(address => uint256[])",
        "numberOfBytes": "32",
        "value": "t_array(t_uint256)dyn_storage"
      },
      "t_mapping(t_address,t_bytes32)": {
        "encoding": "mapping",
        "key": "t_address",
        "label": "mapping(address => bytes32)",
        "numberOfBytes": "32",
        "value": "t_bytes32"
      },
      "t_mapping(t_address,t_uint256)": {
        "encoding": "mapping",
        "key": "t_address",
        "label": "mapping(address => uint256)",
        "numberOfBytes": "32",
        "value": "t_uint256"
      },
      "t_mapping(t_bytes32,t_address)": {
        "encoding": "mapping",
        "key": "t_bytes32",
        "label": "mapping(bytes32 => address)",
        "numberOfBytes": "32",
        "value": "t_address"
      },
      "t_mapping(t_bytes32,t_struct(GoalRequest)2763_storage)": {
        "encoding": "mapping",
        "key": "t_bytes32",
        "label": "mapping(bytes32 => struct GoalContract.GoalRequest)",
        "numberOfBytes": "32",
        "value": "t_struct(GoalRequest)2763_storage"
      },
      "t_mapping(t_uint256,t_struct(Goal)2752_storage)": {
        "encoding": "mapping",
        "key": "t_uint256",
        "label": "mapping(uint256 => struct GoalContract.Goal)",
        "numberOfBytes": "32",
        "value": "t_struct(Goal)2752_storage"
      },
      "t_string_storage": {
        "encoding": "bytes",
        "label": "string",
        "numberOfBytes": "32"
      },
      "t_struct(Counter)2419_storage": {
        "encoding": "inplace",
        "label": "struct Counters.Counter",
        "members": [
          {
            "astId": 2418,
            "contract": "contracts/GoalContract.sol:GoalContract",
            "label": "_value",
            "offset": 0,
            "slot": "0",
            "type": "t_uint256"
          }
        ],
        "numberOfBytes": "32"
      },
      "t_struct(Goal)2752_storage": {
        "encoding": "inplace",
        "label": "struct GoalContract.Goal",
        "members": [
          {
            "astId": 2733,
            "contract": "contracts/GoalContract.sol:GoalContract",
            "label": "goalId",
            "offset": 0,
            "slot": "0",
            "type": "t_uint256"
          },
          {
            "astId": 2735,
            "contract": "contracts/GoalContract.sol:GoalContract",
            "label": "userId",
            "offset": 0,
            "slot": "1",
            "type": "t_uint256"
          },
          {
            "astId": 2737,
            "contract": "contracts/GoalContract.sol:GoalContract",
            "label": "goalName",
            "offset": 0,
            "slot": "2",
            "type": "t_string_storage"
          },
          {
            "astId": 2739,
            "contract": "contracts/GoalContract.sol:GoalContract",
            "label": "metric",
            "offset": 0,
            "slot": "3",
            "type": "t_uint256"
          },
          {
            "astId": 2741,
            "contract": "contracts/GoalContract.sol:GoalContract",
            "label": "deadline",
            "offset": 0,
            "slot": "4",
            "type": "t_uint256"
          },
          {
            "astId": 2743,
            "contract": "contracts/GoalContract.sol:GoalContract",
            "label": "goalOwnerAddress",
            "offset": 0,
            "slot": "5",
            "type": "t_address"
          },
          {
            "astId": 2745,
            "contract": "contracts/GoalContract.sol:GoalContract",
            "label": "amountPledged",
            "offset": 0,
            "slot": "6",
            "type": "t_uint256"
          },
          {
            "astId": 2747,
            "contract": "contracts/GoalContract.sol:GoalContract",
            "label": "achieved",
            "offset": 0,
            "slot": "7",
            "type": "t_bool"
          },
          {
            "astId": 2749,
            "contract": "contracts/GoalContract.sol:GoalContract",
            "label": "withdrawn",
            "offset": 1,
            "slot": "7",
            "type": "t_bool"
          },
          {
            "astId": 2751,
            "contract": "contracts/GoalContract.sol:GoalContract",
            "label": "ended",
            "offset": 2,
            "slot": "7",
            "type": "t_bool"
          }
        ],
        "numberOfBytes": "256"
      },
      "t_struct(GoalRequest)2763_storage": {
        "encoding": "inplace",
        "label": "struct GoalContract.GoalRequest",
        "members": [
          {
            "astId": 2754,
            "contract": "contracts/GoalContract.sol:GoalContract",
            "label": "goalName",
            "offset": 0,
            "slot": "0",
            "type": "t_string_storage"
          },
          {
            "astId": 2756,
            "contract": "contracts/GoalContract.sol:GoalContract",
            "label": "deadline",
            "offset": 0,
            "slot": "1",
            "type": "t_uint256"
          },
          {
            "astId": 2758,
            "contract": "contracts/GoalContract.sol:GoalContract",
            "label": "goalOwnerAddress",
            "offset": 0,
            "slot": "2",
            "type": "t_address"
          },
          {
            "astId": 2760,
            "contract": "contracts/GoalContract.sol:GoalContract",
            "label": "amountPledged",
            "offset": 0,
            "slot": "3",
            "type": "t_uint256"
          },
          {
            "astId": 2762,
            "contract": "contracts/GoalContract.sol:GoalContract",
            "label": "fulfilled",
            "offset": 0,
            "slot": "4",
            "type": "t_bool"
          }
        ],
        "numberOfBytes": "160"
      },
      "t_uint256": {
        "encoding": "inplace",
        "label": "uint256",
        "numberOfBytes": "32"
      }
    }
  }
}