{
  "address": "0xB3c3a947F1b12F3b6cBC6fB198F91343A4a6fea1",
  "abi": [
    {
      "inputs": [
        {
          "internalType": "address",
          "name": "_linkTokenAddr",
          "type": "address"
        },
        {
          "internalType": "address",
          "name": "_oralcleAddr",
          "type": "address"
        }
      ],
      "stateMutability": "payable",
      "type": "constructor"
    },
    {
      "anonymous": false,
      "inputs": [
        {
          "indexed": true,
          "internalType": "bytes32",
          "name": "id",
          "type": "bytes32"
        }
      ],
      "name": "ChainlinkCancelled",
      "type": "event"
    },
    {
      "anonymous": false,
      "inputs": [
        {
          "indexed": true,
          "internalType": "bytes32",
          "name": "id",
          "type": "bytes32"
        }
      ],
      "name": "ChainlinkFulfilled",
      "type": "event"
    },
    {
      "anonymous": false,
      "inputs": [
        {
          "indexed": true,
          "internalType": "bytes32",
          "name": "id",
          "type": "bytes32"
        }
      ],
      "name": "ChainlinkRequested",
      "type": "event"
    },
    {
      "anonymous": false,
      "inputs": [
        {
          "components": [
            {
              "internalType": "uint256",
              "name": "goalId",
              "type": "uint256"
            },
            {
              "internalType": "uint256",
              "name": "username",
              "type": "uint256"
            },
            {
              "internalType": "string",
              "name": "goal",
              "type": "string"
            },
            {
              "internalType": "uint256",
              "name": "current",
              "type": "uint256"
            },
            {
              "internalType": "uint256",
              "name": "target",
              "type": "uint256"
            },
            {
              "internalType": "uint256",
              "name": "startDate",
              "type": "uint256"
            },
            {
              "internalType": "uint256",
              "name": "endDate",
              "type": "uint256"
            },
            {
              "internalType": "address",
              "name": "goalOwnerAddress",
              "type": "address"
            },
            {
              "internalType": "uint256",
              "name": "amountPledged",
              "type": "uint256"
            },
            {
              "internalType": "bool",
              "name": "achieved",
              "type": "bool"
            },
            {
              "internalType": "bool",
              "name": "withdrawn",
              "type": "bool"
            },
            {
              "internalType": "bool",
              "name": "ended",
              "type": "bool"
            }
          ],
          "indexed": false,
          "internalType": "struct GoalContractV1.Goal",
          "name": "goal",
          "type": "tuple"
        }
      ],
      "name": "GoalCreated",
      "type": "event"
    },
    {
      "anonymous": false,
      "inputs": [
        {
          "indexed": false,
          "internalType": "uint256",
          "name": "goalId",
          "type": "uint256"
        },
        {
          "indexed": false,
          "internalType": "string",
          "name": "goal",
          "type": "string"
        },
        {
          "indexed": false,
          "internalType": "address",
          "name": "goalOwnerAddress",
          "type": "address"
        },
        {
          "indexed": false,
          "internalType": "bool",
          "name": "achieved",
          "type": "bool"
        }
      ],
      "name": "GoalEvaluated",
      "type": "event"
    },
    {
      "anonymous": false,
      "inputs": [
        {
          "components": [
            {
              "internalType": "uint256",
              "name": "goalId",
              "type": "uint256"
            },
            {
              "internalType": "bool",
              "name": "fulfilled",
              "type": "bool"
            }
          ],
          "indexed": false,
          "internalType": "struct GoalContractV1.GoalEvaluateRequest",
          "name": "goalEvalRequest",
          "type": "tuple"
        }
      ],
      "name": "GoalEvaluationRequestCreated",
      "type": "event"
    },
    {
      "anonymous": false,
      "inputs": [
        {
          "components": [
            {
              "internalType": "uint256",
              "name": "goalId",
              "type": "uint256"
            },
            {
              "internalType": "uint256",
              "name": "username",
              "type": "uint256"
            },
            {
              "internalType": "string",
              "name": "goal",
              "type": "string"
            },
            {
              "internalType": "uint256",
              "name": "current",
              "type": "uint256"
            },
            {
              "internalType": "uint256",
              "name": "target",
              "type": "uint256"
            },
            {
              "internalType": "uint256",
              "name": "startDate",
              "type": "uint256"
            },
            {
              "internalType": "uint256",
              "name": "endDate",
              "type": "uint256"
            },
            {
              "internalType": "address",
              "name": "goalOwnerAddress",
              "type": "address"
            },
            {
              "internalType": "uint256",
              "name": "amountPledged",
              "type": "uint256"
            },
            {
              "internalType": "bool",
              "name": "achieved",
              "type": "bool"
            },
            {
              "internalType": "bool",
              "name": "withdrawn",
              "type": "bool"
            },
            {
              "internalType": "bool",
              "name": "ended",
              "type": "bool"
            }
          ],
          "indexed": false,
          "internalType": "struct GoalContractV1.Goal",
          "name": "goal",
          "type": "tuple"
        }
      ],
      "name": "GoalEvauated",
      "type": "event"
    },
    {
      "anonymous": false,
      "inputs": [
        {
          "components": [
            {
              "internalType": "string",
              "name": "goal",
              "type": "string"
            },
            {
              "internalType": "uint256",
              "name": "startDate",
              "type": "uint256"
            },
            {
              "internalType": "uint256",
              "name": "endDate",
              "type": "uint256"
            },
            {
              "internalType": "uint256",
              "name": "target",
              "type": "uint256"
            },
            {
              "internalType": "address",
              "name": "goalOwnerAddress",
              "type": "address"
            },
            {
              "internalType": "uint256",
              "name": "amountPledged",
              "type": "uint256"
            },
            {
              "internalType": "bool",
              "name": "fulfilled",
              "type": "bool"
            }
          ],
          "indexed": false,
          "internalType": "struct GoalContractV1.GoalRequest",
          "name": "goalRequest",
          "type": "tuple"
        }
      ],
      "name": "GoalRequestCreated",
      "type": "event"
    },
    {
      "anonymous": false,
      "inputs": [
        {
          "indexed": false,
          "internalType": "uint256",
          "name": "goalId",
          "type": "uint256"
        },
        {
          "indexed": false,
          "internalType": "string",
          "name": "goal",
          "type": "string"
        },
        {
          "indexed": false,
          "internalType": "address",
          "name": "goalOwnerAddress",
          "type": "address"
        },
        {
          "indexed": false,
          "internalType": "uint256",
          "name": "amountPledged",
          "type": "uint256"
        }
      ],
      "name": "PledgedAmountWithdrawn",
      "type": "event"
    },
    {
      "stateMutability": "payable",
      "type": "fallback"
    },
    {
      "inputs": [
        {
          "internalType": "address",
          "name": "",
          "type": "address"
        }
      ],
      "name": "amountLockedByAddress",
      "outputs": [
        {
          "internalType": "uint256",
          "name": "",
          "type": "uint256"
        }
      ],
      "stateMutability": "view",
      "type": "function"
    },
    {
      "inputs": [
        {
          "internalType": "uint256",
          "name": "_goalId",
          "type": "uint256"
        }
      ],
      "name": "createGoalEvaluationRequest",
      "outputs": [],
      "stateMutability": "nonpayable",
      "type": "function"
    },
    {
      "inputs": [
        {
          "internalType": "string",
          "name": "goal",
          "type": "string"
        },
        {
          "internalType": "uint256",
          "name": "target",
          "type": "uint256"
        },
        {
          "internalType": "string",
          "name": "username",
          "type": "string"
        },
        {
          "internalType": "uint256",
          "name": "startDate",
          "type": "uint256"
        },
        {
          "internalType": "uint256",
          "name": "endDate",
          "type": "uint256"
        }
      ],
      "name": "createGoalRequest",
      "outputs": [],
      "stateMutability": "payable",
      "type": "function"
    },
    {
      "inputs": [
        {
          "internalType": "bytes32",
          "name": "_requestId",
          "type": "bytes32"
        },
        {
          "internalType": "uint256",
          "name": "_payload",
          "type": "uint256"
        },
        {
          "internalType": "uint256",
          "name": "_userId",
          "type": "uint256"
        }
      ],
      "name": "fulfillGoalEvaluationRequest",
      "outputs": [],
      "stateMutability": "nonpayable",
      "type": "function"
    },
    {
      "inputs": [
        {
          "internalType": "bytes32",
          "name": "_requestId",
          "type": "bytes32"
        },
        {
          "internalType": "uint256",
          "name": "_payload",
          "type": "uint256"
        },
        {
          "internalType": "uint256",
          "name": "_username",
          "type": "uint256"
        }
      ],
      "name": "fulfillGoalRequest",
      "outputs": [],
      "stateMutability": "nonpayable",
      "type": "function"
    },
    {
      "inputs": [
        {
          "internalType": "bytes32",
          "name": "_requestId",
          "type": "bytes32"
        }
      ],
      "name": "getGoalRequestFufilled",
      "outputs": [
        {
          "internalType": "bool",
          "name": "",
          "type": "bool"
        }
      ],
      "stateMutability": "view",
      "type": "function"
    },
    {
      "inputs": [
        {
          "internalType": "address",
          "name": "userAddr",
          "type": "address"
        }
      ],
      "name": "getLastUserGoal",
      "outputs": [
        {
          "components": [
            {
              "internalType": "uint256",
              "name": "goalId",
              "type": "uint256"
            },
            {
              "internalType": "uint256",
              "name": "username",
              "type": "uint256"
            },
            {
              "internalType": "string",
              "name": "goal",
              "type": "string"
            },
            {
              "internalType": "uint256",
              "name": "current",
              "type": "uint256"
            },
            {
              "internalType": "uint256",
              "name": "target",
              "type": "uint256"
            },
            {
              "internalType": "uint256",
              "name": "startDate",
              "type": "uint256"
            },
            {
              "internalType": "uint256",
              "name": "endDate",
              "type": "uint256"
            },
            {
              "internalType": "address",
              "name": "goalOwnerAddress",
              "type": "address"
            },
            {
              "internalType": "uint256",
              "name": "amountPledged",
              "type": "uint256"
            },
            {
              "internalType": "bool",
              "name": "achieved",
              "type": "bool"
            },
            {
              "internalType": "bool",
              "name": "withdrawn",
              "type": "bool"
            },
            {
              "internalType": "bool",
              "name": "ended",
              "type": "bool"
            }
          ],
          "internalType": "struct GoalContractV1.Goal",
          "name": "",
          "type": "tuple"
        }
      ],
      "stateMutability": "view",
      "type": "function"
    },
    {
      "inputs": [
        {
          "internalType": "address",
          "name": "userAddr",
          "type": "address"
        }
      ],
      "name": "getUserGoals",
      "outputs": [
        {
          "components": [
            {
              "internalType": "uint256",
              "name": "goalId",
              "type": "uint256"
            },
            {
              "internalType": "uint256",
              "name": "username",
              "type": "uint256"
            },
            {
              "internalType": "string",
              "name": "goal",
              "type": "string"
            },
            {
              "internalType": "uint256",
              "name": "current",
              "type": "uint256"
            },
            {
              "internalType": "uint256",
              "name": "target",
              "type": "uint256"
            },
            {
              "internalType": "uint256",
              "name": "startDate",
              "type": "uint256"
            },
            {
              "internalType": "uint256",
              "name": "endDate",
              "type": "uint256"
            },
            {
              "internalType": "address",
              "name": "goalOwnerAddress",
              "type": "address"
            },
            {
              "internalType": "uint256",
              "name": "amountPledged",
              "type": "uint256"
            },
            {
              "internalType": "bool",
              "name": "achieved",
              "type": "bool"
            },
            {
              "internalType": "bool",
              "name": "withdrawn",
              "type": "bool"
            },
            {
              "internalType": "bool",
              "name": "ended",
              "type": "bool"
            }
          ],
          "internalType": "struct GoalContractV1.Goal[]",
          "name": "",
          "type": "tuple[]"
        }
      ],
      "stateMutability": "view",
      "type": "function"
    },
    {
      "inputs": [],
      "name": "goalIds",
      "outputs": [
        {
          "internalType": "uint256",
          "name": "_value",
          "type": "uint256"
        }
      ],
      "stateMutability": "view",
      "type": "function"
    },
    {
      "inputs": [],
      "name": "goalsAchieved",
      "outputs": [
        {
          "internalType": "uint256",
          "name": "_value",
          "type": "uint256"
        }
      ],
      "stateMutability": "view",
      "type": "function"
    },
    {
      "inputs": [
        {
          "internalType": "uint256",
          "name": "",
          "type": "uint256"
        }
      ],
      "name": "idToGoal",
      "outputs": [
        {
          "internalType": "uint256",
          "name": "goalId",
          "type": "uint256"
        },
        {
          "internalType": "uint256",
          "name": "username",
          "type": "uint256"
        },
        {
          "internalType": "string",
          "name": "goal",
          "type": "string"
        },
        {
          "internalType": "uint256",
          "name": "current",
          "type": "uint256"
        },
        {
          "internalType": "uint256",
          "name": "target",
          "type": "uint256"
        },
        {
          "internalType": "uint256",
          "name": "startDate",
          "type": "uint256"
        },
        {
          "internalType": "uint256",
          "name": "endDate",
          "type": "uint256"
        },
        {
          "internalType": "address",
          "name": "goalOwnerAddress",
          "type": "address"
        },
        {
          "internalType": "uint256",
          "name": "amountPledged",
          "type": "uint256"
        },
        {
          "internalType": "bool",
          "name": "achieved",
          "type": "bool"
        },
        {
          "internalType": "bool",
          "name": "withdrawn",
          "type": "bool"
        },
        {
          "internalType": "bool",
          "name": "ended",
          "type": "bool"
        }
      ],
      "stateMutability": "view",
      "type": "function"
    },
    {
      "inputs": [],
      "name": "oracle",
      "outputs": [
        {
          "internalType": "address",
          "name": "",
          "type": "address"
        }
      ],
      "stateMutability": "view",
      "type": "function"
    },
    {
      "inputs": [
        {
          "internalType": "bytes32",
          "name": "",
          "type": "bytes32"
        }
      ],
      "name": "requestIdToGoalEvaluationRequest",
      "outputs": [
        {
          "internalType": "uint256",
          "name": "goalId",
          "type": "uint256"
        },
        {
          "internalType": "bool",
          "name": "fulfilled",
          "type": "bool"
        }
      ],
      "stateMutability": "view",
      "type": "function"
    },
    {
      "inputs": [
        {
          "internalType": "bytes32",
          "name": "",
          "type": "bytes32"
        }
      ],
      "name": "requestIdToGoalRequest",
      "outputs": [
        {
          "internalType": "string",
          "name": "goal",
          "type": "string"
        },
        {
          "internalType": "uint256",
          "name": "startDate",
          "type": "uint256"
        },
        {
          "internalType": "uint256",
          "name": "endDate",
          "type": "uint256"
        },
        {
          "internalType": "uint256",
          "name": "target",
          "type": "uint256"
        },
        {
          "internalType": "address",
          "name": "goalOwnerAddress",
          "type": "address"
        },
        {
          "internalType": "uint256",
          "name": "amountPledged",
          "type": "uint256"
        },
        {
          "internalType": "bool",
          "name": "fulfilled",
          "type": "bool"
        }
      ],
      "stateMutability": "view",
      "type": "function"
    },
    {
      "inputs": [
        {
          "internalType": "string",
          "name": "_username",
          "type": "string"
        }
      ],
      "name": "requestLastUserTweetTs",
      "outputs": [
        {
          "internalType": "bytes32",
          "name": "",
          "type": "bytes32"
        }
      ],
      "stateMutability": "nonpayable",
      "type": "function"
    },
    {
      "inputs": [
        {
          "internalType": "uint256",
          "name": "_userId",
          "type": "uint256"
        },
        {
          "internalType": "uint256",
          "name": "_timeStamp",
          "type": "uint256"
        }
      ],
      "name": "requestLikesSinceTs",
      "outputs": [
        {
          "internalType": "bytes32",
          "name": "",
          "type": "bytes32"
        }
      ],
      "stateMutability": "nonpayable",
      "type": "function"
    },
    {
      "inputs": [
        {
          "internalType": "address",
          "name": "",
          "type": "address"
        },
        {
          "internalType": "uint256",
          "name": "",
          "type": "uint256"
        }
      ],
      "name": "userToGoalIds",
      "outputs": [
        {
          "internalType": "uint256",
          "name": "",
          "type": "uint256"
        }
      ],
      "stateMutability": "view",
      "type": "function"
    },
    {
      "inputs": [
        {
          "internalType": "address",
          "name": "",
          "type": "address"
        }
      ],
      "name": "userToLastReqId",
      "outputs": [
        {
          "internalType": "bytes32",
          "name": "",
          "type": "bytes32"
        }
      ],
      "stateMutability": "view",
      "type": "function"
    },
    {
      "stateMutability": "payable",
      "type": "receive"
    }
  ],
  "transactionHash": "0xc0dc6fb81ac507e927bcf59ab021d345d710bc47060571eec1d1883aa2a006d9",
  "args": [
    "0x8e8Bb0a3321F71F27cB622EED70C7D2B9e97180E",
    "0x5d3E7fCde39e2769AB81a641f6316Ef8B5a405D7"
  ],
  "numDeployments": 1,
  "solcInputHash": "e94c891e7a3e4474a042ef23312d3071",
  "bytecode": "0x6080604052600160055560405162003f3538038062003f3583398181016040528101906200002e919062000116565b818160016000819055506200004982620000bb60201b60201c565b80600760006101000a81548173ffffffffffffffffffffffffffffffffffffffff021916908373ffffffffffffffffffffffffffffffffffffffff1602179055507f326363393236323236613661343937356165343939633837333532356538383160088190555050505050620001b0565b80600360006101000a81548173ffffffffffffffffffffffffffffffffffffffff021916908373ffffffffffffffffffffffffffffffffffffffff16021790555050565b600081519050620001108162000196565b92915050565b6000806040838503121562000130576200012f62000191565b5b60006200014085828601620000ff565b92505060206200015385828601620000ff565b9150509250929050565b60006200016a8262000171565b9050919050565b600073ffffffffffffffffffffffffffffffffffffffff82169050919050565b600080fd5b620001a1816200015d565b8114620001ad57600080fd5b50565b613d7580620001c06000396000f3fe60806040526004361061010d5760003560e01c80637dc0d1d011610095578063c1ea96d611610064578063c1ea96d6146103cb578063e18df9fa14610408578063e56e25f514610445578063ef7dfa1d1461046e578063fc1f22e51461049757610114565b80637dc0d1d0146102f5578063aedf0a4a14610320578063b9fa2c6b1461035d578063beb3e4281461038857610114565b8063442f1e91116100dc578063442f1e91146101f85780634ddd147a1461021457806356b18b3214610252578063605ad2f91461028f57806378cb58e3146102cc57610114565b80630a00663714610116578063320936931461015357806335742c631461017e5780633dd445cf146101bb57610114565b3661011457005b005b34801561012257600080fd5b5061013d60048036038101906101389190612a56565b6104df565b60405161014a91906132a4565b60405180910390f35b34801561015f57600080fd5b5061016861050c565b6040516101759190613496565b60405180910390f35b34801561018a57600080fd5b506101a560048036038101906101a091906129bc565b610518565b6040516101b29190613282565b60405180910390f35b3480156101c757600080fd5b506101e260048036038101906101dd9190612bff565b610805565b6040516101ef91906132bf565b60405180910390f35b610212600480360381019061020d9190612b1f565b610a07565b005b34801561022057600080fd5b5061023b60048036038101906102369190612a56565b610bea565b6040516102499291906134b1565b60405180910390f35b34801561025e57600080fd5b50610279600480360381019061027491906129bc565b610c1b565b6040516102869190613496565b60405180910390f35b34801561029b57600080fd5b506102b660048036038101906102b191906129e9565b610c33565b6040516102c39190613496565b60405180910390f35b3480156102d857600080fd5b506102f360048036038101906102ee9190612a83565b610c64565b005b34801561030157600080fd5b5061030a611197565b60405161031791906131a4565b60405180910390f35b34801561032c57600080fd5b5061034760048036038101906103429190612ad6565b6111bd565b60405161035491906132bf565b60405180910390f35b34801561036957600080fd5b506103726113cd565b60405161037f9190613496565b60405180910390f35b34801561039457600080fd5b506103af60048036038101906103aa9190612a56565b6113d9565b6040516103c29796959493929190613341565b60405180910390f35b3480156103d757600080fd5b506103f260048036038101906103ed91906129bc565b6114d0565b6040516103ff9190613474565b60405180910390f35b34801561041457600080fd5b5061042f600480360381019061042a91906129bc565b611737565b60405161043c91906132bf565b60405180910390f35b34801561045157600080fd5b5061046c60048036038101906104679190612bd2565b61174f565b005b34801561047a57600080fd5b5061049560048036038101906104909190612a83565b6119e8565b005b3480156104a357600080fd5b506104be60048036038101906104b99190612bd2565b611bb9565b6040516104d69c9b9a999897969594939291906134da565b60405180910390f35b6000600f600083815260200190815260200160002060060160009054906101000a900460ff169050919050565b600b8060000154905081565b60606000600d60008473ffffffffffffffffffffffffffffffffffffffff1673ffffffffffffffffffffffffffffffffffffffff1681526020019081526020016000208054806020026020016040519081016040528092919081815260200182805480156105a557602002820191906000526020600020905b815481526020019060010190808311610591575b505050505090506000815167ffffffffffffffff8111156105c9576105c8613b85565b5b60405190808252806020026020018201604052801561060257816020015b6105ef612751565b8152602001906001900390816105e75790505b50905060005b82518110156107fa57600c600084838151811061062857610627613b56565b5b6020026020010151815260200190815260200160002060405180610180016040529081600082015481526020016001820154815260200160028201805461066e906139be565b80601f016020809104026020016040519081016040528092919081815260200182805461069a906139be565b80156106e75780601f106106bc576101008083540402835291602001916106e7565b820191906000526020600020905b8154815290600101906020018083116106ca57829003601f168201915b50505050508152602001600382015481526020016004820154815260200160058201548152602001600682015481526020016007820160009054906101000a900473ffffffffffffffffffffffffffffffffffffffff1673ffffffffffffffffffffffffffffffffffffffff1673ffffffffffffffffffffffffffffffffffffffff168152602001600882015481526020016009820160009054906101000a900460ff161515151581526020016009820160019054906101000a900460ff161515151581526020016009820160029054906101000a900460ff1615151515815250508282815181106107dc576107db613b56565b5b602002602001018190525080806107f290613a21565b915050610608565b508092505050919050565b60006108466040518060400160405280600f81526020017f54413a205265636569766564202573000000000000000000000000000000000081525084611ce8565b600061085c6008543063ef7dfa1d60e01b611d84565b90506108b76040518060400160405280600881526020017f757365726e616d650000000000000000000000000000000000000000000000008152506040518060200160405280600081525083611db59092919063ffffffff16565b6109366040518060400160405280600681526020017f6d6574686f6400000000000000000000000000000000000000000000000000008152506040518060400160405280600e81526020017f6c696b65735f73696e63655f747300000000000000000000000000000000000081525083611db59092919063ffffffff16565b6109806040518060400160405280600681526020017f75736572696400000000000000000000000000000000000000000000000000008152508583611de89092919063ffffffff16565b6109ca6040518060400160405280600781526020017f756e69785f7473000000000000000000000000000000000000000000000000008152508483611de89092919063ffffffff16565b60006109fa600760009054906101000a900473ffffffffffffffffffffffffffffffffffffffff16836000611e1b565b9050809250505092915050565b6000610a12846111bd565b9050610a536040518060400160405280600c81526020017f757365726e616d653a202573000000000000000000000000000000000000000081525085611ee7565b80600e60003373ffffffffffffffffffffffffffffffffffffffff1673ffffffffffffffffffffffffffffffffffffffff1681526020019081526020016000208190555060006040518060e001604052808881526020018581526020018481526020018781526020013373ffffffffffffffffffffffffffffffffffffffff16815260200134815260200160001515815250905080600f60008481526020019081526020016000206000820151816000019080519060200190610b179291906127ce565b5060208201518160010155604082015181600201556060820151816003015560808201518160040160006101000a81548173ffffffffffffffffffffffffffffffffffffffff021916908373ffffffffffffffffffffffffffffffffffffffff16021790555060a0820151816005015560c08201518160060160006101000a81548160ff0219169083151502179055509050507fd7385c5e159a93070ed4c329b34fd6609ea6f7c60a06232e24681d57828cf8da81604051610bd99190613452565b60405180910390a150505050505050565b60106020528060005260406000206000915090508060000154908060010160009054906101000a900460ff16905082565b60116020528060005260406000206000915090505481565b600d6020528160005260406000208181548110610c4f57600080fd5b90600052602060002001600091509150505481565b826006600082815260200190815260200160002060009054906101000a900473ffffffffffffffffffffffffffffffffffffffff1673ffffffffffffffffffffffffffffffffffffffff163373ffffffffffffffffffffffffffffffffffffffff1614610d06576040517f08c379a0000000000000000000000000000000000000000000000000000000008152600401610cfd906133f7565b60405180910390fd5b6006600082815260200190815260200160002060006101000a81549073ffffffffffffffffffffffffffffffffffffffff0219169055807f7cc135e0cebb02c3480ae5d74d377283180a2601f8f644edf7987b009316c63a60405160405180910390a26000600f60008681526020019081526020016000206040518060e0016040529081600082018054610d99906139be565b80601f0160208091040260200160405190810160405280929190818152602001828054610dc5906139be565b8015610e125780601f10610de757610100808354040283529160200191610e12565b820191906000526020600020905b815481529060010190602001808311610df557829003601f168201915b505050505081526020016001820154815260200160028201548152602001600382015481526020016004820160009054906101000a900473ffffffffffffffffffffffffffffffffffffffff1673ffffffffffffffffffffffffffffffffffffffff1673ffffffffffffffffffffffffffffffffffffffff168152602001600582015481526020016006820160009054906101000a900460ff161515151581525050905060018160c0019015159081151581525050610ed1600a611f83565b6000610edd600a611f99565b90506000600d60003373ffffffffffffffffffffffffffffffffffffffff1673ffffffffffffffffffffffffffffffffffffffff1681526020019081526020016000209050808290806001815401808255809150506001900390600052602060002001600090919091909150558260a00151601160003373ffffffffffffffffffffffffffffffffffffffff1673ffffffffffffffffffffffffffffffffffffffff1681526020019081526020016000206000828254610f9d9190613673565b92505081905550600060405180610180016040528084815260200187815260200185600001518152602001888152602001856060015181526020018560200151815260200185604001518152602001856080015173ffffffffffffffffffffffffffffffffffffffff1681526020018560a00151815260200160001515815260200160001515815260200160001515815250905080600c6000858152602001908152602001600020600082015181600001556020820151816001015560408201518160020190805190602001906110759291906127ce565b50606082015181600301556080820151816004015560a0820151816005015560c0820151816006015560e08201518160070160006101000a81548173ffffffffffffffffffffffffffffffffffffffff021916908373ffffffffffffffffffffffffffffffffffffffff16021790555061010082015181600801556101208201518160090160006101000a81548160ff0219169083151502179055506101408201518160090160016101000a81548160ff0219169083151502179055506101608201518160090160026101000a81548160ff0219169083151502179055509050507fad8e750e3b6e40e6b6de3cca44b644f7896757aa26c9aca221cfac71e3218879816040516111859190613474565b60405180910390a15050505050505050565b600760009054906101000a900473ffffffffffffffffffffffffffffffffffffffff1681565b60006111fe6040518060400160405280600f81526020017f54413a205265636569766564202573000000000000000000000000000000000081525083611ee7565b6000611214600854306378cb58e360e01b611d84565b90506112606040518060400160405280600881526020017f757365726e616d650000000000000000000000000000000000000000000000008152508483611db59092919063ffffffff16565b6112df6040518060400160405280600681526020017f6d6574686f6400000000000000000000000000000000000000000000000000008152506040518060400160405280600f81526020017f6c61746573745f74776565745f7473000000000000000000000000000000000081525083611db59092919063ffffffff16565b6113386040518060400160405280600681526020017f75736572696400000000000000000000000000000000000000000000000000008152506040518060200160405280600081525083611db59092919063ffffffff16565b6113916040518060400160405280600781526020017f756e69785f7473000000000000000000000000000000000000000000000000008152506040518060200160405280600081525083611db59092919063ffffffff16565b60006113c1600760009054906101000a900473ffffffffffffffffffffffffffffffffffffffff16836000611e1b565b90508092505050919050565b600a8060000154905081565b600f6020528060005260406000206000915090508060000180546113fc906139be565b80601f0160208091040260200160405190810160405280929190818152602001828054611428906139be565b80156114755780601f1061144a57610100808354040283529160200191611475565b820191906000526020600020905b81548152906001019060200180831161145857829003601f168201915b5050505050908060010154908060020154908060030154908060040160009054906101000a900473ffffffffffffffffffffffffffffffffffffffff16908060050154908060060160009054906101000a900460ff16905087565b6114d8612751565b6000600d60008473ffffffffffffffffffffffffffffffffffffffff1673ffffffffffffffffffffffffffffffffffffffff16815260200190815260200160002080548060200260200160405190810160405280929190818152602001828054801561156357602002820191906000526020600020905b81548152602001906001019080831161154f575b50505050509050600c6000826001845161157d9190613894565b8151811061158e5761158d613b56565b5b602002602001015181526020019081526020016000206040518061018001604052908160008201548152602001600182015481526020016002820180546115d4906139be565b80601f0160208091040260200160405190810160405280929190818152602001828054611600906139be565b801561164d5780601f106116225761010080835404028352916020019161164d565b820191906000526020600020905b81548152906001019060200180831161163057829003601f168201915b50505050508152602001600382015481526020016004820154815260200160058201548152602001600682015481526020016007820160009054906101000a900473ffffffffffffffffffffffffffffffffffffffff1673ffffffffffffffffffffffffffffffffffffffff1673ffffffffffffffffffffffffffffffffffffffff168152602001600882015481526020016009820160009054906101000a900460ff161515151581526020016009820160019054906101000a900460ff161515151581526020016009820160029054906101000a900460ff161515151581525050915050919050565b600e6020528060005260406000206000915090505481565b6000600c6000838152602001908152602001600020604051806101800160405290816000820154815260200160018201548152602001600282018054611794906139be565b80601f01602080910402602001604051908101604052809291908181526020018280546117c0906139be565b801561180d5780601f106117e25761010080835404028352916020019161180d565b820191906000526020600020905b8154815290600101906020018083116117f057829003601f168201915b50505050508152602001600382015481526020016004820154815260200160058201548152602001600682015481526020016007820160009054906101000a900473ffffffffffffffffffffffffffffffffffffffff1673ffffffffffffffffffffffffffffffffffffffff1673ffffffffffffffffffffffffffffffffffffffff168152602001600882015481526020016009820160009054906101000a900460ff161515151581526020016009820160019054906101000a900460ff161515151581526020016009820160029054906101000a900460ff1615151515815250509050428160c001511115611938576040517f08c379a000000000000000000000000000000000000000000000000000000000815260040161192f906133d7565b60405180910390fd5b600061194c82602001518360a00151610805565b90506000604051806040016040528085815260200160001515815250905080601060008481526020019081526020016000206000820151816000015560208201518160010160006101000a81548160ff0219169083151502179055509050507f07797bdd10b34f8dc42d1e247a7d17ac0b75bf8eb8654afdc6aee7dc067a5e4a816040516119da9190613437565b60405180910390a150505050565b826006600082815260200190815260200160002060009054906101000a900473ffffffffffffffffffffffffffffffffffffffff1673ffffffffffffffffffffffffffffffffffffffff163373ffffffffffffffffffffffffffffffffffffffff1614611a8a576040517f08c379a0000000000000000000000000000000000000000000000000000000008152600401611a81906133f7565b60405180910390fd5b6006600082815260200190815260200160002060006101000a81549073ffffffffffffffffffffffffffffffffffffffff0219169055807f7cc135e0cebb02c3480ae5d74d377283180a2601f8f644edf7987b009316c63a60405160405180910390a2600060106000868152602001908152602001600020604051806040016040529081600082015481526020016001820160009054906101000a900460ff16151515158152505090506000600c60008360000151815260200190815260200160002090506000816003015486611b619190613894565b905060008260040154821015905080611baf576040517f08c379a0000000000000000000000000000000000000000000000000000000008152600401611ba690613417565b60405180910390fd5b5050505050505050565b600c602052806000526040600020600091509050806000015490806001015490806002018054611be8906139be565b80601f0160208091040260200160405190810160405280929190818152602001828054611c14906139be565b8015611c615780601f10611c3657610100808354040283529160200191611c61565b820191906000526020600020905b815481529060010190602001808311611c4457829003601f168201915b5050505050908060030154908060040154908060050154908060060154908060070160009054906101000a900473ffffffffffffffffffffffffffffffffffffffff16908060080154908060090160009054906101000a900460ff16908060090160019054906101000a900460ff16908060090160029054906101000a900460ff1690508c565b611d808282604051602401611cfe929190613311565b6040516020818303038152906040527f9710a9d0000000000000000000000000000000000000000000000000000000007bffffffffffffffffffffffffffffffffffffffffffffffffffffffff19166020820180517bffffffffffffffffffffffffffffffffffffffffffffffffffffffff8381831617835250505050611fa7565b5050565b611d8c612854565b611d94612854565b611dab85858584611fd0909392919063ffffffff16565b9150509392505050565b611dcc82846080015161208090919063ffffffff16565b611de381846080015161208090919063ffffffff16565b505050565b611dff82846080015161208090919063ffffffff16565b611e168184608001516120a590919063ffffffff16565b505050565b6000806005549050600181611e309190613673565b6005819055506000634042994660e01b60008087600001513089604001518760018c6080015160000151604051602401611e719897969594939291906131bf565b604051602081830303815290604052907bffffffffffffffffffffffffffffffffffffffffffffffffffffffff19166020820180517bffffffffffffffffffffffffffffffffffffffffffffffffffffffff83818316178352505050509050611edc868386846120d5565b925050509392505050565b611f7f8282604051602401611efd9291906132da565b6040516020818303038152906040527f4b5c4277000000000000000000000000000000000000000000000000000000007bffffffffffffffffffffffffffffffffffffffffffffffffffffffff19166020820180517bffffffffffffffffffffffffffffffffffffffffffffffffffffffff8381831617835250505050611fa7565b5050565b6001816000016000828254019250508190555050565b600081600001549050919050565b60008151905060006a636f6e736f6c652e6c6f679050602083016000808483855afa5050505050565b611fd8612854565b611fe88560800151610100612279565b508385600001818152505082856020019073ffffffffffffffffffffffffffffffffffffffff16908173ffffffffffffffffffffffffffffffffffffffff16815250508185604001907bffffffffffffffffffffffffffffffffffffffffffffffffffffffff191690817bffffffffffffffffffffffffffffffffffffffffffffffffffffffff191681525050849050949350505050565b61208d82600383516122e3565b6120a0818361246890919063ffffffff16565b505050565b67ffffffffffffffff8111156120c4576120bf828261248a565b6120d1565b6120d0826000836122e3565b5b5050565b600030846040516020016120ea929190613178565b604051602081830303815290604052805190602001209050846006600083815260200190815260200160002060006101000a81548173ffffffffffffffffffffffffffffffffffffffff021916908373ffffffffffffffffffffffffffffffffffffffff160217905550807fb5e6e01e79f91267dc17b4e6314d5d4d03593d2ceee0fbb452b750bd70ea5af960405160405180910390a2600360009054906101000a900473ffffffffffffffffffffffffffffffffffffffff1673ffffffffffffffffffffffffffffffffffffffff16634000aea08685856040518463ffffffff1660e01b81526004016121e093929190613244565b602060405180830381600087803b1580156121fa57600080fd5b505af115801561220e573d6000803e3d6000fd5b505050506040513d601f19601f820116820180604052508101906122329190612a29565b612271576040517f08c379a0000000000000000000000000000000000000000000000000000000008152600401612268906133b7565b60405180910390fd5b949350505050565b6122816128c1565b60006020836122909190613a98565b146122bc576020826122a29190613a98565b60206122ae9190613894565b826122b99190613673565b91505b81836020018181525050604051808452600081528281016020016040525082905092915050565b60178167ffffffffffffffff161161231a576123148160058460ff16901b60ff1617846124d690919063ffffffff16565b50612463565b60ff8167ffffffffffffffff161161237057612349601860058460ff16901b17846124d690919063ffffffff16565b5061236a8167ffffffffffffffff166001856124f69092919063ffffffff16565b50612462565b61ffff8167ffffffffffffffff16116123c7576123a0601960058460ff16901b17846124d690919063ffffffff16565b506123c18167ffffffffffffffff166002856124f69092919063ffffffff16565b50612461565b63ffffffff8167ffffffffffffffff1611612420576123f9601a60058460ff16901b17846124d690919063ffffffff16565b5061241a8167ffffffffffffffff166004856124f69092919063ffffffff16565b50612460565b61243d601b60058460ff16901b17846124d690919063ffffffff16565b5061245e8167ffffffffffffffff166008856124f69092919063ffffffff16565b505b5b5b5b505050565b6124706128c1565b61248283846000015151848551612518565b905092915050565b6124a860026005600660ff16901b17836124d690919063ffffffff16565b506124d282826040516020016124be9190613496565b604051602081830303815290604052612607565b5050565b6124de6128c1565b6124ee838460000151518461262c565b905092915050565b6124fe6128c1565b61250f848560000151518585612683565b90509392505050565b6125206128c1565b825182111561252e57600080fd5b8460200151828561253f9190613673565b1115612574576125738560026125648860200151888761255f9190613673565b612711565b61256e919061383a565b61272d565b5b6000808651805187602083010193508088870111156125935787860182525b60208701925050505b602084106125da57805182526020826125b59190613673565b91506020816125c49190613673565b90506020846125d39190613894565b935061259c565b60006001856020036101000a03905080198251168184511681811785525050508692505050949350505050565b61261482600283516122e3565b612627818361246890919063ffffffff16565b505050565b6126346128c1565b8360200151831061265a576126598460028660200151612654919061383a565b61272d565b5b8351805160208583010184815381861415612676576001820183525b5050508390509392505050565b61268b6128c1565b8460200151848361269c9190613673565b11156126c4576126c385600286856126b49190613673565b6126be919061383a565b61272d565b5b60006001836101006126d6919061371c565b6126e09190613894565b905085518386820101858319825116178152815185880111156127035784870182525b505085915050949350505050565b60008183111561272357829050612727565b8190505b92915050565b6000826000015190506127408383612279565b5061274b8382612468565b50505050565b60405180610180016040528060008152602001600081526020016060815260200160008152602001600081526020016000815260200160008152602001600073ffffffffffffffffffffffffffffffffffffffff168152602001600081526020016000151581526020016000151581526020016000151581525090565b8280546127da906139be565b90600052602060002090601f0160209004810192826127fc5760008555612843565b82601f1061281557805160ff1916838001178555612843565b82800160010185558215612843579182015b82811115612842578251825591602001919060010190612827565b5b50905061285091906128db565b5090565b6040518060a0016040528060008019168152602001600073ffffffffffffffffffffffffffffffffffffffff16815260200160007bffffffffffffffffffffffffffffffffffffffffffffffffffffffff19168152602001600081526020016128bb6128c1565b81525090565b604051806040016040528060608152602001600081525090565b5b808211156128f45760008160009055506001016128dc565b5090565b600061290b612906846135c0565b61359b565b90508281526020810184848401111561292757612926613bb9565b5b61293284828561397c565b509392505050565b60008135905061294981613ce3565b92915050565b60008151905061295e81613cfa565b92915050565b60008135905061297381613d11565b92915050565b600082601f83011261298e5761298d613bb4565b5b813561299e8482602086016128f8565b91505092915050565b6000813590506129b681613d28565b92915050565b6000602082840312156129d2576129d1613bc3565b5b60006129e08482850161293a565b91505092915050565b60008060408385031215612a00576129ff613bc3565b5b6000612a0e8582860161293a565b9250506020612a1f858286016129a7565b9150509250929050565b600060208284031215612a3f57612a3e613bc3565b5b6000612a4d8482850161294f565b91505092915050565b600060208284031215612a6c57612a6b613bc3565b5b6000612a7a84828501612964565b91505092915050565b600080600060608486031215612a9c57612a9b613bc3565b5b6000612aaa86828701612964565b9350506020612abb868287016129a7565b9250506040612acc868287016129a7565b9150509250925092565b600060208284031215612aec57612aeb613bc3565b5b600082013567ffffffffffffffff811115612b0a57612b09613bbe565b5b612b1684828501612979565b91505092915050565b600080600080600060a08688031215612b3b57612b3a613bc3565b5b600086013567ffffffffffffffff811115612b5957612b58613bbe565b5b612b6588828901612979565b9550506020612b76888289016129a7565b945050604086013567ffffffffffffffff811115612b9757612b96613bbe565b5b612ba388828901612979565b9350506060612bb4888289016129a7565b9250506080612bc5888289016129a7565b9150509295509295909350565b600060208284031215612be857612be7613bc3565b5b6000612bf6848285016129a7565b91505092915050565b60008060408385031215612c1657612c15613bc3565b5b6000612c24858286016129a7565b9250506020612c35858286016129a7565b9150509250929050565b6000612c4b8383612f3b565b905092915050565b612c5c816138c8565b82525050565b612c6b816138c8565b82525050565b6000612c7c82613601565b612c86818561362f565b935083602082028501612c98856135f1565b8060005b85811015612cd45784840389528151612cb58582612c3f565b9450612cc083613622565b925060208a01995050600181019050612c9c565b50829750879550505050505092915050565b612cef816138da565b82525050565b612cfe816138da565b82525050565b612d0d816138e6565b82525050565b612d1c816138f0565b82525050565b6000612d2d8261360c565b612d378185613640565b9350612d4781856020860161398b565b612d5081613bc8565b840191505092915050565b612d6c612d6782613946565b613a6a565b82525050565b6000612d7d82613617565b612d878185613651565b9350612d9781856020860161398b565b612da081613bc8565b840191505092915050565b6000612db682613617565b612dc08185613662565b9350612dd081856020860161398b565b612dd981613bc8565b840191505092915050565b6000612df1602383613662565b9150612dfc82613bf3565b604082019050919050565b6000612e14601f83613662565b9150612e1f82613c42565b602082019050919050565b6000612e37602883613662565b9150612e4282613c6b565b604082019050919050565b6000612e5a601b83613662565b9150612e6582613cba565b602082019050919050565b604082016000820151612e866000850182613143565b506020820151612e996020850182612ce6565b50505050565b600060e0830160008301518482036000860152612ebc8282612d72565b9150506020830151612ed16020860182613143565b506040830151612ee46040860182613143565b506060830151612ef76060860182613143565b506080830151612f0a6080860182612c53565b5060a0830151612f1d60a0860182613143565b5060c0830151612f3060c0860182612ce6565b508091505092915050565b600061018083016000830151612f546000860182613143565b506020830151612f676020860182613143565b5060408301518482036040860152612f7f8282612d72565b9150506060830151612f946060860182613143565b506080830151612fa76080860182613143565b5060a0830151612fba60a0860182613143565b5060c0830151612fcd60c0860182613143565b5060e0830151612fe060e0860182612c53565b50610100830151612ff5610100860182613143565b5061012083015161300a610120860182612ce6565b5061014083015161301f610140860182612ce6565b50610160830151613034610160860182612ce6565b508091505092915050565b6000610180830160008301516130586000860182613143565b50602083015161306b6020860182613143565b50604083015184820360408601526130838282612d72565b91505060608301516130986060860182613143565b5060808301516130ab6080860182613143565b5060a08301516130be60a0860182613143565b5060c08301516130d160c0860182613143565b5060e08301516130e460e0860182612c53565b506101008301516130f9610100860182613143565b5061012083015161310e610120860182612ce6565b50610140830151613123610140860182612ce6565b50610160830151613138610160860182612ce6565b508091505092915050565b61314c8161393c565b82525050565b61315b8161393c565b82525050565b61317261316d8261393c565b613a8e565b82525050565b60006131848285612d5b565b6014820191506131948284613161565b6020820191508190509392505050565b60006020820190506131b96000830184612c62565b92915050565b6000610100820190506131d5600083018b612c62565b6131e2602083018a613152565b6131ef6040830189612d04565b6131fc6060830188612c62565b6132096080830187612d13565b61321660a0830186613152565b61322360c0830185613152565b81810360e08301526132358184612d22565b90509998505050505050505050565b60006060820190506132596000830186612c62565b6132666020830185613152565b81810360408301526132788184612d22565b9050949350505050565b6000602082019050818103600083015261329c8184612c71565b905092915050565b60006020820190506132b96000830184612cf5565b92915050565b60006020820190506132d46000830184612d04565b92915050565b600060408201905081810360008301526132f48185612dab565b905081810360208301526133088184612dab565b90509392505050565b6000604082019050818103600083015261332b8185612dab565b905061333a6020830184613152565b9392505050565b600060e082019050818103600083015261335b818a612dab565b905061336a6020830189613152565b6133776040830188613152565b6133846060830187613152565b6133916080830186612c62565b61339e60a0830185613152565b6133ab60c0830184612cf5565b98975050505050505050565b600060208201905081810360008301526133d081612de4565b9050919050565b600060208201905081810360008301526133f081612e07565b9050919050565b6000602082019050818103600083015261341081612e2a565b9050919050565b6000602082019050818103600083015261343081612e4d565b9050919050565b600060408201905061344c6000830184612e70565b92915050565b6000602082019050818103600083015261346c8184612e9f565b905092915050565b6000602082019050818103600083015261348e818461303f565b905092915050565b60006020820190506134ab6000830184613152565b92915050565b60006040820190506134c66000830185613152565b6134d36020830184612cf5565b9392505050565b6000610180820190506134f0600083018f613152565b6134fd602083018e613152565b818103604083015261350f818d612dab565b905061351e606083018c613152565b61352b608083018b613152565b61353860a083018a613152565b61354560c0830189613152565b61355260e0830188612c62565b613560610100830187613152565b61356e610120830186612cf5565b61357c610140830185612cf5565b61358a610160830184612cf5565b9d9c50505050505050505050505050565b60006135a56135b6565b90506135b182826139f0565b919050565b6000604051905090565b600067ffffffffffffffff8211156135db576135da613b85565b5b6135e482613bc8565b9050602081019050919050565b6000819050602082019050919050565b600081519050919050565b600081519050919050565b600081519050919050565b6000602082019050919050565b600082825260208201905092915050565b600082825260208201905092915050565b600082825260208201905092915050565b600082825260208201905092915050565b600061367e8261393c565b91506136898361393c565b9250827fffffffffffffffffffffffffffffffffffffffffffffffffffffffffffffffff038211156136be576136bd613ac9565b5b828201905092915050565b6000808291508390505b6001851115613713578086048111156136ef576136ee613ac9565b5b60018516156136fe5780820291505b808102905061370c85613be6565b94506136d3565b94509492505050565b60006137278261393c565b91506137328361393c565b925061375f7fffffffffffffffffffffffffffffffffffffffffffffffffffffffffffffffff8484613767565b905092915050565b6000826137775760019050613833565b816137855760009050613833565b816001811461379b57600281146137a5576137d4565b6001915050613833565b60ff8411156137b7576137b6613ac9565b5b8360020a9150848211156137ce576137cd613ac9565b5b50613833565b5060208310610133831016604e8410600b84101617156138095782820a90508381111561380457613803613ac9565b5b613833565b61381684848460016136c9565b9250905081840481111561382d5761382c613ac9565b5b81810290505b9392505050565b60006138458261393c565b91506138508361393c565b9250817fffffffffffffffffffffffffffffffffffffffffffffffffffffffffffffffff048311821515161561388957613888613ac9565b5b828202905092915050565b600061389f8261393c565b91506138aa8361393c565b9250828210156138bd576138bc613ac9565b5b828203905092915050565b60006138d38261391c565b9050919050565b60008115159050919050565b6000819050919050565b60007fffffffff0000000000000000000000000000000000000000000000000000000082169050919050565b600073ffffffffffffffffffffffffffffffffffffffff82169050919050565b6000819050919050565b600061395182613958565b9050919050565b60006139638261396a565b9050919050565b60006139758261391c565b9050919050565b82818337600083830152505050565b60005b838110156139a957808201518184015260208101905061398e565b838111156139b8576000848401525b50505050565b600060028204905060018216806139d657607f821691505b602082108114156139ea576139e9613b27565b5b50919050565b6139f982613bc8565b810181811067ffffffffffffffff82111715613a1857613a17613b85565b5b80604052505050565b6000613a2c8261393c565b91507fffffffffffffffffffffffffffffffffffffffffffffffffffffffffffffffff821415613a5f57613a5e613ac9565b5b600182019050919050565b6000613a7582613a7c565b9050919050565b6000613a8782613bd9565b9050919050565b6000819050919050565b6000613aa38261393c565b9150613aae8361393c565b925082613abe57613abd613af8565b5b828206905092915050565b7f4e487b7100000000000000000000000000000000000000000000000000000000600052601160045260246000fd5b7f4e487b7100000000000000000000000000000000000000000000000000000000600052601260045260246000fd5b7f4e487b7100000000000000000000000000000000000000000000000000000000600052602260045260246000fd5b7f4e487b7100000000000000000000000000000000000000000000000000000000600052603260045260246000fd5b7f4e487b7100000000000000000000000000000000000000000000000000000000600052604160045260246000fd5b600080fd5b600080fd5b600080fd5b600080fd5b6000601f19601f8301169050919050565b60008160601b9050919050565b60008160011c9050919050565b7f756e61626c6520746f207472616e73666572416e6443616c6c20746f206f726160008201527f636c650000000000000000000000000000000000000000000000000000000000602082015250565b7f596f7572206368616c6c656e6765206973206e6f74206f766572207965742100600082015250565b7f536f75726365206d75737420626520746865206f7261636c65206f662074686560008201527f2072657175657374000000000000000000000000000000000000000000000000602082015250565b7f596f7520646964206e6f7420726561636820796f757220676f616c0000000000600082015250565b613cec816138c8565b8114613cf757600080fd5b50565b613d03816138da565b8114613d0e57600080fd5b50565b613d1a816138e6565b8114613d2557600080fd5b50565b613d318161393c565b8114613d3c57600080fd5b5056fea26469706673582212203f145c4d11d1d0f941500ccedc81be5255b2da563c666f9705261b9e2b034b1c64736f6c63430008070033",
  "devdoc": {
    "kind": "dev",
    "methods": {},
    "version": 1
  },
  "userdoc": {
    "kind": "user",
    "methods": {},
    "version": 1
  },
  "storageLayout": {
    "storage": [
      {
        "astId": 2384,
        "contract": "contracts/GoalContractV1.sol:GoalContractV1",
        "label": "_status",
        "offset": 0,
        "slot": "0",
        "type": "t_uint256"
      },
      {
        "astId": 319,
        "contract": "contracts/GoalContractV1.sol:GoalContractV1",
        "label": "s_ens",
        "offset": 0,
        "slot": "1",
        "type": "t_contract(ENSInterface)1156"
      },
      {
        "astId": 321,
        "contract": "contracts/GoalContractV1.sol:GoalContractV1",
        "label": "s_ensNode",
        "offset": 0,
        "slot": "2",
        "type": "t_bytes32"
      },
      {
        "astId": 324,
        "contract": "contracts/GoalContractV1.sol:GoalContractV1",
        "label": "s_link",
        "offset": 0,
        "slot": "3",
        "type": "t_contract(LinkTokenInterface)1251"
      },
      {
        "astId": 327,
        "contract": "contracts/GoalContractV1.sol:GoalContractV1",
        "label": "s_oracle",
        "offset": 0,
        "slot": "4",
        "type": "t_contract(OperatorInterface)1331"
      },
      {
        "astId": 330,
        "contract": "contracts/GoalContractV1.sol:GoalContractV1",
        "label": "s_requestCount",
        "offset": 0,
        "slot": "5",
        "type": "t_uint256"
      },
      {
        "astId": 334,
        "contract": "contracts/GoalContractV1.sol:GoalContractV1",
        "label": "s_pendingRequests",
        "offset": 0,
        "slot": "6",
        "type": "t_mapping(t_bytes32,t_address)"
      },
      {
        "astId": 2505,
        "contract": "contracts/GoalContractV1.sol:GoalContractV1",
        "label": "oracle",
        "offset": 0,
        "slot": "7",
        "type": "t_address"
      },
      {
        "astId": 2507,
        "contract": "contracts/GoalContractV1.sol:GoalContractV1",
        "label": "jobId",
        "offset": 0,
        "slot": "8",
        "type": "t_bytes32"
      },
      {
        "astId": 2509,
        "contract": "contracts/GoalContractV1.sol:GoalContractV1",
        "label": "fee",
        "offset": 0,
        "slot": "9",
        "type": "t_uint256"
      },
      {
        "astId": 3406,
        "contract": "contracts/GoalContractV1.sol:GoalContractV1",
        "label": "goalIds",
        "offset": 0,
        "slot": "10",
        "type": "t_struct(Counter)2419_storage"
      },
      {
        "astId": 3409,
        "contract": "contracts/GoalContractV1.sol:GoalContractV1",
        "label": "goalsAchieved",
        "offset": 0,
        "slot": "11",
        "type": "t_struct(Counter)2419_storage"
      },
      {
        "astId": 3459,
        "contract": "contracts/GoalContractV1.sol:GoalContractV1",
        "label": "idToGoal",
        "offset": 0,
        "slot": "12",
        "type": "t_mapping(t_uint256,t_struct(Goal)3434_storage)"
      },
      {
        "astId": 3464,
        "contract": "contracts/GoalContractV1.sol:GoalContractV1",
        "label": "userToGoalIds",
        "offset": 0,
        "slot": "13",
        "type": "t_mapping(t_address,t_array(t_uint256)dyn_storage)"
      },
      {
        "astId": 3468,
        "contract": "contracts/GoalContractV1.sol:GoalContractV1",
        "label": "userToLastReqId",
        "offset": 0,
        "slot": "14",
        "type": "t_mapping(t_address,t_bytes32)"
      },
      {
        "astId": 3473,
        "contract": "contracts/GoalContractV1.sol:GoalContractV1",
        "label": "requestIdToGoalRequest",
        "offset": 0,
        "slot": "15",
        "type": "t_mapping(t_bytes32,t_struct(GoalRequest)3449_storage)"
      },
      {
        "astId": 3478,
        "contract": "contracts/GoalContractV1.sol:GoalContractV1",
        "label": "requestIdToGoalEvaluationRequest",
        "offset": 0,
        "slot": "16",
        "type": "t_mapping(t_bytes32,t_struct(GoalEvaluateRequest)3454_storage)"
      },
      {
        "astId": 3482,
        "contract": "contracts/GoalContractV1.sol:GoalContractV1",
        "label": "amountLockedByAddress",
        "offset": 0,
        "slot": "17",
        "type": "t_mapping(t_address,t_uint256)"
      }
    ],
    "types": {
      "t_address": {
        "encoding": "inplace",
        "label": "address",
        "numberOfBytes": "20"
      },
      "t_array(t_uint256)dyn_storage": {
        "base": "t_uint256",
        "encoding": "dynamic_array",
        "label": "uint256[]",
        "numberOfBytes": "32"
      },
      "t_bool": {
        "encoding": "inplace",
        "label": "bool",
        "numberOfBytes": "1"
      },
      "t_bytes32": {
        "encoding": "inplace",
        "label": "bytes32",
        "numberOfBytes": "32"
      },
      "t_contract(ENSInterface)1156": {
        "encoding": "inplace",
        "label": "contract ENSInterface",
        "numberOfBytes": "20"
      },
      "t_contract(LinkTokenInterface)1251": {
        "encoding": "inplace",
        "label": "contract LinkTokenInterface",
        "numberOfBytes": "20"
      },
      "t_contract(OperatorInterface)1331": {
        "encoding": "inplace",
        "label": "contract OperatorInterface",
        "numberOfBytes": "20"
      },
      "t_mapping(t_address,t_array(t_uint256)dyn_storage)": {
        "encoding": "mapping",
        "key": "t_address",
        "label": "mapping(address => uint256[])",
        "numberOfBytes": "32",
        "value": "t_array(t_uint256)dyn_storage"
      },
      "t_mapping(t_address,t_bytes32)": {
        "encoding": "mapping",
        "key": "t_address",
        "label": "mapping(address => bytes32)",
        "numberOfBytes": "32",
        "value": "t_bytes32"
      },
      "t_mapping(t_address,t_uint256)": {
        "encoding": "mapping",
        "key": "t_address",
        "label": "mapping(address => uint256)",
        "numberOfBytes": "32",
        "value": "t_uint256"
      },
      "t_mapping(t_bytes32,t_address)": {
        "encoding": "mapping",
        "key": "t_bytes32",
        "label": "mapping(bytes32 => address)",
        "numberOfBytes": "32",
        "value": "t_address"
      },
      "t_mapping(t_bytes32,t_struct(GoalEvaluateRequest)3454_storage)": {
        "encoding": "mapping",
        "key": "t_bytes32",
        "label": "mapping(bytes32 => struct GoalContractV1.GoalEvaluateRequest)",
        "numberOfBytes": "32",
        "value": "t_struct(GoalEvaluateRequest)3454_storage"
      },
      "t_mapping(t_bytes32,t_struct(GoalRequest)3449_storage)": {
        "encoding": "mapping",
        "key": "t_bytes32",
        "label": "mapping(bytes32 => struct GoalContractV1.GoalRequest)",
        "numberOfBytes": "32",
        "value": "t_struct(GoalRequest)3449_storage"
      },
      "t_mapping(t_uint256,t_struct(Goal)3434_storage)": {
        "encoding": "mapping",
        "key": "t_uint256",
        "label": "mapping(uint256 => struct GoalContractV1.Goal)",
        "numberOfBytes": "32",
        "value": "t_struct(Goal)3434_storage"
      },
      "t_string_storage": {
        "encoding": "bytes",
        "label": "string",
        "numberOfBytes": "32"
      },
      "t_struct(Counter)2419_storage": {
        "encoding": "inplace",
        "label": "struct Counters.Counter",
        "members": [
          {
            "astId": 2418,
            "contract": "contracts/GoalContractV1.sol:GoalContractV1",
            "label": "_value",
            "offset": 0,
            "slot": "0",
            "type": "t_uint256"
          }
        ],
        "numberOfBytes": "32"
      },
      "t_struct(Goal)3434_storage": {
        "encoding": "inplace",
        "label": "struct GoalContractV1.Goal",
        "members": [
          {
            "astId": 3411,
            "contract": "contracts/GoalContractV1.sol:GoalContractV1",
            "label": "goalId",
            "offset": 0,
            "slot": "0",
            "type": "t_uint256"
          },
          {
            "astId": 3413,
            "contract": "contracts/GoalContractV1.sol:GoalContractV1",
            "label": "username",
            "offset": 0,
            "slot": "1",
            "type": "t_uint256"
          },
          {
            "astId": 3415,
            "contract": "contracts/GoalContractV1.sol:GoalContractV1",
            "label": "goal",
            "offset": 0,
            "slot": "2",
            "type": "t_string_storage"
          },
          {
            "astId": 3417,
            "contract": "contracts/GoalContractV1.sol:GoalContractV1",
            "label": "current",
            "offset": 0,
            "slot": "3",
            "type": "t_uint256"
          },
          {
            "astId": 3419,
            "contract": "contracts/GoalContractV1.sol:GoalContractV1",
            "label": "target",
            "offset": 0,
            "slot": "4",
            "type": "t_uint256"
          },
          {
            "astId": 3421,
            "contract": "contracts/GoalContractV1.sol:GoalContractV1",
            "label": "startDate",
            "offset": 0,
            "slot": "5",
            "type": "t_uint256"
          },
          {
            "astId": 3423,
            "contract": "contracts/GoalContractV1.sol:GoalContractV1",
            "label": "endDate",
            "offset": 0,
            "slot": "6",
            "type": "t_uint256"
          },
          {
            "astId": 3425,
            "contract": "contracts/GoalContractV1.sol:GoalContractV1",
            "label": "goalOwnerAddress",
            "offset": 0,
            "slot": "7",
            "type": "t_address"
          },
          {
            "astId": 3427,
            "contract": "contracts/GoalContractV1.sol:GoalContractV1",
            "label": "amountPledged",
            "offset": 0,
            "slot": "8",
            "type": "t_uint256"
          },
          {
            "astId": 3429,
            "contract": "contracts/GoalContractV1.sol:GoalContractV1",
            "label": "achieved",
            "offset": 0,
            "slot": "9",
            "type": "t_bool"
          },
          {
            "astId": 3431,
            "contract": "contracts/GoalContractV1.sol:GoalContractV1",
            "label": "withdrawn",
            "offset": 1,
            "slot": "9",
            "type": "t_bool"
          },
          {
            "astId": 3433,
            "contract": "contracts/GoalContractV1.sol:GoalContractV1",
            "label": "ended",
            "offset": 2,
            "slot": "9",
            "type": "t_bool"
          }
        ],
        "numberOfBytes": "320"
      },
      "t_struct(GoalEvaluateRequest)3454_storage": {
        "encoding": "inplace",
        "label": "struct GoalContractV1.GoalEvaluateRequest",
        "members": [
          {
            "astId": 3451,
            "contract": "contracts/GoalContractV1.sol:GoalContractV1",
            "label": "goalId",
            "offset": 0,
            "slot": "0",
            "type": "t_uint256"
          },
          {
            "astId": 3453,
            "contract": "contracts/GoalContractV1.sol:GoalContractV1",
            "label": "fulfilled",
            "offset": 0,
            "slot": "1",
            "type": "t_bool"
          }
        ],
        "numberOfBytes": "64"
      },
      "t_struct(GoalRequest)3449_storage": {
        "encoding": "inplace",
        "label": "struct GoalContractV1.GoalRequest",
        "members": [
          {
            "astId": 3436,
            "contract": "contracts/GoalContractV1.sol:GoalContractV1",
            "label": "goal",
            "offset": 0,
            "slot": "0",
            "type": "t_string_storage"
          },
          {
            "astId": 3438,
            "contract": "contracts/GoalContractV1.sol:GoalContractV1",
            "label": "startDate",
            "offset": 0,
            "slot": "1",
            "type": "t_uint256"
          },
          {
            "astId": 3440,
            "contract": "contracts/GoalContractV1.sol:GoalContractV1",
            "label": "endDate",
            "offset": 0,
            "slot": "2",
            "type": "t_uint256"
          },
          {
            "astId": 3442,
            "contract": "contracts/GoalContractV1.sol:GoalContractV1",
            "label": "target",
            "offset": 0,
            "slot": "3",
            "type": "t_uint256"
          },
          {
            "astId": 3444,
            "contract": "contracts/GoalContractV1.sol:GoalContractV1",
            "label": "goalOwnerAddress",
            "offset": 0,
            "slot": "4",
            "type": "t_address"
          },
          {
            "astId": 3446,
            "contract": "contracts/GoalContractV1.sol:GoalContractV1",
            "label": "amountPledged",
            "offset": 0,
            "slot": "5",
            "type": "t_uint256"
          },
          {
            "astId": 3448,
            "contract": "contracts/GoalContractV1.sol:GoalContractV1",
            "label": "fulfilled",
            "offset": 0,
            "slot": "6",
            "type": "t_bool"
          }
        ],
        "numberOfBytes": "224"
      },
      "t_uint256": {
        "encoding": "inplace",
        "label": "uint256",
        "numberOfBytes": "32"
      }
    }
  }
}